{
    "contractName": "ERC1238",
    "abi": [
        {
            "inputs": [
                {
                    "internalType": "string",
                    "name": "baseURI_",
                    "type": "string"
                }
            ],
            "stateMutability": "nonpayable",
            "type": "constructor"
        },
        {
            "anonymous": false,
            "inputs": [
                {
                    "indexed": true,
                    "internalType": "address",
                    "name": "burner",
                    "type": "address"
                },
                {
                    "indexed": true,
                    "internalType": "address",
                    "name": "owner",
                    "type": "address"
                },
                {
                    "indexed": false,
                    "internalType": "uint256[]",
                    "name": "ids",
                    "type": "uint256[]"
                },
                {
                    "indexed": false,
                    "internalType": "uint256[]",
                    "name": "amounts",
                    "type": "uint256[]"
                }
            ],
            "name": "BurnBatch",
            "type": "event"
        },
        {
            "anonymous": false,
            "inputs": [
                {
                    "indexed": true,
                    "internalType": "address",
                    "name": "burner",
                    "type": "address"
                },
                {
                    "indexed": true,
                    "internalType": "address",
                    "name": "owner",
                    "type": "address"
                },
                {
                    "indexed": true,
                    "internalType": "uint256",
                    "name": "id",
                    "type": "uint256"
                },
                {
                    "indexed": false,
                    "internalType": "uint256",
                    "name": "amount",
                    "type": "uint256"
                }
            ],
            "name": "BurnSingle",
            "type": "event"
        },
        {
            "anonymous": false,
            "inputs": [
                {
                    "indexed": false,
                    "internalType": "string",
                    "name": "name",
                    "type": "string"
                },
                {
                    "indexed": false,
                    "internalType": "string",
                    "name": "version",
                    "type": "string"
                },
                {
                    "indexed": false,
                    "internalType": "uint256",
                    "name": "chainId",
                    "type": "uint256"
                },
                {
                    "indexed": false,
                    "internalType": "address",
                    "name": "verifyingContract",
                    "type": "address"
                },
                {
                    "indexed": false,
                    "internalType": "bytes32",
                    "name": "dsDigest",
                    "type": "bytes32"
                }
            ],
            "name": "DomainSeparatorForMintApproval",
            "type": "event"
        },
        {
            "anonymous": false,
            "inputs": [
                {
                    "indexed": true,
                    "internalType": "address",
                    "name": "minter",
                    "type": "address"
                },
                {
                    "indexed": true,
                    "internalType": "address",
                    "name": "to",
                    "type": "address"
                },
                {
                    "indexed": false,
                    "internalType": "uint256[]",
                    "name": "ids",
                    "type": "uint256[]"
                },
                {
                    "indexed": false,
                    "internalType": "uint256[]",
                    "name": "amounts",
                    "type": "uint256[]"
                }
            ],
            "name": "MintBatch",
            "type": "event"
        },
        {
            "anonymous": false,
            "inputs": [
                {
                    "indexed": true,
                    "internalType": "address",
                    "name": "minter",
                    "type": "address"
                },
                {
                    "indexed": true,
                    "internalType": "address",
                    "name": "to",
                    "type": "address"
                },
                {
                    "indexed": true,
                    "internalType": "uint256",
                    "name": "id",
                    "type": "uint256"
                },
                {
                    "indexed": false,
                    "internalType": "uint256",
                    "name": "amount",
                    "type": "uint256"
                }
            ],
            "name": "MintSingle",
            "type": "event"
        },
        {
            "inputs": [],
            "name": "DOMAIN_SEPARATOR",
            "outputs": [
                {
                    "internalType": "bytes32",
                    "name": "",
                    "type": "bytes32"
                }
            ],
            "stateMutability": "view",
            "type": "function"
        },
        {
            "inputs": [
                {
                    "internalType": "address",
                    "name": "account",
                    "type": "address"
                },
                {
                    "internalType": "uint256",
                    "name": "id",
                    "type": "uint256"
                }
            ],
            "name": "_balanceOf",
            "outputs": [
                {
                    "internalType": "uint256",
                    "name": "",
                    "type": "uint256"
                }
            ],
            "stateMutability": "view",
            "type": "function"
        },
        {
            "inputs": [
                {
                    "internalType": "address",
                    "name": "account",
                    "type": "address"
                }
            ],
            "name": "balanceOf",
            "outputs": [
                {
                    "internalType": "uint256",
                    "name": "",
                    "type": "uint256"
                }
            ],
            "stateMutability": "view",
            "type": "function"
        },
        {
            "inputs": [
                {
                    "internalType": "address",
                    "name": "account",
                    "type": "address"
                },
                {
                    "internalType": "uint256[]",
                    "name": "ids",
                    "type": "uint256[]"
                }
            ],
            "name": "balanceOfBatch",
            "outputs": [
                {
                    "internalType": "uint256[]",
                    "name": "",
                    "type": "uint256[]"
                }
            ],
            "stateMutability": "view",
            "type": "function"
        },
        {
            "inputs": [
                {
                    "internalType": "address[]",
                    "name": "accounts",
                    "type": "address[]"
                },
                {
                    "internalType": "uint256[][]",
                    "name": "ids",
                    "type": "uint256[][]"
                }
            ],
            "name": "balanceOfBundle",
            "outputs": [
                {
                    "internalType": "uint256[][]",
                    "name": "",
                    "type": "uint256[][]"
                }
            ],
            "stateMutability": "view",
            "type": "function"
        },
        {
            "inputs": [
                {
                    "internalType": "bytes",
                    "name": "sig",
                    "type": "bytes"
                }
            ],
            "name": "splitSignature",
            "outputs": [
                {
                    "internalType": "bytes32",
                    "name": "r",
                    "type": "bytes32"
                },
                {
                    "internalType": "bytes32",
                    "name": "s",
                    "type": "bytes32"
                },
                {
                    "internalType": "uint8",
                    "name": "v",
                    "type": "uint8"
                }
            ],
            "stateMutability": "pure",
            "type": "function"
        }
    ],
    "bytecode": "60806040523480156200001157600080fd5b5060405162000caf38038062000caf833981016040819052620000349162000282565b6040805160c0810182526015608082019081527f45524331323338204d696e7420417070726f76616c000000000000000000000060a083015281528151808301835260018152603160f81b6020828101918252808401839052468486018190523060608601819052855180519084012094519093209551949562000104957f8b73c3c69bb8fe3d512ecc4cf759cc79239f7b179b0ffacaa9a75d522b39400f95949193019485526020850193909352604084019190915260608301526001600160a01b0316608082015260a00190565b60408051601f19818403018152828252805160209182012060008190558451918501519285015160608601517fe5a822f101a714d5cd94a04cf067a84a2ddb69b5326b93008a040df8a74a3872956200015f95939062000368565b60405180910390a15062000173816200017a565b50620003f4565b80516200018f90600290602084019062000193565b5050565b828054620001a190620003b8565b90600052602060002090601f016020900481019282620001c5576000855562000210565b82601f10620001e057805160ff191683800117855562000210565b8280016001018555821562000210579182015b8281111562000210578251825591602001919060010190620001f3565b506200021e92915062000222565b5090565b5b808211156200021e576000815560010162000223565b634e487b7160e01b600052604160045260246000fd5b60005b838110156200026c57818101518382015260200162000252565b838111156200027c576000848401525b50505050565b6000602082840312156200029557600080fd5b81516001600160401b0380821115620002ad57600080fd5b818401915084601f830112620002c257600080fd5b815181811115620002d757620002d762000239565b604051601f8201601f19908116603f0116810190838211818310171562000302576200030262000239565b816040528281528760208487010111156200031c57600080fd5b6200032f8360208301602088016200024f565b979650505050505050565b60008151808452620003548160208601602086016200024f565b601f01601f19169290920160200192915050565b60a0815260006200037d60a08301886200033a565b82810360208401526200039181886200033a565b604084019690965250506001600160a01b0392909216606083015260809091015292915050565b600181811c90821680620003cd57607f821691505b602082108103620003ee57634e487b7160e01b600052602260045260246000fd5b50919050565b6108ab80620004046000396000f3fe608060405234801561001057600080fd5b50600436106100625760003560e01c80633644e5151461006757806370a0823114610083578063787d2f3014610096578063a7bb5803146100a9578063afd69086146100da578063dbee1524146100fa575b600080fd5b61007060005481565b6040519081526020015b60405180910390f35b6100706100913660046103e4565b61011a565b6100706100a4366004610406565b610186565b6100bc6100b7366004610477565b6101d6565b60408051938452602084019290925260ff169082015260600161007a565b6100ed6100e836600461059b565b61024a565b60405161007a91906105e9565b61010d6101083660046106ad565b6102fc565b60405161007a9190610763565b60006001600160a01b03821661014b5760405162461bcd60e51b8152600401610142906107ed565b60405180910390fd5b506001600160a01b031660009081527fcc69885fda6bcc1a4ace058b4a62bf5e179ea78fd58a1ccd71c22cc9b688792f602052604090205490565b60006001600160a01b0383166101ae5760405162461bcd60e51b8152600401610142906107ed565b5060009081526001602090815260408083206001600160a01b03949094168352929052205490565b6000806000835160411461022c5760405162461bcd60e51b815260206004820152601860248201527f696e76616c6964207369676e6174757265206c656e67746800000000000000006044820152606401610142565b50505060208101516040820151606090920151909260009190911a90565b60606000825167ffffffffffffffff81111561026857610268610430565b604051908082528060200260200182016040528015610291578160200160208202803683370190505b50835190915060005b818110156102f2576102c5868683815181106102b8576102b8610838565b6020026020010151610186565b8382815181106102d7576102d7610838565b60209081029190910101526102eb8161084e565b905061029a565b5090949350505050565b60606000835167ffffffffffffffff81111561031a5761031a610430565b60405190808252806020026020018201604052801561034d57816020015b60608152602001906001900390816103385790505b50845190915060005b818110156102f25761039a86828151811061037357610373610838565b602002602001015186838151811061038d5761038d610838565b602002602001015161024a565b8382815181106103ac576103ac610838565b6020026020010181905250806103c19061084e565b9050610356565b80356001600160a01b03811681146103df57600080fd5b919050565b6000602082840312156103f657600080fd5b6103ff826103c8565b9392505050565b6000806040838503121561041957600080fd5b610422836103c8565b946020939093013593505050565b634e487b7160e01b600052604160045260246000fd5b604051601f8201601f1916810167ffffffffffffffff8111828210171561046f5761046f610430565b604052919050565b6000602080838503121561048a57600080fd5b823567ffffffffffffffff808211156104a257600080fd5b818501915085601f8301126104b657600080fd5b8135818111156104c8576104c8610430565b6104da601f8201601f19168501610446565b915080825286848285010111156104f057600080fd5b8084840185840137600090820190930192909252509392505050565b600067ffffffffffffffff82111561052657610526610430565b5060051b60200190565b600082601f83011261054157600080fd5b813560206105566105518361050c565b610446565b82815260059290921b8401810191818101908684111561057557600080fd5b8286015b848110156105905780358352918301918301610579565b509695505050505050565b600080604083850312156105ae57600080fd5b6105b7836103c8565b9150602083013567ffffffffffffffff8111156105d357600080fd5b6105df85828601610530565b9150509250929050565b6020808252825182820181905260009190848201906040850190845b8181101561062157835183529284019291840191600101610605565b50909695505050505050565b600082601f83011261063e57600080fd5b8135602061064e6105518361050c565b82815260059290921b8401810191818101908684111561066d57600080fd5b8286015b8481101561059057803567ffffffffffffffff8111156106915760008081fd5b61069f8986838b0101610530565b845250918301918301610671565b600080604083850312156106c057600080fd5b823567ffffffffffffffff808211156106d857600080fd5b818501915085601f8301126106ec57600080fd5b813560206106fc6105518361050c565b82815260059290921b8401810191818101908984111561071b57600080fd5b948201945b8386101561074057610731866103c8565b82529482019490820190610720565b9650508601359250508082111561075657600080fd5b506105df8582860161062d565b6000602080830181845280855180835260408601915060408160051b87010192508387016000805b838110156107df57888603603f19018552825180518088529088019088880190845b818110156107c95783518352928a0192918a01916001016107ad565b509097505050938601939186019160010161078b565b509398975050505050505050565b6020808252602b908201527f455243313233383a2062616c616e636520717565727920666f7220746865207a60408201526a65726f206164647265737360a81b606082015260800190565b634e487b7160e01b600052603260045260246000fd5b60006001820161086e57634e487b7160e01b600052601160045260246000fd5b506001019056fea26469706673582212207f182fcd63f73d4926f44667df8a1928aa7fcd54bf5ea0223b30defb9dd3227b64736f6c634300080e0033",
    "sourcePath": "f:/Workspace/Orders/ONERep/ONERep.github/src/TestingHardhatSolidityProject/contracts/ERC1238/ERC1238.sol",
    "compiler": {
        "name": "solc",
        "version": "0.8.14+commit.80d49f37"
    },
    "functionHashes": {
        "DOMAIN_SEPARATOR()": "3644e515",
        "_balanceOf(address,uint256)": "787d2f30",
        "balanceOf(address)": "70a08231",
        "balanceOfBatch(address,uint256[])": "afd69086",
        "balanceOfBundle(address[],uint256[][])": "dbee1524",
        "splitSignature(bytes)": "a7bb5803"
    },
    "gasEstimates": {
        "creation": {
            "codeDepositCost": "443800",
            "executionCost": "infinite",
            "totalCost": "infinite"
        },
        "external": {
            "DOMAIN_SEPARATOR()": "2262",
            "_balanceOf(address,uint256)": "2696",
            "balanceOf(address)": "2578",
            "balanceOfBatch(address,uint256[])": "infinite",
            "balanceOfBundle(address[],uint256[][])": "infinite",
            "splitSignature(bytes)": "infinite"
        },
        "internal": {
            "_asSingletonArray(uint256)": "infinite",
            "_baseURI()": "infinite",
            "_beforeBurn(address,address,uint256,uint256)": "infinite",
            "_beforeMint(address,address,uint256,uint256,bytes memory)": "infinite",
            "_burn(address,uint256,uint256)": "infinite",
            "_burnBatch(address,uint256[] memory,uint256[] memory)": "infinite",
            "_doSafeBatchMintAcceptanceCheck(address,address,uint256[] memory,uint256[] memory,bytes memory)": "infinite",
            "_doSafeMintAcceptanceCheck(address,address,uint256,uint256,bytes memory)": "infinite",
            "_mint(address,uint256,uint256,bytes memory)": "infinite",
            "_mintBatch(address,uint256[] memory,uint256[] memory,bytes memory)": "infinite",
            "_mintBatchToContract(address,uint256[] memory,uint256[] memory,bytes memory)": "infinite",
            "_mintBatchToEOA(address,uint256[] memory,uint256[] memory,uint8,bytes32,bytes32,bytes memory)": "infinite",
            "_mintBundle(address[] memory,uint256[] memory[] memory,uint256[] memory[] memory,bytes memory[] memory)": "infinite",
            "_mintToContract(address,uint256,uint256,bytes memory)": "infinite",
            "_mintToEOA(address,uint256,uint256,uint8,bytes32,bytes32,bytes memory)": "infinite",
            "_setBaseURI(string memory)": "infinite"
        }
    }
}