{
  "_format": "hh-sol-artifact-1",
  "contractName": "ERC1238ReceiverMock",
  "sourceName": "contracts/ERC1238ReceiverMock.sol",
  "abi": [
    {
      "inputs": [],
      "name": "ERC1238_ON_BATCH_MINT",
      "outputs": [
        {
          "internalType": "bytes4",
          "name": "",
          "type": "bytes4"
        }
      ],
      "stateMutability": "view",
      "type": "function"
    },
    {
      "inputs": [],
      "name": "ERC1238_ON_MINT",
      "outputs": [
        {
          "internalType": "bytes4",
          "name": "",
          "type": "bytes4"
        }
      ],
      "stateMutability": "view",
      "type": "function"
    },
    {
      "inputs": [
        {
          "internalType": "address",
          "name": "",
          "type": "address"
        },
        {
          "internalType": "uint256[]",
          "name": "ids",
          "type": "uint256[]"
        },
        {
          "internalType": "uint256[]",
          "name": "",
          "type": "uint256[]"
        },
        {
          "internalType": "bytes",
          "name": "",
          "type": "bytes"
        }
      ],
      "name": "onERC1238BatchMint",
      "outputs": [
        {
          "internalType": "bytes4",
          "name": "",
          "type": "bytes4"
        }
      ],
      "stateMutability": "pure",
      "type": "function"
    },
    {
      "inputs": [
        {
          "internalType": "address",
          "name": "",
          "type": "address"
        },
        {
          "internalType": "uint256",
          "name": "id",
          "type": "uint256"
        },
        {
          "internalType": "uint256",
          "name": "",
          "type": "uint256"
        },
        {
          "internalType": "bytes",
          "name": "",
          "type": "bytes"
        }
      ],
      "name": "onERC1238Mint",
      "outputs": [
        {
          "internalType": "bytes4",
          "name": "",
          "type": "bytes4"
        }
      ],
      "stateMutability": "pure",
      "type": "function"
    },
    {
      "inputs": [
        {
          "internalType": "bytes4",
          "name": "interfaceId",
          "type": "bytes4"
        }
      ],
      "name": "supportsInterface",
      "outputs": [
        {
          "internalType": "bool",
          "name": "",
          "type": "bool"
        }
      ],
      "stateMutability": "view",
      "type": "function"
    }
  ],
  "bytecode": "0x608060405234801561001057600080fd5b506105b6806100206000396000f3fe608060405234801561001057600080fd5b50600436106100575760003560e01c806301ffc9a71461005c57806345ed75d51461008c5780635f6ea4d6146100bc578063c0bfec68146100da578063db3778e61461010a575b600080fd5b6100766004803603810190610071919061044a565b610128565b6040516100839190610491565b60405180910390f35b6100a660048036038101906100a191906103ca565b610192565b6040516100b391906104ac565b60405180910390f35b6100c46101bc565b6040516100d191906104ac565b60405180910390f35b6100f460048036038101906100ef9190610311565b6101c7565b60405161010191906104ac565b60405180910390f35b610112610233565b60405161011f91906104ac565b60405180910390f35b60007f01ffc9a7000000000000000000000000000000000000000000000000000000007bffffffffffffffffffffffffffffffffffffffffffffffffffffffff1916827bffffffffffffffffffffffffffffffffffffffffffffffffffffffff1916149050919050565b6000808514156101a857600060e01b90506101b3565b6345ed75d560e01b90505b95945050505050565b6345ed75d560e01b81565b60008087876000818110610204577f4e487b7100000000000000000000000000000000000000000000000000000000600052603260045260246000fd5b90506020020135141561021d57600060e01b9050610228565b63c0bfec6860e01b90505b979650505050505050565b63c0bfec6860e01b81565b60008135905061024d8161053b565b92915050565b60008083601f84011261026557600080fd5b8235905067ffffffffffffffff81111561027e57600080fd5b60208301915083602082028301111561029657600080fd5b9250929050565b6000813590506102ac81610552565b92915050565b60008083601f8401126102c457600080fd5b8235905067ffffffffffffffff8111156102dd57600080fd5b6020830191508360018202830111156102f557600080fd5b9250929050565b60008135905061030b81610569565b92915050565b60008060008060008060006080888a03121561032c57600080fd5b600061033a8a828b0161023e565b975050602088013567ffffffffffffffff81111561035757600080fd5b6103638a828b01610253565b9650965050604088013567ffffffffffffffff81111561038257600080fd5b61038e8a828b01610253565b9450945050606088013567ffffffffffffffff8111156103ad57600080fd5b6103b98a828b016102b2565b925092505092959891949750929550565b6000806000806000608086880312156103e257600080fd5b60006103f08882890161023e565b9550506020610401888289016102fc565b9450506040610412888289016102fc565b935050606086013567ffffffffffffffff81111561042f57600080fd5b61043b888289016102b2565b92509250509295509295909350565b60006020828403121561045c57600080fd5b600061046a8482850161029d565b91505092915050565b61047c816104d9565b82525050565b61048b816104e5565b82525050565b60006020820190506104a66000830184610473565b92915050565b60006020820190506104c16000830184610482565b92915050565b60006104d282610511565b9050919050565b60008115159050919050565b60007fffffffff0000000000000000000000000000000000000000000000000000000082169050919050565b600073ffffffffffffffffffffffffffffffffffffffff82169050919050565b6000819050919050565b610544816104c7565b811461054f57600080fd5b50565b61055b816104e5565b811461056657600080fd5b50565b61057281610531565b811461057d57600080fd5b5056fea2646970667358221220a082d266c545b70b4928eb41ed3230c6d36c50f68b915be5346847cf3dfa7cfb64736f6c63430008040033",
  "linkReferences": {},
  "deployedLinkReferences": {}
}