{
  "_format": "hh-sol-artifact-1",
  "contractName": "ONERep",
  "sourceName": "contracts/ONERep.sol",
  "abi": [
    {
      "inputs": [
        {
          "internalType": "address",
          "name": "owner_",
          "type": "address"
        },
        {
          "internalType": "string",
          "name": "symbol_",
          "type": "string"
        },
        {
          "internalType": "string",
          "name": "baseURI_",
          "type": "string"
        }
      ],
      "stateMutability": "nonpayable",
      "type": "constructor"
    },
    {
      "anonymous": false,
      "inputs": [
        {
          "indexed": true,
          "internalType": "address",
          "name": "burner",
          "type": "address"
        },
        {
          "indexed": true,
          "internalType": "address",
          "name": "owner",
          "type": "address"
        },
        {
          "indexed": false,
          "internalType": "uint256[]",
          "name": "ids",
          "type": "uint256[]"
        },
        {
          "indexed": false,
          "internalType": "uint256[]",
          "name": "amounts",
          "type": "uint256[]"
        }
      ],
      "name": "BurnBatch",
      "type": "event"
    },
    {
      "anonymous": false,
      "inputs": [
        {
          "indexed": true,
          "internalType": "address",
          "name": "burner",
          "type": "address"
        },
        {
          "indexed": true,
          "internalType": "address",
          "name": "owner",
          "type": "address"
        },
        {
          "indexed": true,
          "internalType": "uint256",
          "name": "id",
          "type": "uint256"
        },
        {
          "indexed": false,
          "internalType": "uint256",
          "name": "amount",
          "type": "uint256"
        }
      ],
      "name": "BurnSingle",
      "type": "event"
    },
    {
      "anonymous": false,
      "inputs": [
        {
          "indexed": false,
          "internalType": "string",
          "name": "name",
          "type": "string"
        },
        {
          "indexed": false,
          "internalType": "string",
          "name": "version",
          "type": "string"
        },
        {
          "indexed": false,
          "internalType": "uint256",
          "name": "chainId",
          "type": "uint256"
        },
        {
          "indexed": false,
          "internalType": "address",
          "name": "verifyingContract",
          "type": "address"
        },
        {
          "indexed": false,
          "internalType": "bytes32",
          "name": "dsDigest",
          "type": "bytes32"
        }
      ],
      "name": "DomainSeparatorForMintApproval",
      "type": "event"
    },
    {
      "anonymous": false,
      "inputs": [
        {
          "indexed": true,
          "internalType": "address",
          "name": "minter",
          "type": "address"
        },
        {
          "indexed": true,
          "internalType": "address",
          "name": "to",
          "type": "address"
        },
        {
          "indexed": false,
          "internalType": "uint256[]",
          "name": "ids",
          "type": "uint256[]"
        },
        {
          "indexed": false,
          "internalType": "uint256[]",
          "name": "amounts",
          "type": "uint256[]"
        }
      ],
      "name": "MintBatch",
      "type": "event"
    },
    {
      "anonymous": false,
      "inputs": [
        {
          "indexed": true,
          "internalType": "address",
          "name": "minter",
          "type": "address"
        },
        {
          "indexed": true,
          "internalType": "address",
          "name": "to",
          "type": "address"
        },
        {
          "indexed": true,
          "internalType": "uint256",
          "name": "id",
          "type": "uint256"
        },
        {
          "indexed": false,
          "internalType": "uint256",
          "name": "amount",
          "type": "uint256"
        }
      ],
      "name": "MintSingle",
      "type": "event"
    },
    {
      "anonymous": false,
      "inputs": [
        {
          "indexed": true,
          "internalType": "uint256",
          "name": "id",
          "type": "uint256"
        },
        {
          "indexed": false,
          "internalType": "string",
          "name": "value",
          "type": "string"
        }
      ],
      "name": "URI",
      "type": "event"
    },
    {
      "inputs": [],
      "name": "DOMAIN_SEPARATOR",
      "outputs": [
        {
          "internalType": "bytes32",
          "name": "",
          "type": "bytes32"
        }
      ],
      "stateMutability": "view",
      "type": "function"
    },
    {
      "inputs": [
        {
          "internalType": "address",
          "name": "account",
          "type": "address"
        },
        {
          "internalType": "uint256",
          "name": "id",
          "type": "uint256"
        }
      ],
      "name": "_balanceOf",
      "outputs": [
        {
          "internalType": "uint256",
          "name": "",
          "type": "uint256"
        }
      ],
      "stateMutability": "view",
      "type": "function"
    },
    {
      "inputs": [
        {
          "internalType": "string",
          "name": "a",
          "type": "string"
        },
        {
          "internalType": "string",
          "name": "b",
          "type": "string"
        }
      ],
      "name": "_compareStrings",
      "outputs": [
        {
          "internalType": "bool",
          "name": "",
          "type": "bool"
        }
      ],
      "stateMutability": "view",
      "type": "function"
    },
    {
      "inputs": [
        {
          "internalType": "address",
          "name": "newOwner",
          "type": "address"
        }
      ],
      "name": "addOwner",
      "outputs": [],
      "stateMutability": "nonpayable",
      "type": "function"
    },
    {
      "inputs": [
        {
          "internalType": "address",
          "name": "account",
          "type": "address"
        }
      ],
      "name": "balanceOf",
      "outputs": [
        {
          "internalType": "uint256",
          "name": "",
          "type": "uint256"
        }
      ],
      "stateMutability": "view",
      "type": "function"
    },
    {
      "inputs": [
        {
          "internalType": "address",
          "name": "account",
          "type": "address"
        },
        {
          "internalType": "uint256[]",
          "name": "ids",
          "type": "uint256[]"
        }
      ],
      "name": "balanceOfBatch",
      "outputs": [
        {
          "internalType": "uint256[]",
          "name": "",
          "type": "uint256[]"
        }
      ],
      "stateMutability": "view",
      "type": "function"
    },
    {
      "inputs": [
        {
          "internalType": "address[]",
          "name": "accounts",
          "type": "address[]"
        },
        {
          "internalType": "uint256[][]",
          "name": "ids",
          "type": "uint256[][]"
        }
      ],
      "name": "balanceOfBundle",
      "outputs": [
        {
          "internalType": "uint256[][]",
          "name": "",
          "type": "uint256[][]"
        }
      ],
      "stateMutability": "view",
      "type": "function"
    },
    {
      "inputs": [
        {
          "internalType": "address",
          "name": "from",
          "type": "address"
        },
        {
          "internalType": "uint256",
          "name": "id",
          "type": "uint256"
        },
        {
          "internalType": "uint256",
          "name": "amount",
          "type": "uint256"
        },
        {
          "internalType": "bool",
          "name": "deleteURI",
          "type": "bool"
        }
      ],
      "name": "burn",
      "outputs": [],
      "stateMutability": "nonpayable",
      "type": "function"
    },
    {
      "inputs": [
        {
          "internalType": "address",
          "name": "from",
          "type": "address"
        },
        {
          "internalType": "uint256[]",
          "name": "ids",
          "type": "uint256[]"
        },
        {
          "internalType": "uint256[]",
          "name": "amounts",
          "type": "uint256[]"
        },
        {
          "internalType": "bool",
          "name": "deleteURI",
          "type": "bool"
        }
      ],
      "name": "burnBatch",
      "outputs": [],
      "stateMutability": "nonpayable",
      "type": "function"
    },
    {
      "inputs": [
        {
          "internalType": "address[]",
          "name": "to",
          "type": "address[]"
        },
        {
          "internalType": "uint256[][]",
          "name": "ids",
          "type": "uint256[][]"
        },
        {
          "internalType": "uint256[][]",
          "name": "amounts",
          "type": "uint256[][]"
        },
        {
          "internalType": "string[][]",
          "name": "uris",
          "type": "string[][]"
        },
        {
          "internalType": "bytes[]",
          "name": "data",
          "type": "bytes[]"
        }
      ],
      "name": "mintBundle",
      "outputs": [],
      "stateMutability": "nonpayable",
      "type": "function"
    },
    {
      "inputs": [
        {
          "internalType": "address",
          "name": "to",
          "type": "address"
        },
        {
          "internalType": "uint256",
          "name": "id",
          "type": "uint256"
        },
        {
          "internalType": "uint256",
          "name": "amount",
          "type": "uint256"
        },
        {
          "internalType": "string",
          "name": "uri",
          "type": "string"
        },
        {
          "internalType": "bytes",
          "name": "data",
          "type": "bytes"
        }
      ],
      "name": "mintToContract",
      "outputs": [],
      "stateMutability": "nonpayable",
      "type": "function"
    },
    {
      "inputs": [
        {
          "internalType": "address",
          "name": "to",
          "type": "address"
        },
        {
          "internalType": "uint256",
          "name": "amount",
          "type": "uint256"
        },
        {
          "internalType": "string",
          "name": "uri",
          "type": "string"
        },
        {
          "internalType": "bytes",
          "name": "data",
          "type": "bytes"
        }
      ],
      "name": "mintToContract",
      "outputs": [],
      "stateMutability": "nonpayable",
      "type": "function"
    },
    {
      "inputs": [
        {
          "internalType": "address",
          "name": "to",
          "type": "address"
        },
        {
          "internalType": "uint256",
          "name": "amount",
          "type": "uint256"
        },
        {
          "internalType": "uint8",
          "name": "v",
          "type": "uint8"
        },
        {
          "internalType": "bytes32",
          "name": "r",
          "type": "bytes32"
        },
        {
          "internalType": "bytes32",
          "name": "s",
          "type": "bytes32"
        },
        {
          "internalType": "string",
          "name": "uri",
          "type": "string"
        },
        {
          "internalType": "bytes",
          "name": "data",
          "type": "bytes"
        }
      ],
      "name": "mintToEOA",
      "outputs": [],
      "stateMutability": "nonpayable",
      "type": "function"
    },
    {
      "inputs": [],
      "name": "name",
      "outputs": [
        {
          "internalType": "string",
          "name": "",
          "type": "string"
        }
      ],
      "stateMutability": "view",
      "type": "function"
    },
    {
      "inputs": [
        {
          "internalType": "address",
          "name": "",
          "type": "address"
        }
      ],
      "name": "owners",
      "outputs": [
        {
          "internalType": "bool",
          "name": "",
          "type": "bool"
        }
      ],
      "stateMutability": "view",
      "type": "function"
    },
    {
      "inputs": [
        {
          "internalType": "address",
          "name": "_owner",
          "type": "address"
        }
      ],
      "name": "removeOwner",
      "outputs": [],
      "stateMutability": "nonpayable",
      "type": "function"
    },
    {
      "inputs": [
        {
          "internalType": "string",
          "name": "newBaseURI",
          "type": "string"
        }
      ],
      "name": "setBaseURI",
      "outputs": [],
      "stateMutability": "nonpayable",
      "type": "function"
    },
    {
      "inputs": [
        {
          "internalType": "bytes",
          "name": "sig",
          "type": "bytes"
        }
      ],
      "name": "splitSignature",
      "outputs": [
        {
          "internalType": "bytes32",
          "name": "r",
          "type": "bytes32"
        },
        {
          "internalType": "bytes32",
          "name": "s",
          "type": "bytes32"
        },
        {
          "internalType": "uint8",
          "name": "v",
          "type": "uint8"
        }
      ],
      "stateMutability": "pure",
      "type": "function"
    },
    {
      "inputs": [],
      "name": "symbol",
      "outputs": [
        {
          "internalType": "string",
          "name": "",
          "type": "string"
        }
      ],
      "stateMutability": "view",
      "type": "function"
    },
    {
      "inputs": [
        {
          "internalType": "uint256",
          "name": "id",
          "type": "uint256"
        }
      ],
      "name": "tokenURI",
      "outputs": [
        {
          "internalType": "string",
          "name": "",
          "type": "string"
        }
      ],
      "stateMutability": "view",
      "type": "function"
    }
  ],
  "bytecode": "0x60806040523480156200001157600080fd5b506040516200518538038062005185833981810160405281019062000037919062000448565b80600060405180608001604052806040518060400160405280601581526020017f45524331323338204d696e7420417070726f76616c000000000000000000000081525081526020016040518060400160405280600181526020017f310000000000000000000000000000000000000000000000000000000000000081525081526020014681526020013073ffffffffffffffffffffffffffffffffffffffff1681525090507f8b73c3c69bb8fe3d512ecc4cf759cc79239f7b179b0ffacaa9a75d522b39400f8160000151805190602001208260200151805190602001208360400151846060015160405160200162000136959493929190620005bb565b604051602081830303815290604052805190602001206000819055507fe5a822f101a714d5cd94a04cf067a84a2ddb69b5326b93008a040df8a74a387281600001518260200151836040015184606001516000546040516200019d95949392919062000618565b60405180910390a150620001b7816200029660201b60201c565b506001600460008573ffffffffffffffffffffffffffffffffffffffff1673ffffffffffffffffffffffffffffffffffffffff16815260200190815260200160002060006101000a81548160ff021916908315150217905550620002318260405180602001604052806000815250620002b260201b60201c565b1562000274576040517f08c379a00000000000000000000000000000000000000000000000000000000081526004016200026b9062000683565b60405180910390fd5b81600590805190602001906200028c9291906200030f565b50505050620008c7565b8060029080519060200190620002ae9291906200030f565b5050565b600081604051602001620002c79190620005a2565b6040516020818303038152906040528051906020012083604051602001620002f09190620005a2565b6040516020818303038152906040528051906020012014905092915050565b8280546200031d90620007a9565b90600052602060002090601f0160209004810192826200034157600085556200038d565b82601f106200035c57805160ff19168380011785556200038d565b828001600101855582156200038d579182015b828111156200038c5782518255916020019190600101906200036f565b5b5090506200039c9190620003a0565b5090565b5b80821115620003bb576000816000905550600101620003a1565b5090565b6000620003d6620003d084620006ce565b620006a5565b905082815260208101848484011115620003ef57600080fd5b620003fc84828562000773565b509392505050565b6000815190506200041581620008ad565b92915050565b600082601f8301126200042d57600080fd5b81516200043f848260208601620003bf565b91505092915050565b6000806000606084860312156200045e57600080fd5b60006200046e8682870162000404565b935050602084015167ffffffffffffffff8111156200048c57600080fd5b6200049a868287016200041b565b925050604084015167ffffffffffffffff811115620004b857600080fd5b620004c6868287016200041b565b9150509250925092565b620004db816200072b565b82525050565b620004ec816200073f565b82525050565b6000620004ff8262000704565b6200050b81856200070f565b93506200051d81856020860162000773565b620005288162000873565b840191505092915050565b6000620005408262000704565b6200054c818562000720565b93506200055e81856020860162000773565b80840191505092915050565b600062000579600e836200070f565b9150620005868262000884565b602082019050919050565b6200059c8162000769565b82525050565b6000620005b0828462000533565b915081905092915050565b600060a082019050620005d26000830188620004e1565b620005e16020830187620004e1565b620005f06040830186620004e1565b620005ff606083018562000591565b6200060e6080830184620004d0565b9695505050505050565b600060a0820190508181036000830152620006348188620004f2565b905081810360208301526200064a8187620004f2565b90506200065b604083018662000591565b6200066a6060830185620004d0565b620006796080830184620004e1565b9695505050505050565b600060208201905081810360008301526200069e816200056a565b9050919050565b6000620006b1620006c4565b9050620006bf8282620007df565b919050565b6000604051905090565b600067ffffffffffffffff821115620006ec57620006eb62000844565b5b620006f78262000873565b9050602081019050919050565b600081519050919050565b600082825260208201905092915050565b600081905092915050565b6000620007388262000749565b9050919050565b6000819050919050565b600073ffffffffffffffffffffffffffffffffffffffff82169050919050565b6000819050919050565b60005b838110156200079357808201518184015260208101905062000776565b83811115620007a3576000848401525b50505050565b60006002820490506001821680620007c257607f821691505b60208210811415620007d957620007d862000815565b5b50919050565b620007ea8262000873565b810181811067ffffffffffffffff821117156200080c576200080b62000844565b5b80604052505050565b7f4e487b7100000000000000000000000000000000000000000000000000000000600052602260045260246000fd5b7f4e487b7100000000000000000000000000000000000000000000000000000000600052604160045260246000fd5b6000601f19601f8301169050919050565b7f496e76616c69642073796d626f6c000000000000000000000000000000000000600082015250565b620008b8816200072b565b8114620008c457600080fd5b50565b6148ae80620008d76000396000f3fe608060405234801561001057600080fd5b506004361061012c5760003560e01c8063787d2f30116100ad5780639c547035116100715780639c5470351461032b578063a7bb580314610347578063afd6908614610379578063c87b56dd146103a9578063dbee1524146103d95761012c565b8063787d2f30146102755780637c68ec4c146102a5578063815a7c70146102d55780638af702a1146102f157806395d89b411461030d5761012c565b80633ebce34a116100f45780633ebce34a146101d557806344893bf3146101f157806355f804b31461020d5780637065cb481461022957806370a08231146102455761012c565b8063022914a71461013157806306fdde0314610161578063173825d91461017f57806331126dd11461019b5780633644e515146101b7575b600080fd5b61014b60048036038101906101469190612f9e565b610409565b6040516101589190613c33565b60405180910390f35b610169610429565b6040516101769190613d2a565b60405180910390f35b61019960048036038101906101949190612f9e565b610466565b005b6101b560048036038101906101b0919061317d565b6105bd565b005b6101bf610671565b6040516101cc9190613c4e565b60405180910390f35b6101ef60048036038101906101ea91906131e0565b610677565b005b61020b6004803603810190610206919061301b565b610720565b005b6102276004803603810190610222919061351a565b6107d4565b005b610243600480360381019061023e9190612f9e565b61086c565b005b61025f600480360381019061025a9190612f9e565b6109c3565b60405161026c9190613ecc565b60405180910390f35b61028f600480360381019061028a91906130ae565b610a8d565b60405161029c9190613ecc565b60405180910390f35b6102bf60048036038101906102ba919061355b565b610b57565b6040516102cc9190613c33565b60405180910390f35b6102ef60048036038101906102ea9190613287565b610bb0565b005b61030b600480360381019061030691906133c1565b610c60565b005b610315611079565b6040516103229190613d2a565b60405180910390f35b610345600480360381019061034091906130ea565b61110b565b005b610361600480360381019061035c91906134d9565b6111b5565b60405161037093929190613cf3565b60405180910390f35b610393600480360381019061038e9190612fc7565b61121d565b6040516103a09190613bda565b60405180910390f35b6103c360048036038101906103be91906135c7565b611350565b6040516103d09190613d2a565b60405180910390f35b6103f360048036038101906103ee9190613355565b611420565b6040516104009190613bb8565b60405180910390f35b60046020528060005260406000206000915054906101000a900460ff1681565b60606040518060400160405280601381526020017f4f4e452052657020426164676520546f6b656e00000000000000000000000000815250905090565b600460003373ffffffffffffffffffffffffffffffffffffffff1673ffffffffffffffffffffffffffffffffffffffff16815260200190815260200160002060009054906101000a900460ff166104f2576040517f08c379a00000000000000000000000000000000000000000000000000000000081526004016104e990613d6c565b60405180910390fd5b600073ffffffffffffffffffffffffffffffffffffffff168173ffffffffffffffffffffffffffffffffffffffff161415610562576040517f08c379a000000000000000000000000000000000000000000000000000000000815260040161055990613e4c565b60405180910390fd5b6000600460008373ffffffffffffffffffffffffffffffffffffffff1673ffffffffffffffffffffffffffffffffffffffff16815260200190815260200160002060006101000a81548160ff02191690831515021790555050565b600460003373ffffffffffffffffffffffffffffffffffffffff1673ffffffffffffffffffffffffffffffffffffffff16815260200190815260200160002060009054906101000a900460ff16610649576040517f08c379a000000000000000000000000000000000000000000000000000000000815260040161064090613d6c565b60405180910390fd5b801561065f5761065a848484611597565b61066b565b61066a8484846115b0565b5b50505050565b60005481565b600460003373ffffffffffffffffffffffffffffffffffffffff1673ffffffffffffffffffffffffffffffffffffffff16815260200190815260200160002060009054906101000a900460ff16610703576040517f08c379a00000000000000000000000000000000000000000000000000000000081526004016106fa90613d6c565b60405180910390fd5b61070f8585858461178d565b610719848361180a565b5050505050565b600460003373ffffffffffffffffffffffffffffffffffffffff1673ffffffffffffffffffffffffffffffffffffffff16815260200190815260200160002060009054906101000a900460ff166107ac576040517f08c379a00000000000000000000000000000000000000000000000000000000081526004016107a390613d6c565b60405180910390fd5b80156107c2576107bd84848461186e565b6107ce565b6107cd848484611b45565b5b50505050565b600460003373ffffffffffffffffffffffffffffffffffffffff1673ffffffffffffffffffffffffffffffffffffffff16815260200190815260200160002060009054906101000a900460ff16610860576040517f08c379a000000000000000000000000000000000000000000000000000000000815260040161085790613d6c565b60405180910390fd5b61086981611e13565b50565b600460003373ffffffffffffffffffffffffffffffffffffffff1673ffffffffffffffffffffffffffffffffffffffff16815260200190815260200160002060009054906101000a900460ff166108f8576040517f08c379a00000000000000000000000000000000000000000000000000000000081526004016108ef90613d6c565b60405180910390fd5b600073ffffffffffffffffffffffffffffffffffffffff168173ffffffffffffffffffffffffffffffffffffffff161415610968576040517f08c379a000000000000000000000000000000000000000000000000000000000815260040161095f90613d4c565b60405180910390fd5b6001600460008373ffffffffffffffffffffffffffffffffffffffff1673ffffffffffffffffffffffffffffffffffffffff16815260200190815260200160002060006101000a81548160ff02191690831515021790555050565b60008073ffffffffffffffffffffffffffffffffffffffff168273ffffffffffffffffffffffffffffffffffffffff161415610a34576040517f08c379a0000000000000000000000000000000000000000000000000000000008152600401610a2b90613e0c565b60405180910390fd5b600160006001815260200190815260200160002060008373ffffffffffffffffffffffffffffffffffffffff1673ffffffffffffffffffffffffffffffffffffffff168152602001908152602001600020549050919050565b60008073ffffffffffffffffffffffffffffffffffffffff168373ffffffffffffffffffffffffffffffffffffffff161415610afe576040517f08c379a0000000000000000000000000000000000000000000000000000000008152600401610af590613e0c565b60405180910390fd5b6001600083815260200190815260200160002060008473ffffffffffffffffffffffffffffffffffffffff1673ffffffffffffffffffffffffffffffffffffffff16815260200190815260200160002054905092915050565b600081604051602001610b6a9190613ac4565b6040516020818303038152906040528051906020012083604051602001610b919190613ac4565b6040516020818303038152906040528051906020012014905092915050565b600460003373ffffffffffffffffffffffffffffffffffffffff1673ffffffffffffffffffffffffffffffffffffffff16815260200190815260200160002060009054906101000a900460ff16610c3c576040517f08c379a0000000000000000000000000000000000000000000000000000000008152600401610c3390613d6c565b60405180910390fd5b610c4c8760018888888887611e2d565b610c5760018361180a565b50505050505050565b600460003373ffffffffffffffffffffffffffffffffffffffff1673ffffffffffffffffffffffffffffffffffffffff16815260200190815260200160002060009054906101000a900460ff16610cec576040517f08c379a0000000000000000000000000000000000000000000000000000000008152600401610ce390613d6c565b60405180910390fd5b60005b855181101561107157610d82858281518110610d34577f4e487b7100000000000000000000000000000000000000000000000000000000600052603260045260246000fd5b6020026020010151848381518110610d75577f4e487b7100000000000000000000000000000000000000000000000000000000600052603260045260246000fd5b6020026020010151611e5f565b610de1868281518110610dbe577f4e487b7100000000000000000000000000000000000000000000000000000000600052603260045260246000fd5b602002602001015173ffffffffffffffffffffffffffffffffffffffff16611f51565b15610ef757610ef2868281518110610e22577f4e487b7100000000000000000000000000000000000000000000000000000000600052603260045260246000fd5b6020026020010151868381518110610e63577f4e487b7100000000000000000000000000000000000000000000000000000000600052603260045260246000fd5b6020026020010151868481518110610ea4577f4e487b7100000000000000000000000000000000000000000000000000000000600052603260045260246000fd5b6020026020010151858581518110610ee5577f4e487b7100000000000000000000000000000000000000000000000000000000600052603260045260246000fd5b6020026020010151611f74565b61105e565b6000806000610f45858581518110610f38577f4e487b7100000000000000000000000000000000000000000000000000000000600052603260045260246000fd5b60200260200101516111b5565b92509250925061105a898581518110610f87577f4e487b7100000000000000000000000000000000000000000000000000000000600052603260045260246000fd5b6020026020010151898681518110610fc8577f4e487b7100000000000000000000000000000000000000000000000000000000600052603260045260246000fd5b6020026020010151898781518110611009577f4e487b7100000000000000000000000000000000000000000000000000000000600052603260045260246000fd5b60200260200101518487878b8b8151811061104d577f4e487b7100000000000000000000000000000000000000000000000000000000600052603260045260246000fd5b6020026020010151611ff1565b5050505b8080611069906142cd565b915050610cef565b505050505050565b6060600580546110889061426a565b80601f01602080910402602001604051908101604052809291908181526020018280546110b49061426a565b80156111015780601f106110d657610100808354040283529160200191611101565b820191906000526020600020905b8154815290600101906020018083116110e457829003601f168201915b5050505050905090565b600460003373ffffffffffffffffffffffffffffffffffffffff1673ffffffffffffffffffffffffffffffffffffffff16815260200190815260200160002060009054906101000a900460ff16611197576040517f08c379a000000000000000000000000000000000000000000000000000000000815260040161118e90613d6c565b60405180910390fd5b6111a4846001858461178d565b6111af60018361180a565b50505050565b600080600060418451146111fe576040517f08c379a00000000000000000000000000000000000000000000000000000000081526004016111f590613eac565b60405180910390fd5b6020840151925060408401519150606084015160001a90509193909250565b60606000825167ffffffffffffffff811115611262577f4e487b7100000000000000000000000000000000000000000000000000000000600052604160045260246000fd5b6040519080825280602002602001820160405280156112905781602001602082028036833780820191505090505b50905060008351905060005b81811015611344576112ee868683815181106112e1577f4e487b7100000000000000000000000000000000000000000000000000000000600052603260045260246000fd5b6020026020010151610a8d565b838281518110611327577f4e487b7100000000000000000000000000000000000000000000000000000000600052603260045260246000fd5b6020026020010181815250508061133d906142cd565b905061129c565b50819250505092915050565b606060006003600084815260200190815260200160002080546113729061426a565b80601f016020809104026020016040519081016040528092919081815260200182805461139e9061426a565b80156113eb5780601f106113c0576101008083540402835291602001916113eb565b820191906000526020600020905b8154815290600101906020018083116113ce57829003601f168201915b505050505090506113fb83612023565b15611409578091505061141b565b600061141361204e565b905080925050505b919050565b60606000835167ffffffffffffffff811115611465577f4e487b7100000000000000000000000000000000000000000000000000000000600052604160045260246000fd5b60405190808252806020026020018201604052801561149857816020015b60608152602001906001900390816114835790505b50905060008451905060005b8181101561158b576115368682815181106114e8577f4e487b7100000000000000000000000000000000000000000000000000000000600052603260045260246000fd5b6020026020010151868381518110611529577f4e487b7100000000000000000000000000000000000000000000000000000000600052603260045260246000fd5b602002602001015161121d565b83828151811061156f577f4e487b7100000000000000000000000000000000000000000000000000000000600052603260045260246000fd5b602002602001018190525080611584906142cd565b90506114a4565b50819250505092915050565b6115a28383836115b0565b6115ab826120e0565b505050565b600073ffffffffffffffffffffffffffffffffffffffff168373ffffffffffffffffffffffffffffffffffffffff161415611620576040517f08c379a000000000000000000000000000000000000000000000000000000000815260040161161790613dcc565b60405180910390fd5b600033905061163181858585612111565b60006001600085815260200190815260200160002060008673ffffffffffffffffffffffffffffffffffffffff1673ffffffffffffffffffffffffffffffffffffffff168152602001908152602001600020549050828110156116c9576040517f08c379a00000000000000000000000000000000000000000000000000000000081526004016116c090613d8c565b60405180910390fd5b8281036001600086815260200190815260200160002060008773ffffffffffffffffffffffffffffffffffffffff1673ffffffffffffffffffffffffffffffffffffffff16815260200190815260200160002081905550838573ffffffffffffffffffffffffffffffffffffffff168373ffffffffffffffffffffffffffffffffffffffff167f995c922928fc04a31c6446db7f51f402ddb95ac41fa3dca51c98ff1fe73005318660405161177e9190613ecc565b60405180910390a45050505050565b6117ac8473ffffffffffffffffffffffffffffffffffffffff16611f51565b6117eb576040517f08c379a00000000000000000000000000000000000000000000000000000000081526004016117e290613e8c565b60405180910390fd5b6117f784848484612117565b61180433858585856121fd565b50505050565b80600360008481526020019081526020016000209080519060200190611831929190612981565b50817f369737eac2f50072db0001f8a5c3f225ab50d5ab38d8cbdbabf885abf2ab722a826040516118629190613d2a565b60405180910390a25050565b600073ffffffffffffffffffffffffffffffffffffffff168373ffffffffffffffffffffffffffffffffffffffff1614156118de576040517f08c379a00000000000000000000000000000000000000000000000000000000081526004016118d590613dcc565b60405180910390fd5b8051825114611922576040517f08c379a000000000000000000000000000000000000000000000000000000000815260040161191990613e6c565b60405180910390fd5b600033905060005b8351811015611ad757600084828151811061196e577f4e487b7100000000000000000000000000000000000000000000000000000000600052603260045260246000fd5b6020026020010151905060008483815181106119b3577f4e487b7100000000000000000000000000000000000000000000000000000000600052603260045260246000fd5b602002602001015190506119c984888484612111565b60006001600084815260200190815260200160002060008973ffffffffffffffffffffffffffffffffffffffff1673ffffffffffffffffffffffffffffffffffffffff16815260200190815260200160002054905081811015611a61576040517f08c379a0000000000000000000000000000000000000000000000000000000008152600401611a5890613d8c565b60405180910390fd5b8181036001600085815260200190815260200160002060008a73ffffffffffffffffffffffffffffffffffffffff1673ffffffffffffffffffffffffffffffffffffffff16815260200190815260200160002081905550611ac1836120e0565b5050508080611acf906142cd565b91505061192a565b508373ffffffffffffffffffffffffffffffffffffffff168173ffffffffffffffffffffffffffffffffffffffff167ff6d51a8d20e8b0143ca41399aa93b2a480cb0b95e39847e4ebd3144b2db8775d8585604051611b37929190613bfc565b60405180910390a350505050565b600073ffffffffffffffffffffffffffffffffffffffff168373ffffffffffffffffffffffffffffffffffffffff161415611bb5576040517f08c379a0000000000000000000000000000000000000000000000000000000008152600401611bac90613dcc565b60405180910390fd5b8051825114611bf9576040517f08c379a0000000000000000000000000000000000000000000000000000000008152600401611bf090613e6c565b60405180910390fd5b600033905060005b8351811015611da5576000848281518110611c45577f4e487b7100000000000000000000000000000000000000000000000000000000600052603260045260246000fd5b602002602001015190506000848381518110611c8a577f4e487b7100000000000000000000000000000000000000000000000000000000600052603260045260246000fd5b60200260200101519050611ca084888484612111565b60006001600084815260200190815260200160002060008973ffffffffffffffffffffffffffffffffffffffff1673ffffffffffffffffffffffffffffffffffffffff16815260200190815260200160002054905081811015611d38576040517f08c379a0000000000000000000000000000000000000000000000000000000008152600401611d2f90613d8c565b60405180910390fd5b8181036001600085815260200190815260200160002060008a73ffffffffffffffffffffffffffffffffffffffff1673ffffffffffffffffffffffffffffffffffffffff168152602001908152602001600020819055505050508080611d9d906142cd565b915050611c01565b508373ffffffffffffffffffffffffffffffffffffffff168173ffffffffffffffffffffffffffffffffffffffff167ff6d51a8d20e8b0143ca41399aa93b2a480cb0b95e39847e4ebd3144b2db8775d8585604051611e05929190613bfc565b60405180910390a350505050565b8060029080519060200190611e29929190612981565b5050565b6000611e3a3388886123bc565b9050611e493382878787612455565b611e5588888885612117565b5050505050505050565b8051825114611ea3576040517f08c379a0000000000000000000000000000000000000000000000000000000008152600401611e9a90613e2c565b60405180910390fd5b60005b8251811015611f4c57611f39838281518110611eeb577f4e487b7100000000000000000000000000000000000000000000000000000000600052603260045260246000fd5b6020026020010151838381518110611f2c577f4e487b7100000000000000000000000000000000000000000000000000000000600052603260045260246000fd5b602002602001015161180a565b8080611f44906142cd565b915050611ea6565b505050565b6000808273ffffffffffffffffffffffffffffffffffffffff163b119050919050565b611f938473ffffffffffffffffffffffffffffffffffffffff16611f51565b611fd2576040517f08c379a0000000000000000000000000000000000000000000000000000000008152600401611fc990613e8c565b60405180910390fd5b611fde8484848461248b565b611feb33858585856126d6565b50505050565b6000611ffe888888612895565b905061200d8882878787612455565b6120198888888561248b565b5050505050505050565b6000806003600084815260200190815260200160002080546120449061426a565b9050119050919050565b60606002805461205d9061426a565b80601f01602080910402602001604051908101604052809291908181526020018280546120899061426a565b80156120d65780601f106120ab576101008083540402835291602001916120d6565b820191906000526020600020905b8154815290600101906020018083116120b957829003601f168201915b5050505050905090565b6120e981612023565b1561210e5760036000828152602001908152602001600020600061210d9190612a07565b5b50565b50505050565b6000339050612129818686868661297a565b826001600086815260200190815260200160002060008773ffffffffffffffffffffffffffffffffffffffff1673ffffffffffffffffffffffffffffffffffffffff16815260200190815260200160002060008282546121899190614147565b92505081905550838573ffffffffffffffffffffffffffffffffffffffff168273ffffffffffffffffffffffffffffffffffffffff167f17facb1ae55b1a0fe54049767ddeb027123cb5d0379a5a1c6f5c954287d88fb3866040516121ee9190613ecc565b60405180910390a45050505050565b8373ffffffffffffffffffffffffffffffffffffffff166345ed75d5868585856040518563ffffffff1660e01b815260040161223c9493929190613b6c565b602060405180830381600087803b15801561225657600080fd5b505af192505050801561228757506040513d601f19601f8201168201806040525081019061228491906134b0565b60015b61232d576122936143ad565b806308c379a014156122f057506122a8614758565b806122b357506122f2565b806040517f08c379a00000000000000000000000000000000000000000000000000000000081526004016122e79190613d2a565b60405180910390fd5b505b6040517f08c379a000000000000000000000000000000000000000000000000000000000815260040161232490613dec565b60405180910390fd5b6345ed75d560e01b7bffffffffffffffffffffffffffffffffffffffffffffffffffffffff1916817bffffffffffffffffffffffffffffffffffffffffffffffffffffffff1916146123b4576040517f08c379a00000000000000000000000000000000000000000000000000000000081526004016123ab90613dac565b60405180910390fd5b505050505050565b60008060405180606001604052808673ffffffffffffffffffffffffffffffffffffffff1681526020018581526020018481525090507f97b28eca24e5080ea4d0af02f80111ea0596b75fdd4228411a50c43abfdd3eed8160000151826020015183604001516040516020016124359493929190613cae565b604051602081830303815290604052805190602001209150509392505050565b600080548560405160200161246b929190613adb565b604051602081830303815290604052805190602001209050505050505050565b81518351146124cf576040517f08c379a00000000000000000000000000000000000000000000000000000000081526004016124c690613e6c565b60405180910390fd5b600033905060005b84518110156126675761256d828787848151811061251e577f4e487b7100000000000000000000000000000000000000000000000000000000600052603260045260246000fd5b602002602001015187858151811061255f577f4e487b7100000000000000000000000000000000000000000000000000000000600052603260045260246000fd5b60200260200101518761297a565b8381815181106125a6577f4e487b7100000000000000000000000000000000000000000000000000000000600052603260045260246000fd5b6020026020010151600160008784815181106125eb577f4e487b7100000000000000000000000000000000000000000000000000000000600052603260045260246000fd5b6020026020010151815260200190815260200160002060008873ffffffffffffffffffffffffffffffffffffffff1673ffffffffffffffffffffffffffffffffffffffff168152602001908152602001600020600082825461264d9190614147565b92505081905550808061265f906142cd565b9150506124d7565b508473ffffffffffffffffffffffffffffffffffffffff168173ffffffffffffffffffffffffffffffffffffffff167f5c5ac6bfb3f54a39f008d2e9be10d575012f29230716d49e92da377d748b1a8786866040516126c7929190613bfc565b60405180910390a35050505050565b8373ffffffffffffffffffffffffffffffffffffffff1663c0bfec68868585856040518563ffffffff1660e01b81526004016127159493929190613b12565b602060405180830381600087803b15801561272f57600080fd5b505af192505050801561276057506040513d601f19601f8201168201806040525081019061275d91906134b0565b60015b6128065761276c6143ad565b806308c379a014156127c95750612781614758565b8061278c57506127cb565b806040517f08c379a00000000000000000000000000000000000000000000000000000000081526004016127c09190613d2a565b60405180910390fd5b505b6040517f08c379a00000000000000000000000000000000000000000000000000000000081526004016127fd90613dec565b60405180910390fd5b63c0bfec6860e01b7bffffffffffffffffffffffffffffffffffffffffffffffffffffffff1916817bffffffffffffffffffffffffffffffffffffffffffffffffffffffff19161461288d576040517f08c379a000000000000000000000000000000000000000000000000000000000815260040161288490613dac565b60405180910390fd5b505050505050565b60008060405180606001604052808673ffffffffffffffffffffffffffffffffffffffff1681526020018581526020018481525090507f3766a97e8e4290ccc4e1f96c50729afab6e1e51b341c132ce910495c64b43d0e816000015182602001516040516020016129069190613aad565b6040516020818303038152906040528051906020012083604001516040516020016129319190613aad565b6040516020818303038152906040528051906020012060405160200161295a9493929190613c69565b604051602081830303815290604052805190602001209150509392505050565b5050505050565b82805461298d9061426a565b90600052602060002090601f0160209004810192826129af57600085556129f6565b82601f106129c857805160ff19168380011785556129f6565b828001600101855582156129f6579182015b828111156129f55782518255916020019190600101906129da565b5b509050612a039190612a47565b5090565b508054612a139061426a565b6000825580601f10612a255750612a44565b601f016020900490600052602060002090810190612a439190612a47565b5b50565b5b80821115612a60576000816000905550600101612a48565b5090565b6000612a77612a7284613f0c565b613ee7565b90508083825260208201905082856020860282011115612a9657600080fd5b60005b85811015612ac65781612aac8882612dd0565b845260208401935060208301925050600181019050612a99565b5050509392505050565b6000612ae3612ade84613f38565b613ee7565b90508083825260208201905082856020860282011115612b0257600080fd5b60005b85811015612b4c57813567ffffffffffffffff811115612b2457600080fd5b808601612b318982612e8d565b85526020850194506020840193505050600181019050612b05565b5050509392505050565b6000612b69612b6484613f64565b613ee7565b90508083825260208201905082856020860282011115612b8857600080fd5b60005b85811015612bd257813567ffffffffffffffff811115612baa57600080fd5b808601612bb78982612eb7565b85526020850194506020840193505050600181019050612b8b565b5050509392505050565b6000612bef612bea84613f90565b613ee7565b90508083825260208201905082856020860282011115612c0e57600080fd5b60005b85811015612c5857813567ffffffffffffffff811115612c3057600080fd5b808601612c3d8982612f20565b85526020850194506020840193505050600181019050612c11565b5050509392505050565b6000612c75612c7084613fbc565b613ee7565b90508083825260208201905082856020860282011115612c9457600080fd5b60005b85811015612cde57813567ffffffffffffffff811115612cb657600080fd5b808601612cc38982612f4a565b85526020850194506020840193505050600181019050612c97565b5050509392505050565b6000612cfb612cf684613fe8565b613ee7565b90508083825260208201905082856020860282011115612d1a57600080fd5b60005b85811015612d4a5781612d308882612f74565b845260208401935060208301925050600181019050612d1d565b5050509392505050565b6000612d67612d6284614014565b613ee7565b905082815260208101848484011115612d7f57600080fd5b612d8a848285614228565b509392505050565b6000612da5612da084614045565b613ee7565b905082815260208101848484011115612dbd57600080fd5b612dc8848285614228565b509392505050565b600081359050612ddf816147ee565b92915050565b600082601f830112612df657600080fd5b8135612e06848260208601612a64565b91505092915050565b600082601f830112612e2057600080fd5b8135612e30848260208601612ad0565b91505092915050565b600082601f830112612e4a57600080fd5b8135612e5a848260208601612b56565b91505092915050565b600082601f830112612e7457600080fd5b8135612e84848260208601612bdc565b91505092915050565b600082601f830112612e9e57600080fd5b8135612eae848260208601612c62565b91505092915050565b600082601f830112612ec857600080fd5b8135612ed8848260208601612ce8565b91505092915050565b600081359050612ef081614805565b92915050565b600081359050612f058161481c565b92915050565b600081519050612f1a81614833565b92915050565b600082601f830112612f3157600080fd5b8135612f41848260208601612d54565b91505092915050565b600082601f830112612f5b57600080fd5b8135612f6b848260208601612d92565b91505092915050565b600081359050612f838161484a565b92915050565b600081359050612f9881614861565b92915050565b600060208284031215612fb057600080fd5b6000612fbe84828501612dd0565b91505092915050565b60008060408385031215612fda57600080fd5b6000612fe885828601612dd0565b925050602083013567ffffffffffffffff81111561300557600080fd5b61301185828601612eb7565b9150509250929050565b6000806000806080858703121561303157600080fd5b600061303f87828801612dd0565b945050602085013567ffffffffffffffff81111561305c57600080fd5b61306887828801612eb7565b935050604085013567ffffffffffffffff81111561308557600080fd5b61309187828801612eb7565b92505060606130a287828801612ee1565b91505092959194509250565b600080604083850312156130c157600080fd5b60006130cf85828601612dd0565b92505060206130e085828601612f74565b9150509250929050565b6000806000806080858703121561310057600080fd5b600061310e87828801612dd0565b945050602061311f87828801612f74565b935050604085013567ffffffffffffffff81111561313c57600080fd5b61314887828801612f4a565b925050606085013567ffffffffffffffff81111561316557600080fd5b61317187828801612f20565b91505092959194509250565b6000806000806080858703121561319357600080fd5b60006131a187828801612dd0565b94505060206131b287828801612f74565b93505060406131c387828801612f74565b92505060606131d487828801612ee1565b91505092959194509250565b600080600080600060a086880312156131f857600080fd5b600061320688828901612dd0565b955050602061321788828901612f74565b945050604061322888828901612f74565b935050606086013567ffffffffffffffff81111561324557600080fd5b61325188828901612f4a565b925050608086013567ffffffffffffffff81111561326e57600080fd5b61327a88828901612f20565b9150509295509295909350565b600080600080600080600060e0888a0312156132a257600080fd5b60006132b08a828b01612dd0565b97505060206132c18a828b01612f74565b96505060406132d28a828b01612f89565b95505060606132e38a828b01612ef6565b94505060806132f48a828b01612ef6565b93505060a088013567ffffffffffffffff81111561331157600080fd5b61331d8a828b01612f4a565b92505060c088013567ffffffffffffffff81111561333a57600080fd5b6133468a828b01612f20565b91505092959891949750929550565b6000806040838503121561336857600080fd5b600083013567ffffffffffffffff81111561338257600080fd5b61338e85828601612de5565b925050602083013567ffffffffffffffff8111156133ab57600080fd5b6133b785828601612e39565b9150509250929050565b600080600080600060a086880312156133d957600080fd5b600086013567ffffffffffffffff8111156133f357600080fd5b6133ff88828901612de5565b955050602086013567ffffffffffffffff81111561341c57600080fd5b61342888828901612e39565b945050604086013567ffffffffffffffff81111561344557600080fd5b61345188828901612e39565b935050606086013567ffffffffffffffff81111561346e57600080fd5b61347a88828901612e0f565b925050608086013567ffffffffffffffff81111561349757600080fd5b6134a388828901612e63565b9150509295509295909350565b6000602082840312156134c257600080fd5b60006134d084828501612f0b565b91505092915050565b6000602082840312156134eb57600080fd5b600082013567ffffffffffffffff81111561350557600080fd5b61351184828501612f20565b91505092915050565b60006020828403121561352c57600080fd5b600082013567ffffffffffffffff81111561354657600080fd5b61355284828501612f4a565b91505092915050565b6000806040838503121561356e57600080fd5b600083013567ffffffffffffffff81111561358857600080fd5b61359485828601612f4a565b925050602083013567ffffffffffffffff8111156135b157600080fd5b6135bd85828601612f4a565b9150509250929050565b6000602082840312156135d957600080fd5b60006135e784828501612f74565b91505092915050565b60006135fc83836136b8565b905092915050565b60006136108383613a71565b60208301905092915050565b60006136288383613a8f565b60208301905092915050565b61363d8161419d565b82525050565b600061364e82614096565b61365881856140dc565b93508360208202850161366a85614076565b8060005b858110156136a6578484038952815161368785826135f0565b9450613692836140c2565b925060208a0199505060018101905061366e565b50829750879550505050505092915050565b60006136c3826140a1565b6136cd81856140ed565b93506136d883614086565b8060005b838110156137095781516136f08882613604565b97506136fb836140cf565b9250506001810190506136dc565b5085935050505092915050565b6000613721826140a1565b61372b81856140fe565b935061373683614086565b8060005b8381101561376757815161374e8882613604565b9750613759836140cf565b92505060018101905061373a565b5085935050505092915050565b600061377f826140a1565b613789818561410f565b935061379483614086565b8060005b838110156137c55781516137ac888261361c565b97506137b7836140cf565b925050600181019050613798565b5085935050505092915050565b6137db816141af565b82525050565b6137ea816141bb565b82525050565b6138016137fc826141bb565b614316565b82525050565b6000613812826140ac565b61381c818561411a565b935061382c818560208601614237565b613835816143cf565b840191505092915050565b600061384b826140b7565b613855818561412b565b9350613865818560208601614237565b61386e816143cf565b840191505092915050565b6000613884826140b7565b61388e818561413c565b935061389e818560208601614237565b80840191505092915050565b60006138b7601d8361412b565b91506138c2826143ed565b602082019050919050565b60006138da60258361412b565b91506138e582614416565b604082019050919050565b60006138fd60028361413c565b915061390882614465565b600282019050919050565b600061392060248361412b565b915061392b8261448e565b604082019050919050565b600061394360288361412b565b915061394e826144dd565b604082019050919050565b600061396660238361412b565b91506139718261452c565b604082019050919050565b600061398960348361412b565b91506139948261457b565b604082019050919050565b60006139ac602b8361412b565b91506139b7826145ca565b604082019050919050565b60006139cf60328361412b565b91506139da82614619565b604082019050919050565b60006139f260198361412b565b91506139fd82614668565b602082019050919050565b6000613a1560288361412b565b9150613a2082614691565b604082019050919050565b6000613a3860248361412b565b9150613a43826146e0565b604082019050919050565b6000613a5b60188361412b565b9150613a668261472f565b602082019050919050565b613a7a81614211565b82525050565b613a8981614211565b82525050565b613a9881614211565b82525050565b613aa78161421b565b82525050565b6000613ab98284613774565b915081905092915050565b6000613ad08284613879565b915081905092915050565b6000613ae6826138f0565b9150613af282856137f0565b602082019150613b0282846137f0565b6020820191508190509392505050565b6000608082019050613b276000830187613634565b8181036020830152613b398186613716565b90508181036040830152613b4d8185613716565b90508181036060830152613b618184613807565b905095945050505050565b6000608082019050613b816000830187613634565b613b8e6020830186613a80565b613b9b6040830185613a80565b8181036060830152613bad8184613807565b905095945050505050565b60006020820190508181036000830152613bd28184613643565b905092915050565b60006020820190508181036000830152613bf48184613716565b905092915050565b60006040820190508181036000830152613c168185613716565b90508181036020830152613c2a8184613716565b90509392505050565b6000602082019050613c4860008301846137d2565b92915050565b6000602082019050613c6360008301846137e1565b92915050565b6000608082019050613c7e60008301876137e1565b613c8b6020830186613634565b613c9860408301856137e1565b613ca560608301846137e1565b95945050505050565b6000608082019050613cc360008301876137e1565b613cd06020830186613634565b613cdd6040830185613a80565b613cea6060830184613a80565b95945050505050565b6000606082019050613d0860008301866137e1565b613d1560208301856137e1565b613d226040830184613a9e565b949350505050565b60006020820190508181036000830152613d448184613840565b905092915050565b60006020820190508181036000830152613d65816138aa565b9050919050565b60006020820190508181036000830152613d85816138cd565b9050919050565b60006020820190508181036000830152613da581613913565b9050919050565b60006020820190508181036000830152613dc581613936565b9050919050565b60006020820190508181036000830152613de581613959565b9050919050565b60006020820190508181036000830152613e058161397c565b9050919050565b60006020820190508181036000830152613e258161399f565b9050919050565b60006020820190508181036000830152613e45816139c2565b9050919050565b60006020820190508181036000830152613e65816139e5565b9050919050565b60006020820190508181036000830152613e8581613a08565b9050919050565b60006020820190508181036000830152613ea581613a2b565b9050919050565b60006020820190508181036000830152613ec581613a4e565b9050919050565b6000602082019050613ee16000830184613a80565b92915050565b6000613ef1613f02565b9050613efd828261429c565b919050565b6000604051905090565b600067ffffffffffffffff821115613f2757613f2661437e565b5b602082029050602081019050919050565b600067ffffffffffffffff821115613f5357613f5261437e565b5b602082029050602081019050919050565b600067ffffffffffffffff821115613f7f57613f7e61437e565b5b602082029050602081019050919050565b600067ffffffffffffffff821115613fab57613faa61437e565b5b602082029050602081019050919050565b600067ffffffffffffffff821115613fd757613fd661437e565b5b602082029050602081019050919050565b600067ffffffffffffffff8211156140035761400261437e565b5b602082029050602081019050919050565b600067ffffffffffffffff82111561402f5761402e61437e565b5b614038826143cf565b9050602081019050919050565b600067ffffffffffffffff8211156140605761405f61437e565b5b614069826143cf565b9050602081019050919050565b6000819050602082019050919050565b6000819050602082019050919050565b600081519050919050565b600081519050919050565b600081519050919050565b600081519050919050565b6000602082019050919050565b6000602082019050919050565b600082825260208201905092915050565b600082825260208201905092915050565b600082825260208201905092915050565b600081905092915050565b600082825260208201905092915050565b600082825260208201905092915050565b600081905092915050565b600061415282614211565b915061415d83614211565b9250827fffffffffffffffffffffffffffffffffffffffffffffffffffffffffffffffff0382111561419257614191614320565b5b828201905092915050565b60006141a8826141f1565b9050919050565b60008115159050919050565b6000819050919050565b60007fffffffff0000000000000000000000000000000000000000000000000000000082169050919050565b600073ffffffffffffffffffffffffffffffffffffffff82169050919050565b6000819050919050565b600060ff82169050919050565b82818337600083830152505050565b60005b8381101561425557808201518184015260208101905061423a565b83811115614264576000848401525b50505050565b6000600282049050600182168061428257607f821691505b602082108114156142965761429561434f565b5b50919050565b6142a5826143cf565b810181811067ffffffffffffffff821117156142c4576142c361437e565b5b80604052505050565b60006142d882614211565b91507fffffffffffffffffffffffffffffffffffffffffffffffffffffffffffffffff82141561430b5761430a614320565b5b600182019050919050565b6000819050919050565b7f4e487b7100000000000000000000000000000000000000000000000000000000600052601160045260246000fd5b7f4e487b7100000000000000000000000000000000000000000000000000000000600052602260045260246000fd5b7f4e487b7100000000000000000000000000000000000000000000000000000000600052604160045260246000fd5b600060033d11156143cc5760046000803e6143c96000516143e0565b90505b90565b6000601f19601f8301169050919050565b60008160e01c9050919050565b7f496e76616c6964206164647265737320666f72206e6577206f776e6572000000600082015250565b7f556e617574686f72697a65643a2073656e646572206973206e6f74207468652060008201527f6f776e6572000000000000000000000000000000000000000000000000000000602082015250565b7f1901000000000000000000000000000000000000000000000000000000000000600082015250565b7f455243313233383a206275726e20616d6f756e7420657863656564732062616c60008201527f616e636500000000000000000000000000000000000000000000000000000000602082015250565b7f455243313233383a204552433132333852656365697665722072656a6563746560008201527f6420746f6b656e73000000000000000000000000000000000000000000000000602082015250565b7f455243313233383a206275726e2066726f6d20746865207a65726f206164647260008201527f6573730000000000000000000000000000000000000000000000000000000000602082015250565b7f455243313233383a207472616e7366657220746f206e6f6e204552433132333860008201527f526563656976657220696d706c656d656e746572000000000000000000000000602082015250565b7f455243313233383a2062616c616e636520717565727920666f7220746865207a60008201527f65726f2061646472657373000000000000000000000000000000000000000000602082015250565b7f4552433132333853746f726167653a2069647320616e6420746f6b656e20555260008201527f4973206c656e677468206d69736d617463680000000000000000000000000000602082015250565b7f496e76616c6964206164647265737320666f72206f776e657200000000000000600082015250565b7f455243313233383a2069647320616e6420616d6f756e7473206c656e6774682060008201527f6d69736d61746368000000000000000000000000000000000000000000000000602082015250565b7f455243313233383a20526563697069656e74206973206e6f74206120636f6e7460008201527f7261637400000000000000000000000000000000000000000000000000000000602082015250565b7f696e76616c6964207369676e6174757265206c656e6774680000000000000000600082015250565b600060443d1015614768576147eb565b614770613f02565b60043d036004823e80513d602482011167ffffffffffffffff821117156147985750506147eb565b808201805167ffffffffffffffff8111156147b657505050506147eb565b80602083010160043d0385018111156147d35750505050506147eb565b6147e28260200185018661429c565b82955050505050505b90565b6147f78161419d565b811461480257600080fd5b50565b61480e816141af565b811461481957600080fd5b50565b614825816141bb565b811461483057600080fd5b50565b61483c816141c5565b811461484757600080fd5b50565b61485381614211565b811461485e57600080fd5b50565b61486a8161421b565b811461487557600080fd5b5056fea26469706673582212201d32dce225a5bc8ab86bdd170cbe149e795c60b5beff40b56059045f715abf9464736f6c63430008040033",
  "linkReferences": {},
  "deployedLinkReferences": {}
}