{
  "_format": "hh-sol-artifact-1",
  "contractName": "ONERep",
  "sourceName": "contracts/ONERep.sol",
  "abi": [
    {
      "inputs": [
        {
          "internalType": "address",
          "name": "owner_",
          "type": "address"
        },
        {
          "internalType": "string",
          "name": "symbol_",
          "type": "string"
        },
        {
          "internalType": "string",
          "name": "baseURI_",
          "type": "string"
        }
      ],
      "stateMutability": "nonpayable",
      "type": "constructor"
    },
    {
      "anonymous": false,
      "inputs": [
        {
          "indexed": true,
          "internalType": "address",
          "name": "burner",
          "type": "address"
        },
        {
          "indexed": true,
          "internalType": "address",
          "name": "owner",
          "type": "address"
        },
        {
          "indexed": false,
          "internalType": "uint256[]",
          "name": "ids",
          "type": "uint256[]"
        },
        {
          "indexed": false,
          "internalType": "uint256[]",
          "name": "amounts",
          "type": "uint256[]"
        }
      ],
      "name": "BurnBatch",
      "type": "event"
    },
    {
      "anonymous": false,
      "inputs": [
        {
          "indexed": true,
          "internalType": "address",
          "name": "burner",
          "type": "address"
        },
        {
          "indexed": true,
          "internalType": "address",
          "name": "owner",
          "type": "address"
        },
        {
          "indexed": true,
          "internalType": "uint256",
          "name": "id",
          "type": "uint256"
        },
        {
          "indexed": false,
          "internalType": "uint256",
          "name": "amount",
          "type": "uint256"
        }
      ],
      "name": "BurnSingle",
      "type": "event"
    },
    {
      "anonymous": false,
      "inputs": [
        {
          "indexed": false,
          "internalType": "string",
          "name": "name",
          "type": "string"
        },
        {
          "indexed": false,
          "internalType": "string",
          "name": "version",
          "type": "string"
        },
        {
          "indexed": false,
          "internalType": "uint256",
          "name": "chainId",
          "type": "uint256"
        },
        {
          "indexed": false,
          "internalType": "address",
          "name": "verifyingContract",
          "type": "address"
        },
        {
          "indexed": false,
          "internalType": "bytes32",
          "name": "dsDigest",
          "type": "bytes32"
        }
      ],
      "name": "DomainSeparatorForMintApproval",
      "type": "event"
    },
    {
      "anonymous": false,
      "inputs": [
        {
          "indexed": true,
          "internalType": "address",
          "name": "minter",
          "type": "address"
        },
        {
          "indexed": true,
          "internalType": "address",
          "name": "to",
          "type": "address"
        },
        {
          "indexed": false,
          "internalType": "uint256[]",
          "name": "ids",
          "type": "uint256[]"
        },
        {
          "indexed": false,
          "internalType": "uint256[]",
          "name": "amounts",
          "type": "uint256[]"
        }
      ],
      "name": "MintBatch",
      "type": "event"
    },
    {
      "anonymous": false,
      "inputs": [
        {
          "indexed": true,
          "internalType": "address",
          "name": "minter",
          "type": "address"
        },
        {
          "indexed": true,
          "internalType": "address",
          "name": "to",
          "type": "address"
        },
        {
          "indexed": true,
          "internalType": "uint256",
          "name": "id",
          "type": "uint256"
        },
        {
          "indexed": false,
          "internalType": "uint256",
          "name": "amount",
          "type": "uint256"
        }
      ],
      "name": "MintSingle",
      "type": "event"
    },
    {
      "anonymous": false,
      "inputs": [
        {
          "indexed": true,
          "internalType": "uint256",
          "name": "id",
          "type": "uint256"
        },
        {
          "indexed": false,
          "internalType": "string",
          "name": "value",
          "type": "string"
        }
      ],
      "name": "URI",
      "type": "event"
    },
    {
      "inputs": [],
      "name": "DOMAIN_SEPARATOR",
      "outputs": [
        {
          "internalType": "bytes32",
          "name": "",
          "type": "bytes32"
        }
      ],
      "stateMutability": "view",
      "type": "function"
    },
    {
      "inputs": [
        {
          "internalType": "address",
          "name": "account",
          "type": "address"
        },
        {
          "internalType": "uint256",
          "name": "id",
          "type": "uint256"
        }
      ],
      "name": "_balanceOf",
      "outputs": [
        {
          "internalType": "uint256",
          "name": "",
          "type": "uint256"
        }
      ],
      "stateMutability": "view",
      "type": "function"
    },
    {
      "inputs": [
        {
          "internalType": "string",
          "name": "a",
          "type": "string"
        },
        {
          "internalType": "string",
          "name": "b",
          "type": "string"
        }
      ],
      "name": "_compareStrings",
      "outputs": [
        {
          "internalType": "bool",
          "name": "",
          "type": "bool"
        }
      ],
      "stateMutability": "view",
      "type": "function"
    },
    {
      "inputs": [
        {
          "internalType": "address",
          "name": "account",
          "type": "address"
        }
      ],
      "name": "balanceOf",
      "outputs": [
        {
          "internalType": "uint256",
          "name": "",
          "type": "uint256"
        }
      ],
      "stateMutability": "view",
      "type": "function"
    },
    {
      "inputs": [
        {
          "internalType": "address",
          "name": "account",
          "type": "address"
        },
        {
          "internalType": "uint256[]",
          "name": "ids",
          "type": "uint256[]"
        }
      ],
      "name": "balanceOfBatch",
      "outputs": [
        {
          "internalType": "uint256[]",
          "name": "",
          "type": "uint256[]"
        }
      ],
      "stateMutability": "view",
      "type": "function"
    },
    {
      "inputs": [
        {
          "internalType": "address[]",
          "name": "accounts",
          "type": "address[]"
        },
        {
          "internalType": "uint256[][]",
          "name": "ids",
          "type": "uint256[][]"
        }
      ],
      "name": "balanceOfBundle",
      "outputs": [
        {
          "internalType": "uint256[][]",
          "name": "",
          "type": "uint256[][]"
        }
      ],
      "stateMutability": "view",
      "type": "function"
    },
    {
      "inputs": [
        {
          "internalType": "address",
          "name": "from",
          "type": "address"
        },
        {
          "internalType": "uint256",
          "name": "id",
          "type": "uint256"
        },
        {
          "internalType": "uint256",
          "name": "amount",
          "type": "uint256"
        },
        {
          "internalType": "bool",
          "name": "deleteURI",
          "type": "bool"
        }
      ],
      "name": "burn",
      "outputs": [],
      "stateMutability": "nonpayable",
      "type": "function"
    },
    {
      "inputs": [
        {
          "internalType": "address",
          "name": "from",
          "type": "address"
        },
        {
          "internalType": "uint256[]",
          "name": "ids",
          "type": "uint256[]"
        },
        {
          "internalType": "uint256[]",
          "name": "amounts",
          "type": "uint256[]"
        },
        {
          "internalType": "bool",
          "name": "deleteURI",
          "type": "bool"
        }
      ],
      "name": "burnBatch",
      "outputs": [],
      "stateMutability": "nonpayable",
      "type": "function"
    },
    {
      "inputs": [
        {
          "internalType": "address[]",
          "name": "to",
          "type": "address[]"
        },
        {
          "internalType": "uint256[][]",
          "name": "ids",
          "type": "uint256[][]"
        },
        {
          "internalType": "uint256[][]",
          "name": "amounts",
          "type": "uint256[][]"
        },
        {
          "internalType": "string[][]",
          "name": "uris",
          "type": "string[][]"
        },
        {
          "internalType": "bytes[]",
          "name": "data",
          "type": "bytes[]"
        }
      ],
      "name": "mintBundle",
      "outputs": [],
      "stateMutability": "nonpayable",
      "type": "function"
    },
    {
      "inputs": [
        {
          "internalType": "address",
          "name": "to",
          "type": "address"
        },
        {
          "internalType": "uint256",
          "name": "id",
          "type": "uint256"
        },
        {
          "internalType": "uint256",
          "name": "amount",
          "type": "uint256"
        },
        {
          "internalType": "string",
          "name": "uri",
          "type": "string"
        },
        {
          "internalType": "bytes",
          "name": "data",
          "type": "bytes"
        }
      ],
      "name": "mintToContract",
      "outputs": [],
      "stateMutability": "nonpayable",
      "type": "function"
    },
    {
      "inputs": [
        {
          "internalType": "address",
          "name": "to",
          "type": "address"
        },
        {
          "internalType": "uint256",
          "name": "amount",
          "type": "uint256"
        },
        {
          "internalType": "string",
          "name": "uri",
          "type": "string"
        },
        {
          "internalType": "bytes",
          "name": "data",
          "type": "bytes"
        }
      ],
      "name": "mintToContract",
      "outputs": [],
      "stateMutability": "nonpayable",
      "type": "function"
    },
    {
      "inputs": [
        {
          "internalType": "address",
          "name": "to",
          "type": "address"
        },
        {
          "internalType": "uint256",
          "name": "amount",
          "type": "uint256"
        },
        {
          "internalType": "uint8",
          "name": "v",
          "type": "uint8"
        },
        {
          "internalType": "bytes32",
          "name": "r",
          "type": "bytes32"
        },
        {
          "internalType": "bytes32",
          "name": "s",
          "type": "bytes32"
        },
        {
          "internalType": "string",
          "name": "uri",
          "type": "string"
        },
        {
          "internalType": "bytes",
          "name": "data",
          "type": "bytes"
        }
      ],
      "name": "mintToEOA",
      "outputs": [],
      "stateMutability": "nonpayable",
      "type": "function"
    },
    {
      "inputs": [],
      "name": "name",
      "outputs": [
        {
          "internalType": "string",
          "name": "",
          "type": "string"
        }
      ],
      "stateMutability": "view",
      "type": "function"
    },
    {
      "inputs": [],
      "name": "owner",
      "outputs": [
        {
          "internalType": "address",
          "name": "",
          "type": "address"
        }
      ],
      "stateMutability": "view",
      "type": "function"
    },
    {
      "inputs": [
        {
          "internalType": "string",
          "name": "newBaseURI",
          "type": "string"
        }
      ],
      "name": "setBaseURI",
      "outputs": [],
      "stateMutability": "nonpayable",
      "type": "function"
    },
    {
      "inputs": [
        {
          "internalType": "address",
          "name": "newOwner",
          "type": "address"
        }
      ],
      "name": "setOwner",
      "outputs": [],
      "stateMutability": "nonpayable",
      "type": "function"
    },
    {
      "inputs": [
        {
          "internalType": "bytes",
          "name": "sig",
          "type": "bytes"
        }
      ],
      "name": "splitSignature",
      "outputs": [
        {
          "internalType": "bytes32",
          "name": "r",
          "type": "bytes32"
        },
        {
          "internalType": "bytes32",
          "name": "s",
          "type": "bytes32"
        },
        {
          "internalType": "uint8",
          "name": "v",
          "type": "uint8"
        }
      ],
      "stateMutability": "pure",
      "type": "function"
    },
    {
      "inputs": [],
      "name": "symbol",
      "outputs": [
        {
          "internalType": "string",
          "name": "",
          "type": "string"
        }
      ],
      "stateMutability": "view",
      "type": "function"
    },
    {
      "inputs": [
        {
          "internalType": "uint256",
          "name": "id",
          "type": "uint256"
        }
      ],
      "name": "tokenURI",
      "outputs": [
        {
          "internalType": "string",
          "name": "",
          "type": "string"
        }
      ],
      "stateMutability": "view",
      "type": "function"
    }
  ],
  "bytecode": "0x60806040523480156200001157600080fd5b5060405162004f9c38038062004f9c833981810160405281019062000037919062000431565b80600060405180608001604052806040518060400160405280601581526020017f45524331323338204d696e7420417070726f76616c000000000000000000000081525081526020016040518060400160405280600181526020017f310000000000000000000000000000000000000000000000000000000000000081525081526020014681526020013073ffffffffffffffffffffffffffffffffffffffff1681525090507f8b73c3c69bb8fe3d512ecc4cf759cc79239f7b179b0ffacaa9a75d522b39400f8160000151805190602001208260200151805190602001208360400151846060015160405160200162000136959493929190620005a4565b604051602081830303815290604052805190602001206000819055507fe5a822f101a714d5cd94a04cf067a84a2ddb69b5326b93008a040df8a74a387281600001518260200151836040015184606001516000546040516200019d95949392919062000601565b60405180910390a150620001b7816200027f60201b60201c565b5082600460006101000a81548173ffffffffffffffffffffffffffffffffffffffff021916908373ffffffffffffffffffffffffffffffffffffffff1602179055506200021a82604051806020016040528060008152506200029b60201b60201c565b156200025d576040517f08c379a000000000000000000000000000000000000000000000000000000000815260040162000254906200066c565b60405180910390fd5b816005908051906020019062000275929190620002f8565b50505050620008b0565b806002908051906020019062000297929190620002f8565b5050565b600081604051602001620002b091906200058b565b6040516020818303038152906040528051906020012083604051602001620002d991906200058b565b6040516020818303038152906040528051906020012014905092915050565b828054620003069062000792565b90600052602060002090601f0160209004810192826200032a576000855562000376565b82601f106200034557805160ff191683800117855562000376565b8280016001018555821562000376579182015b828111156200037557825182559160200191906001019062000358565b5b50905062000385919062000389565b5090565b5b80821115620003a45760008160009055506001016200038a565b5090565b6000620003bf620003b984620006b7565b6200068e565b905082815260208101848484011115620003d857600080fd5b620003e58482856200075c565b509392505050565b600081519050620003fe8162000896565b92915050565b600082601f8301126200041657600080fd5b815162000428848260208601620003a8565b91505092915050565b6000806000606084860312156200044757600080fd5b60006200045786828701620003ed565b935050602084015167ffffffffffffffff8111156200047557600080fd5b620004838682870162000404565b925050604084015167ffffffffffffffff811115620004a157600080fd5b620004af8682870162000404565b9150509250925092565b620004c48162000714565b82525050565b620004d58162000728565b82525050565b6000620004e882620006ed565b620004f48185620006f8565b9350620005068185602086016200075c565b62000511816200085c565b840191505092915050565b60006200052982620006ed565b62000535818562000709565b9350620005478185602086016200075c565b80840191505092915050565b600062000562600e83620006f8565b91506200056f826200086d565b602082019050919050565b620005858162000752565b82525050565b60006200059982846200051c565b915081905092915050565b600060a082019050620005bb6000830188620004ca565b620005ca6020830187620004ca565b620005d96040830186620004ca565b620005e860608301856200057a565b620005f76080830184620004b9565b9695505050505050565b600060a08201905081810360008301526200061d8188620004db565b90508181036020830152620006338187620004db565b90506200064460408301866200057a565b620006536060830185620004b9565b620006626080830184620004ca565b9695505050505050565b60006020820190508181036000830152620006878162000553565b9050919050565b60006200069a620006ad565b9050620006a88282620007c8565b919050565b6000604051905090565b600067ffffffffffffffff821115620006d557620006d46200082d565b5b620006e0826200085c565b9050602081019050919050565b600081519050919050565b600082825260208201905092915050565b600081905092915050565b6000620007218262000732565b9050919050565b6000819050919050565b600073ffffffffffffffffffffffffffffffffffffffff82169050919050565b6000819050919050565b60005b838110156200077c5780820151818401526020810190506200075f565b838111156200078c576000848401525b50505050565b60006002820490506001821680620007ab57607f821691505b60208210811415620007c257620007c1620007fe565b5b50919050565b620007d3826200085c565b810181811067ffffffffffffffff82111715620007f557620007f46200082d565b5b80604052505050565b7f4e487b7100000000000000000000000000000000000000000000000000000000600052602260045260246000fd5b7f4e487b7100000000000000000000000000000000000000000000000000000000600052604160045260246000fd5b6000601f19601f8301169050919050565b7f496e76616c69642073796d626f6c000000000000000000000000000000000000600082015250565b620008a18162000714565b8114620008ad57600080fd5b50565b6146dc80620008c06000396000f3fe608060405234801561001057600080fd5b50600436106101215760003560e01c80637c68ec4c116100ad5780639c547035116100715780639c547035146102f2578063a7bb58031461030e578063afd6908614610340578063c87b56dd14610370578063dbee1524146103a057610121565b80637c68ec4c1461024e578063815a7c701461027e5780638af702a11461029a5780638da5cb5b146102b657806395d89b41146102d457610121565b80633ebce34a116100f45780633ebce34a1461019a57806344893bf3146101b657806355f804b3146101d257806370a08231146101ee578063787d2f301461021e57610121565b806306fdde031461012657806313af40351461014457806331126dd1146101605780633644e5151461017c575b600080fd5b61012e6103d0565b60405161013b9190613ba1565b60405180910390f35b61015e60048036038101906101599190612e1d565b61040d565b005b61017a60048036038101906101759190612ffc565b610551565b005b610184610609565b6040516101919190613ac5565b60405180910390f35b6101b460048036038101906101af919061305f565b61060f565b005b6101d060048036038101906101cb9190612e9a565b6106bc565b005b6101ec60048036038101906101e79190613399565b610774565b005b61020860048036038101906102039190612e1d565b610810565b6040516102159190613d23565b60405180910390f35b61023860048036038101906102339190612f2d565b6108da565b6040516102459190613d23565b60405180910390f35b610268600480360381019061026391906133da565b6109a4565b6040516102759190613aaa565b60405180910390f35b61029860048036038101906102939190613106565b6109fd565b005b6102b460048036038101906102af9190613240565b610ab1565b005b6102be610ece565b6040516102cb919061396e565b60405180910390f35b6102dc610ef4565b6040516102e99190613ba1565b60405180910390f35b61030c60048036038101906103079190612f69565b610f86565b005b61032860048036038101906103239190613358565b611034565b60405161033793929190613b6a565b60405180910390f35b61035a60048036038101906103559190612e46565b61109c565b6040516103679190613a51565b60405180910390f35b61038a60048036038101906103859190613446565b6111cf565b6040516103979190613ba1565b60405180910390f35b6103ba60048036038101906103b591906131d4565b61129f565b6040516103c79190613a2f565b60405180910390f35b60606040518060400160405280601381526020017f4f4e452052657020426164676520546f6b656e00000000000000000000000000815250905090565b600460009054906101000a900473ffffffffffffffffffffffffffffffffffffffff1673ffffffffffffffffffffffffffffffffffffffff163373ffffffffffffffffffffffffffffffffffffffff161461049d576040517f08c379a000000000000000000000000000000000000000000000000000000000815260040161049490613be3565b60405180910390fd5b600073ffffffffffffffffffffffffffffffffffffffff168173ffffffffffffffffffffffffffffffffffffffff16141561050d576040517f08c379a000000000000000000000000000000000000000000000000000000000815260040161050490613bc3565b60405180910390fd5b80600460006101000a81548173ffffffffffffffffffffffffffffffffffffffff021916908373ffffffffffffffffffffffffffffffffffffffff16021790555050565b600460009054906101000a900473ffffffffffffffffffffffffffffffffffffffff1673ffffffffffffffffffffffffffffffffffffffff163373ffffffffffffffffffffffffffffffffffffffff16146105e1576040517f08c379a00000000000000000000000000000000000000000000000000000000081526004016105d890613be3565b60405180910390fd5b80156105f7576105f2848484611416565b610603565b61060284848461142f565b5b50505050565b60005481565b600460009054906101000a900473ffffffffffffffffffffffffffffffffffffffff1673ffffffffffffffffffffffffffffffffffffffff163373ffffffffffffffffffffffffffffffffffffffff161461069f576040517f08c379a000000000000000000000000000000000000000000000000000000000815260040161069690613be3565b60405180910390fd5b6106ab8585858461160c565b6106b58483611689565b5050505050565b600460009054906101000a900473ffffffffffffffffffffffffffffffffffffffff1673ffffffffffffffffffffffffffffffffffffffff163373ffffffffffffffffffffffffffffffffffffffff161461074c576040517f08c379a000000000000000000000000000000000000000000000000000000000815260040161074390613be3565b60405180910390fd5b80156107625761075d8484846116ed565b61076e565b61076d8484846119c4565b5b50505050565b600460009054906101000a900473ffffffffffffffffffffffffffffffffffffffff1673ffffffffffffffffffffffffffffffffffffffff163373ffffffffffffffffffffffffffffffffffffffff1614610804576040517f08c379a00000000000000000000000000000000000000000000000000000000081526004016107fb90613be3565b60405180910390fd5b61080d81611c92565b50565b60008073ffffffffffffffffffffffffffffffffffffffff168273ffffffffffffffffffffffffffffffffffffffff161415610881576040517f08c379a000000000000000000000000000000000000000000000000000000000815260040161087890613c83565b60405180910390fd5b600160006001815260200190815260200160002060008373ffffffffffffffffffffffffffffffffffffffff1673ffffffffffffffffffffffffffffffffffffffff168152602001908152602001600020549050919050565b60008073ffffffffffffffffffffffffffffffffffffffff168373ffffffffffffffffffffffffffffffffffffffff16141561094b576040517f08c379a000000000000000000000000000000000000000000000000000000000815260040161094290613c83565b60405180910390fd5b6001600083815260200190815260200160002060008473ffffffffffffffffffffffffffffffffffffffff1673ffffffffffffffffffffffffffffffffffffffff16815260200190815260200160002054905092915050565b6000816040516020016109b79190613920565b60405160208183030381529060405280519060200120836040516020016109de9190613920565b6040516020818303038152906040528051906020012014905092915050565b600460009054906101000a900473ffffffffffffffffffffffffffffffffffffffff1673ffffffffffffffffffffffffffffffffffffffff163373ffffffffffffffffffffffffffffffffffffffff1614610a8d576040517f08c379a0000000000000000000000000000000000000000000000000000000008152600401610a8490613be3565b60405180910390fd5b610a9d8760018888888887611cac565b610aa8600183611689565b50505050505050565b600460009054906101000a900473ffffffffffffffffffffffffffffffffffffffff1673ffffffffffffffffffffffffffffffffffffffff163373ffffffffffffffffffffffffffffffffffffffff1614610b41576040517f08c379a0000000000000000000000000000000000000000000000000000000008152600401610b3890613be3565b60405180910390fd5b60005b8551811015610ec657610bd7858281518110610b89577f4e487b7100000000000000000000000000000000000000000000000000000000600052603260045260246000fd5b6020026020010151848381518110610bca577f4e487b7100000000000000000000000000000000000000000000000000000000600052603260045260246000fd5b6020026020010151611cde565b610c36868281518110610c13577f4e487b7100000000000000000000000000000000000000000000000000000000600052603260045260246000fd5b602002602001015173ffffffffffffffffffffffffffffffffffffffff16611dd0565b15610d4c57610d47868281518110610c77577f4e487b7100000000000000000000000000000000000000000000000000000000600052603260045260246000fd5b6020026020010151868381518110610cb8577f4e487b7100000000000000000000000000000000000000000000000000000000600052603260045260246000fd5b6020026020010151868481518110610cf9577f4e487b7100000000000000000000000000000000000000000000000000000000600052603260045260246000fd5b6020026020010151858581518110610d3a577f4e487b7100000000000000000000000000000000000000000000000000000000600052603260045260246000fd5b6020026020010151611df3565b610eb3565b6000806000610d9a858581518110610d8d577f4e487b7100000000000000000000000000000000000000000000000000000000600052603260045260246000fd5b6020026020010151611034565b925092509250610eaf898581518110610ddc577f4e487b7100000000000000000000000000000000000000000000000000000000600052603260045260246000fd5b6020026020010151898681518110610e1d577f4e487b7100000000000000000000000000000000000000000000000000000000600052603260045260246000fd5b6020026020010151898781518110610e5e577f4e487b7100000000000000000000000000000000000000000000000000000000600052603260045260246000fd5b60200260200101518487878b8b81518110610ea2577f4e487b7100000000000000000000000000000000000000000000000000000000600052603260045260246000fd5b6020026020010151611e70565b5050505b8080610ebe90614124565b915050610b44565b505050505050565b600460009054906101000a900473ffffffffffffffffffffffffffffffffffffffff1681565b606060058054610f03906140c1565b80601f0160208091040260200160405190810160405280929190818152602001828054610f2f906140c1565b8015610f7c5780601f10610f5157610100808354040283529160200191610f7c565b820191906000526020600020905b815481529060010190602001808311610f5f57829003601f168201915b5050505050905090565b600460009054906101000a900473ffffffffffffffffffffffffffffffffffffffff1673ffffffffffffffffffffffffffffffffffffffff163373ffffffffffffffffffffffffffffffffffffffff1614611016576040517f08c379a000000000000000000000000000000000000000000000000000000000815260040161100d90613be3565b60405180910390fd5b611023846001858461160c565b61102e600183611689565b50505050565b6000806000604184511461107d576040517f08c379a000000000000000000000000000000000000000000000000000000000815260040161107490613d03565b60405180910390fd5b6020840151925060408401519150606084015160001a90509193909250565b60606000825167ffffffffffffffff8111156110e1577f4e487b7100000000000000000000000000000000000000000000000000000000600052604160045260246000fd5b60405190808252806020026020018201604052801561110f5781602001602082028036833780820191505090505b50905060008351905060005b818110156111c35761116d86868381518110611160577f4e487b7100000000000000000000000000000000000000000000000000000000600052603260045260246000fd5b60200260200101516108da565b8382815181106111a6577f4e487b7100000000000000000000000000000000000000000000000000000000600052603260045260246000fd5b602002602001018181525050806111bc90614124565b905061111b565b50819250505092915050565b606060006003600084815260200190815260200160002080546111f1906140c1565b80601f016020809104026020016040519081016040528092919081815260200182805461121d906140c1565b801561126a5780601f1061123f5761010080835404028352916020019161126a565b820191906000526020600020905b81548152906001019060200180831161124d57829003601f168201915b5050505050905061127a83611ea2565b15611288578091505061129a565b6000611292611ecd565b905080925050505b919050565b60606000835167ffffffffffffffff8111156112e4577f4e487b7100000000000000000000000000000000000000000000000000000000600052604160045260246000fd5b60405190808252806020026020018201604052801561131757816020015b60608152602001906001900390816113025790505b50905060008451905060005b8181101561140a576113b5868281518110611367577f4e487b7100000000000000000000000000000000000000000000000000000000600052603260045260246000fd5b60200260200101518683815181106113a8577f4e487b7100000000000000000000000000000000000000000000000000000000600052603260045260246000fd5b602002602001015161109c565b8382815181106113ee577f4e487b7100000000000000000000000000000000000000000000000000000000600052603260045260246000fd5b60200260200101819052508061140390614124565b9050611323565b50819250505092915050565b61142183838361142f565b61142a82611f5f565b505050565b600073ffffffffffffffffffffffffffffffffffffffff168373ffffffffffffffffffffffffffffffffffffffff16141561149f576040517f08c379a000000000000000000000000000000000000000000000000000000000815260040161149690613c43565b60405180910390fd5b60003390506114b081858585611f90565b60006001600085815260200190815260200160002060008673ffffffffffffffffffffffffffffffffffffffff1673ffffffffffffffffffffffffffffffffffffffff16815260200190815260200160002054905082811015611548576040517f08c379a000000000000000000000000000000000000000000000000000000000815260040161153f90613c03565b60405180910390fd5b8281036001600086815260200190815260200160002060008773ffffffffffffffffffffffffffffffffffffffff1673ffffffffffffffffffffffffffffffffffffffff16815260200190815260200160002081905550838573ffffffffffffffffffffffffffffffffffffffff168373ffffffffffffffffffffffffffffffffffffffff167f995c922928fc04a31c6446db7f51f402ddb95ac41fa3dca51c98ff1fe7300531866040516115fd9190613d23565b60405180910390a45050505050565b61162b8473ffffffffffffffffffffffffffffffffffffffff16611dd0565b61166a576040517f08c379a000000000000000000000000000000000000000000000000000000000815260040161166190613ce3565b60405180910390fd5b61167684848484611f96565b611683338585858561207c565b50505050565b806003600084815260200190815260200160002090805190602001906116b0929190612800565b50817f369737eac2f50072db0001f8a5c3f225ab50d5ab38d8cbdbabf885abf2ab722a826040516116e19190613ba1565b60405180910390a25050565b600073ffffffffffffffffffffffffffffffffffffffff168373ffffffffffffffffffffffffffffffffffffffff16141561175d576040517f08c379a000000000000000000000000000000000000000000000000000000000815260040161175490613c43565b60405180910390fd5b80518251146117a1576040517f08c379a000000000000000000000000000000000000000000000000000000000815260040161179890613cc3565b60405180910390fd5b600033905060005b83518110156119565760008482815181106117ed577f4e487b7100000000000000000000000000000000000000000000000000000000600052603260045260246000fd5b602002602001015190506000848381518110611832577f4e487b7100000000000000000000000000000000000000000000000000000000600052603260045260246000fd5b6020026020010151905061184884888484611f90565b60006001600084815260200190815260200160002060008973ffffffffffffffffffffffffffffffffffffffff1673ffffffffffffffffffffffffffffffffffffffff168152602001908152602001600020549050818110156118e0576040517f08c379a00000000000000000000000000000000000000000000000000000000081526004016118d790613c03565b60405180910390fd5b8181036001600085815260200190815260200160002060008a73ffffffffffffffffffffffffffffffffffffffff1673ffffffffffffffffffffffffffffffffffffffff1681526020019081526020016000208190555061194083611f5f565b505050808061194e90614124565b9150506117a9565b508373ffffffffffffffffffffffffffffffffffffffff168173ffffffffffffffffffffffffffffffffffffffff167ff6d51a8d20e8b0143ca41399aa93b2a480cb0b95e39847e4ebd3144b2db8775d85856040516119b6929190613a73565b60405180910390a350505050565b600073ffffffffffffffffffffffffffffffffffffffff168373ffffffffffffffffffffffffffffffffffffffff161415611a34576040517f08c379a0000000000000000000000000000000000000000000000000000000008152600401611a2b90613c43565b60405180910390fd5b8051825114611a78576040517f08c379a0000000000000000000000000000000000000000000000000000000008152600401611a6f90613cc3565b60405180910390fd5b600033905060005b8351811015611c24576000848281518110611ac4577f4e487b7100000000000000000000000000000000000000000000000000000000600052603260045260246000fd5b602002602001015190506000848381518110611b09577f4e487b7100000000000000000000000000000000000000000000000000000000600052603260045260246000fd5b60200260200101519050611b1f84888484611f90565b60006001600084815260200190815260200160002060008973ffffffffffffffffffffffffffffffffffffffff1673ffffffffffffffffffffffffffffffffffffffff16815260200190815260200160002054905081811015611bb7576040517f08c379a0000000000000000000000000000000000000000000000000000000008152600401611bae90613c03565b60405180910390fd5b8181036001600085815260200190815260200160002060008a73ffffffffffffffffffffffffffffffffffffffff1673ffffffffffffffffffffffffffffffffffffffff168152602001908152602001600020819055505050508080611c1c90614124565b915050611a80565b508373ffffffffffffffffffffffffffffffffffffffff168173ffffffffffffffffffffffffffffffffffffffff167ff6d51a8d20e8b0143ca41399aa93b2a480cb0b95e39847e4ebd3144b2db8775d8585604051611c84929190613a73565b60405180910390a350505050565b8060029080519060200190611ca8929190612800565b5050565b6000611cb933888861223b565b9050611cc833828787876122d4565b611cd488888885611f96565b5050505050505050565b8051825114611d22576040517f08c379a0000000000000000000000000000000000000000000000000000000008152600401611d1990613ca3565b60405180910390fd5b60005b8251811015611dcb57611db8838281518110611d6a577f4e487b7100000000000000000000000000000000000000000000000000000000600052603260045260246000fd5b6020026020010151838381518110611dab577f4e487b7100000000000000000000000000000000000000000000000000000000600052603260045260246000fd5b6020026020010151611689565b8080611dc390614124565b915050611d25565b505050565b6000808273ffffffffffffffffffffffffffffffffffffffff163b119050919050565b611e128473ffffffffffffffffffffffffffffffffffffffff16611dd0565b611e51576040517f08c379a0000000000000000000000000000000000000000000000000000000008152600401611e4890613ce3565b60405180910390fd5b611e5d8484848461230a565b611e6a3385858585612555565b50505050565b6000611e7d888888612714565b9050611e8c88828787876122d4565b611e988888888561230a565b5050505050505050565b600080600360008481526020019081526020016000208054611ec3906140c1565b9050119050919050565b606060028054611edc906140c1565b80601f0160208091040260200160405190810160405280929190818152602001828054611f08906140c1565b8015611f555780601f10611f2a57610100808354040283529160200191611f55565b820191906000526020600020905b815481529060010190602001808311611f3857829003601f168201915b5050505050905090565b611f6881611ea2565b15611f8d57600360008281526020019081526020016000206000611f8c9190612886565b5b50565b50505050565b6000339050611fa881868686866127f9565b826001600086815260200190815260200160002060008773ffffffffffffffffffffffffffffffffffffffff1673ffffffffffffffffffffffffffffffffffffffff16815260200190815260200160002060008282546120089190613f9e565b92505081905550838573ffffffffffffffffffffffffffffffffffffffff168273ffffffffffffffffffffffffffffffffffffffff167f17facb1ae55b1a0fe54049767ddeb027123cb5d0379a5a1c6f5c954287d88fb38660405161206d9190613d23565b60405180910390a45050505050565b8373ffffffffffffffffffffffffffffffffffffffff166345ed75d5868585856040518563ffffffff1660e01b81526004016120bb94939291906139e3565b602060405180830381600087803b1580156120d557600080fd5b505af192505050801561210657506040513d601f19601f82011682018060405250810190612103919061332f565b60015b6121ac57612112614204565b806308c379a0141561216f5750612127614586565b806121325750612171565b806040517f08c379a00000000000000000000000000000000000000000000000000000000081526004016121669190613ba1565b60405180910390fd5b505b6040517f08c379a00000000000000000000000000000000000000000000000000000000081526004016121a390613c63565b60405180910390fd5b6345ed75d560e01b7bffffffffffffffffffffffffffffffffffffffffffffffffffffffff1916817bffffffffffffffffffffffffffffffffffffffffffffffffffffffff191614612233576040517f08c379a000000000000000000000000000000000000000000000000000000000815260040161222a90613c23565b60405180910390fd5b505050505050565b60008060405180606001604052808673ffffffffffffffffffffffffffffffffffffffff1681526020018581526020018481525090507f97b28eca24e5080ea4d0af02f80111ea0596b75fdd4228411a50c43abfdd3eed8160000151826020015183604001516040516020016122b49493929190613b25565b604051602081830303815290604052805190602001209150509392505050565b60008054856040516020016122ea929190613937565b604051602081830303815290604052805190602001209050505050505050565b815183511461234e576040517f08c379a000000000000000000000000000000000000000000000000000000000815260040161234590613cc3565b60405180910390fd5b600033905060005b84518110156124e6576123ec828787848151811061239d577f4e487b7100000000000000000000000000000000000000000000000000000000600052603260045260246000fd5b60200260200101518785815181106123de577f4e487b7100000000000000000000000000000000000000000000000000000000600052603260045260246000fd5b6020026020010151876127f9565b838181518110612425577f4e487b7100000000000000000000000000000000000000000000000000000000600052603260045260246000fd5b60200260200101516001600087848151811061246a577f4e487b7100000000000000000000000000000000000000000000000000000000600052603260045260246000fd5b6020026020010151815260200190815260200160002060008873ffffffffffffffffffffffffffffffffffffffff1673ffffffffffffffffffffffffffffffffffffffff16815260200190815260200160002060008282546124cc9190613f9e565b9250508190555080806124de90614124565b915050612356565b508473ffffffffffffffffffffffffffffffffffffffff168173ffffffffffffffffffffffffffffffffffffffff167f5c5ac6bfb3f54a39f008d2e9be10d575012f29230716d49e92da377d748b1a878686604051612546929190613a73565b60405180910390a35050505050565b8373ffffffffffffffffffffffffffffffffffffffff1663c0bfec68868585856040518563ffffffff1660e01b81526004016125949493929190613989565b602060405180830381600087803b1580156125ae57600080fd5b505af19250505080156125df57506040513d601f19601f820116820180604052508101906125dc919061332f565b60015b612685576125eb614204565b806308c379a014156126485750612600614586565b8061260b575061264a565b806040517f08c379a000000000000000000000000000000000000000000000000000000000815260040161263f9190613ba1565b60405180910390fd5b505b6040517f08c379a000000000000000000000000000000000000000000000000000000000815260040161267c90613c63565b60405180910390fd5b63c0bfec6860e01b7bffffffffffffffffffffffffffffffffffffffffffffffffffffffff1916817bffffffffffffffffffffffffffffffffffffffffffffffffffffffff19161461270c576040517f08c379a000000000000000000000000000000000000000000000000000000000815260040161270390613c23565b60405180910390fd5b505050505050565b60008060405180606001604052808673ffffffffffffffffffffffffffffffffffffffff1681526020018581526020018481525090507f3766a97e8e4290ccc4e1f96c50729afab6e1e51b341c132ce910495c64b43d0e816000015182602001516040516020016127859190613909565b6040516020818303038152906040528051906020012083604001516040516020016127b09190613909565b604051602081830303815290604052805190602001206040516020016127d99493929190613ae0565b604051602081830303815290604052805190602001209150509392505050565b5050505050565b82805461280c906140c1565b90600052602060002090601f01602090048101928261282e5760008555612875565b82601f1061284757805160ff1916838001178555612875565b82800160010185558215612875579182015b82811115612874578251825591602001919060010190612859565b5b50905061288291906128c6565b5090565b508054612892906140c1565b6000825580601f106128a457506128c3565b601f0160209004906000526020600020908101906128c291906128c6565b5b50565b5b808211156128df5760008160009055506001016128c7565b5090565b60006128f66128f184613d63565b613d3e565b9050808382526020820190508285602086028201111561291557600080fd5b60005b85811015612945578161292b8882612c4f565b845260208401935060208301925050600181019050612918565b5050509392505050565b600061296261295d84613d8f565b613d3e565b9050808382526020820190508285602086028201111561298157600080fd5b60005b858110156129cb57813567ffffffffffffffff8111156129a357600080fd5b8086016129b08982612d0c565b85526020850194506020840193505050600181019050612984565b5050509392505050565b60006129e86129e384613dbb565b613d3e565b90508083825260208201905082856020860282011115612a0757600080fd5b60005b85811015612a5157813567ffffffffffffffff811115612a2957600080fd5b808601612a368982612d36565b85526020850194506020840193505050600181019050612a0a565b5050509392505050565b6000612a6e612a6984613de7565b613d3e565b90508083825260208201905082856020860282011115612a8d57600080fd5b60005b85811015612ad757813567ffffffffffffffff811115612aaf57600080fd5b808601612abc8982612d9f565b85526020850194506020840193505050600181019050612a90565b5050509392505050565b6000612af4612aef84613e13565b613d3e565b90508083825260208201905082856020860282011115612b1357600080fd5b60005b85811015612b5d57813567ffffffffffffffff811115612b3557600080fd5b808601612b428982612dc9565b85526020850194506020840193505050600181019050612b16565b5050509392505050565b6000612b7a612b7584613e3f565b613d3e565b90508083825260208201905082856020860282011115612b9957600080fd5b60005b85811015612bc95781612baf8882612df3565b845260208401935060208301925050600181019050612b9c565b5050509392505050565b6000612be6612be184613e6b565b613d3e565b905082815260208101848484011115612bfe57600080fd5b612c0984828561407f565b509392505050565b6000612c24612c1f84613e9c565b613d3e565b905082815260208101848484011115612c3c57600080fd5b612c4784828561407f565b509392505050565b600081359050612c5e8161461c565b92915050565b600082601f830112612c7557600080fd5b8135612c858482602086016128e3565b91505092915050565b600082601f830112612c9f57600080fd5b8135612caf84826020860161294f565b91505092915050565b600082601f830112612cc957600080fd5b8135612cd98482602086016129d5565b91505092915050565b600082601f830112612cf357600080fd5b8135612d03848260208601612a5b565b91505092915050565b600082601f830112612d1d57600080fd5b8135612d2d848260208601612ae1565b91505092915050565b600082601f830112612d4757600080fd5b8135612d57848260208601612b67565b91505092915050565b600081359050612d6f81614633565b92915050565b600081359050612d848161464a565b92915050565b600081519050612d9981614661565b92915050565b600082601f830112612db057600080fd5b8135612dc0848260208601612bd3565b91505092915050565b600082601f830112612dda57600080fd5b8135612dea848260208601612c11565b91505092915050565b600081359050612e0281614678565b92915050565b600081359050612e178161468f565b92915050565b600060208284031215612e2f57600080fd5b6000612e3d84828501612c4f565b91505092915050565b60008060408385031215612e5957600080fd5b6000612e6785828601612c4f565b925050602083013567ffffffffffffffff811115612e8457600080fd5b612e9085828601612d36565b9150509250929050565b60008060008060808587031215612eb057600080fd5b6000612ebe87828801612c4f565b945050602085013567ffffffffffffffff811115612edb57600080fd5b612ee787828801612d36565b935050604085013567ffffffffffffffff811115612f0457600080fd5b612f1087828801612d36565b9250506060612f2187828801612d60565b91505092959194509250565b60008060408385031215612f4057600080fd5b6000612f4e85828601612c4f565b9250506020612f5f85828601612df3565b9150509250929050565b60008060008060808587031215612f7f57600080fd5b6000612f8d87828801612c4f565b9450506020612f9e87828801612df3565b935050604085013567ffffffffffffffff811115612fbb57600080fd5b612fc787828801612dc9565b925050606085013567ffffffffffffffff811115612fe457600080fd5b612ff087828801612d9f565b91505092959194509250565b6000806000806080858703121561301257600080fd5b600061302087828801612c4f565b945050602061303187828801612df3565b935050604061304287828801612df3565b925050606061305387828801612d60565b91505092959194509250565b600080600080600060a0868803121561307757600080fd5b600061308588828901612c4f565b955050602061309688828901612df3565b94505060406130a788828901612df3565b935050606086013567ffffffffffffffff8111156130c457600080fd5b6130d088828901612dc9565b925050608086013567ffffffffffffffff8111156130ed57600080fd5b6130f988828901612d9f565b9150509295509295909350565b600080600080600080600060e0888a03121561312157600080fd5b600061312f8a828b01612c4f565b97505060206131408a828b01612df3565b96505060406131518a828b01612e08565b95505060606131628a828b01612d75565b94505060806131738a828b01612d75565b93505060a088013567ffffffffffffffff81111561319057600080fd5b61319c8a828b01612dc9565b92505060c088013567ffffffffffffffff8111156131b957600080fd5b6131c58a828b01612d9f565b91505092959891949750929550565b600080604083850312156131e757600080fd5b600083013567ffffffffffffffff81111561320157600080fd5b61320d85828601612c64565b925050602083013567ffffffffffffffff81111561322a57600080fd5b61323685828601612cb8565b9150509250929050565b600080600080600060a0868803121561325857600080fd5b600086013567ffffffffffffffff81111561327257600080fd5b61327e88828901612c64565b955050602086013567ffffffffffffffff81111561329b57600080fd5b6132a788828901612cb8565b945050604086013567ffffffffffffffff8111156132c457600080fd5b6132d088828901612cb8565b935050606086013567ffffffffffffffff8111156132ed57600080fd5b6132f988828901612c8e565b925050608086013567ffffffffffffffff81111561331657600080fd5b61332288828901612ce2565b9150509295509295909350565b60006020828403121561334157600080fd5b600061334f84828501612d8a565b91505092915050565b60006020828403121561336a57600080fd5b600082013567ffffffffffffffff81111561338457600080fd5b61339084828501612d9f565b91505092915050565b6000602082840312156133ab57600080fd5b600082013567ffffffffffffffff8111156133c557600080fd5b6133d184828501612dc9565b91505092915050565b600080604083850312156133ed57600080fd5b600083013567ffffffffffffffff81111561340757600080fd5b61341385828601612dc9565b925050602083013567ffffffffffffffff81111561343057600080fd5b61343c85828601612dc9565b9150509250929050565b60006020828403121561345857600080fd5b600061346684828501612df3565b91505092915050565b600061347b8383613537565b905092915050565b600061348f83836138cd565b60208301905092915050565b60006134a783836138eb565b60208301905092915050565b6134bc81613ff4565b82525050565b60006134cd82613eed565b6134d78185613f33565b9350836020820285016134e985613ecd565b8060005b858110156135255784840389528151613506858261346f565b945061351183613f19565b925060208a019950506001810190506134ed565b50829750879550505050505092915050565b600061354282613ef8565b61354c8185613f44565b935061355783613edd565b8060005b8381101561358857815161356f8882613483565b975061357a83613f26565b92505060018101905061355b565b5085935050505092915050565b60006135a082613ef8565b6135aa8185613f55565b93506135b583613edd565b8060005b838110156135e65781516135cd8882613483565b97506135d883613f26565b9250506001810190506135b9565b5085935050505092915050565b60006135fe82613ef8565b6136088185613f66565b935061361383613edd565b8060005b8381101561364457815161362b888261349b565b975061363683613f26565b925050600181019050613617565b5085935050505092915050565b61365a81614006565b82525050565b61366981614012565b82525050565b61368061367b82614012565b61416d565b82525050565b600061369182613f03565b61369b8185613f71565b93506136ab81856020860161408e565b6136b481614226565b840191505092915050565b60006136ca82613f0e565b6136d48185613f82565b93506136e481856020860161408e565b6136ed81614226565b840191505092915050565b600061370382613f0e565b61370d8185613f93565b935061371d81856020860161408e565b80840191505092915050565b6000613736601d83613f82565b915061374182614244565b602082019050919050565b6000613759602583613f82565b91506137648261426d565b604082019050919050565b600061377c600283613f93565b9150613787826142bc565b600282019050919050565b600061379f602483613f82565b91506137aa826142e5565b604082019050919050565b60006137c2602883613f82565b91506137cd82614334565b604082019050919050565b60006137e5602383613f82565b91506137f082614383565b604082019050919050565b6000613808603483613f82565b9150613813826143d2565b604082019050919050565b600061382b602b83613f82565b915061383682614421565b604082019050919050565b600061384e603283613f82565b915061385982614470565b604082019050919050565b6000613871602883613f82565b915061387c826144bf565b604082019050919050565b6000613894602483613f82565b915061389f8261450e565b604082019050919050565b60006138b7601883613f82565b91506138c28261455d565b602082019050919050565b6138d681614068565b82525050565b6138e581614068565b82525050565b6138f481614068565b82525050565b61390381614072565b82525050565b600061391582846135f3565b915081905092915050565b600061392c82846136f8565b915081905092915050565b60006139428261376f565b915061394e828561366f565b60208201915061395e828461366f565b6020820191508190509392505050565b600060208201905061398360008301846134b3565b92915050565b600060808201905061399e60008301876134b3565b81810360208301526139b08186613595565b905081810360408301526139c48185613595565b905081810360608301526139d88184613686565b905095945050505050565b60006080820190506139f860008301876134b3565b613a0560208301866138dc565b613a1260408301856138dc565b8181036060830152613a248184613686565b905095945050505050565b60006020820190508181036000830152613a4981846134c2565b905092915050565b60006020820190508181036000830152613a6b8184613595565b905092915050565b60006040820190508181036000830152613a8d8185613595565b90508181036020830152613aa18184613595565b90509392505050565b6000602082019050613abf6000830184613651565b92915050565b6000602082019050613ada6000830184613660565b92915050565b6000608082019050613af56000830187613660565b613b0260208301866134b3565b613b0f6040830185613660565b613b1c6060830184613660565b95945050505050565b6000608082019050613b3a6000830187613660565b613b4760208301866134b3565b613b5460408301856138dc565b613b6160608301846138dc565b95945050505050565b6000606082019050613b7f6000830186613660565b613b8c6020830185613660565b613b9960408301846138fa565b949350505050565b60006020820190508181036000830152613bbb81846136bf565b905092915050565b60006020820190508181036000830152613bdc81613729565b9050919050565b60006020820190508181036000830152613bfc8161374c565b9050919050565b60006020820190508181036000830152613c1c81613792565b9050919050565b60006020820190508181036000830152613c3c816137b5565b9050919050565b60006020820190508181036000830152613c5c816137d8565b9050919050565b60006020820190508181036000830152613c7c816137fb565b9050919050565b60006020820190508181036000830152613c9c8161381e565b9050919050565b60006020820190508181036000830152613cbc81613841565b9050919050565b60006020820190508181036000830152613cdc81613864565b9050919050565b60006020820190508181036000830152613cfc81613887565b9050919050565b60006020820190508181036000830152613d1c816138aa565b9050919050565b6000602082019050613d3860008301846138dc565b92915050565b6000613d48613d59565b9050613d5482826140f3565b919050565b6000604051905090565b600067ffffffffffffffff821115613d7e57613d7d6141d5565b5b602082029050602081019050919050565b600067ffffffffffffffff821115613daa57613da96141d5565b5b602082029050602081019050919050565b600067ffffffffffffffff821115613dd657613dd56141d5565b5b602082029050602081019050919050565b600067ffffffffffffffff821115613e0257613e016141d5565b5b602082029050602081019050919050565b600067ffffffffffffffff821115613e2e57613e2d6141d5565b5b602082029050602081019050919050565b600067ffffffffffffffff821115613e5a57613e596141d5565b5b602082029050602081019050919050565b600067ffffffffffffffff821115613e8657613e856141d5565b5b613e8f82614226565b9050602081019050919050565b600067ffffffffffffffff821115613eb757613eb66141d5565b5b613ec082614226565b9050602081019050919050565b6000819050602082019050919050565b6000819050602082019050919050565b600081519050919050565b600081519050919050565b600081519050919050565b600081519050919050565b6000602082019050919050565b6000602082019050919050565b600082825260208201905092915050565b600082825260208201905092915050565b600082825260208201905092915050565b600081905092915050565b600082825260208201905092915050565b600082825260208201905092915050565b600081905092915050565b6000613fa982614068565b9150613fb483614068565b9250827fffffffffffffffffffffffffffffffffffffffffffffffffffffffffffffffff03821115613fe957613fe8614177565b5b828201905092915050565b6000613fff82614048565b9050919050565b60008115159050919050565b6000819050919050565b60007fffffffff0000000000000000000000000000000000000000000000000000000082169050919050565b600073ffffffffffffffffffffffffffffffffffffffff82169050919050565b6000819050919050565b600060ff82169050919050565b82818337600083830152505050565b60005b838110156140ac578082015181840152602081019050614091565b838111156140bb576000848401525b50505050565b600060028204905060018216806140d957607f821691505b602082108114156140ed576140ec6141a6565b5b50919050565b6140fc82614226565b810181811067ffffffffffffffff8211171561411b5761411a6141d5565b5b80604052505050565b600061412f82614068565b91507fffffffffffffffffffffffffffffffffffffffffffffffffffffffffffffffff82141561416257614161614177565b5b600182019050919050565b6000819050919050565b7f4e487b7100000000000000000000000000000000000000000000000000000000600052601160045260246000fd5b7f4e487b7100000000000000000000000000000000000000000000000000000000600052602260045260246000fd5b7f4e487b7100000000000000000000000000000000000000000000000000000000600052604160045260246000fd5b600060033d11156142235760046000803e614220600051614237565b90505b90565b6000601f19601f8301169050919050565b60008160e01c9050919050565b7f496e76616c6964206164647265737320666f72206e6577206f776e6572000000600082015250565b7f556e617574686f72697a65643a2073656e646572206973206e6f74207468652060008201527f6f776e6572000000000000000000000000000000000000000000000000000000602082015250565b7f1901000000000000000000000000000000000000000000000000000000000000600082015250565b7f455243313233383a206275726e20616d6f756e7420657863656564732062616c60008201527f616e636500000000000000000000000000000000000000000000000000000000602082015250565b7f455243313233383a204552433132333852656365697665722072656a6563746560008201527f6420746f6b656e73000000000000000000000000000000000000000000000000602082015250565b7f455243313233383a206275726e2066726f6d20746865207a65726f206164647260008201527f6573730000000000000000000000000000000000000000000000000000000000602082015250565b7f455243313233383a207472616e7366657220746f206e6f6e204552433132333860008201527f526563656976657220696d706c656d656e746572000000000000000000000000602082015250565b7f455243313233383a2062616c616e636520717565727920666f7220746865207a60008201527f65726f2061646472657373000000000000000000000000000000000000000000602082015250565b7f4552433132333853746f726167653a2069647320616e6420746f6b656e20555260008201527f4973206c656e677468206d69736d617463680000000000000000000000000000602082015250565b7f455243313233383a2069647320616e6420616d6f756e7473206c656e6774682060008201527f6d69736d61746368000000000000000000000000000000000000000000000000602082015250565b7f455243313233383a20526563697069656e74206973206e6f74206120636f6e7460008201527f7261637400000000000000000000000000000000000000000000000000000000602082015250565b7f696e76616c6964207369676e6174757265206c656e6774680000000000000000600082015250565b600060443d101561459657614619565b61459e613d59565b60043d036004823e80513d602482011167ffffffffffffffff821117156145c6575050614619565b808201805167ffffffffffffffff8111156145e45750505050614619565b80602083010160043d038501811115614601575050505050614619565b614610826020018501866140f3565b82955050505050505b90565b61462581613ff4565b811461463057600080fd5b50565b61463c81614006565b811461464757600080fd5b50565b61465381614012565b811461465e57600080fd5b50565b61466a8161401c565b811461467557600080fd5b50565b61468181614068565b811461468c57600080fd5b50565b61469881614072565b81146146a357600080fd5b5056fea2646970667358221220bc5ad4257f5a2127954ada6f39e067856210d68252a4bf51d6a5bae2eec0247564736f6c63430008040033",
  "linkReferences": {},
  "deployedLinkReferences": {}
}