{
  "_format": "hh-sol-artifact-1",
  "contractName": "ONERep",
  "sourceName": "contracts/ONERep.sol",
  "abi": [
    {
      "inputs": [
        {
          "internalType": "address",
          "name": "owner_",
          "type": "address"
        },
        {
          "internalType": "string",
          "name": "symbol_",
          "type": "string"
        },
        {
          "internalType": "string",
          "name": "baseURI_",
          "type": "string"
        }
      ],
      "stateMutability": "nonpayable",
      "type": "constructor"
    },
    {
      "anonymous": false,
      "inputs": [
        {
          "indexed": true,
          "internalType": "address",
          "name": "burner",
          "type": "address"
        },
        {
          "indexed": true,
          "internalType": "address",
          "name": "owner",
          "type": "address"
        },
        {
          "indexed": false,
          "internalType": "uint256[]",
          "name": "ids",
          "type": "uint256[]"
        },
        {
          "indexed": false,
          "internalType": "uint256[]",
          "name": "amounts",
          "type": "uint256[]"
        }
      ],
      "name": "BurnBatch",
      "type": "event"
    },
    {
      "anonymous": false,
      "inputs": [
        {
          "indexed": true,
          "internalType": "address",
          "name": "burner",
          "type": "address"
        },
        {
          "indexed": true,
          "internalType": "address",
          "name": "owner",
          "type": "address"
        },
        {
          "indexed": true,
          "internalType": "uint256",
          "name": "id",
          "type": "uint256"
        },
        {
          "indexed": false,
          "internalType": "uint256",
          "name": "amount",
          "type": "uint256"
        }
      ],
      "name": "BurnSingle",
      "type": "event"
    },
    {
      "anonymous": false,
      "inputs": [
        {
          "indexed": false,
          "internalType": "string",
          "name": "name",
          "type": "string"
        },
        {
          "indexed": false,
          "internalType": "string",
          "name": "version",
          "type": "string"
        },
        {
          "indexed": false,
          "internalType": "uint256",
          "name": "chainId",
          "type": "uint256"
        },
        {
          "indexed": false,
          "internalType": "address",
          "name": "verifyingContract",
          "type": "address"
        },
        {
          "indexed": false,
          "internalType": "bytes32",
          "name": "dsDigest",
          "type": "bytes32"
        }
      ],
      "name": "DomainSeparatorForMintApproval",
      "type": "event"
    },
    {
      "anonymous": false,
      "inputs": [
        {
          "indexed": true,
          "internalType": "address",
          "name": "minter",
          "type": "address"
        },
        {
          "indexed": true,
          "internalType": "address",
          "name": "to",
          "type": "address"
        },
        {
          "indexed": false,
          "internalType": "uint256[]",
          "name": "ids",
          "type": "uint256[]"
        },
        {
          "indexed": false,
          "internalType": "uint256[]",
          "name": "amounts",
          "type": "uint256[]"
        }
      ],
      "name": "MintBatch",
      "type": "event"
    },
    {
      "anonymous": false,
      "inputs": [
        {
          "indexed": true,
          "internalType": "address",
          "name": "minter",
          "type": "address"
        },
        {
          "indexed": true,
          "internalType": "address",
          "name": "to",
          "type": "address"
        },
        {
          "indexed": true,
          "internalType": "uint256",
          "name": "id",
          "type": "uint256"
        },
        {
          "indexed": false,
          "internalType": "uint256",
          "name": "amount",
          "type": "uint256"
        }
      ],
      "name": "MintSingle",
      "type": "event"
    },
    {
      "anonymous": false,
      "inputs": [
        {
          "indexed": true,
          "internalType": "uint256",
          "name": "id",
          "type": "uint256"
        },
        {
          "indexed": false,
          "internalType": "string",
          "name": "value",
          "type": "string"
        }
      ],
      "name": "URI",
      "type": "event"
    },
    {
      "inputs": [],
      "name": "DOMAIN_SEPARATOR",
      "outputs": [
        {
          "internalType": "bytes32",
          "name": "",
          "type": "bytes32"
        }
      ],
      "stateMutability": "view",
      "type": "function"
    },
    {
      "inputs": [
        {
          "internalType": "address",
          "name": "account",
          "type": "address"
        },
        {
          "internalType": "uint256",
          "name": "id",
          "type": "uint256"
        }
      ],
      "name": "_balanceOf",
      "outputs": [
        {
          "internalType": "uint256",
          "name": "",
          "type": "uint256"
        }
      ],
      "stateMutability": "view",
      "type": "function"
    },
    {
      "inputs": [
        {
          "internalType": "string",
          "name": "a",
          "type": "string"
        },
        {
          "internalType": "string",
          "name": "b",
          "type": "string"
        }
      ],
      "name": "_compareStrings",
      "outputs": [
        {
          "internalType": "bool",
          "name": "",
          "type": "bool"
        }
      ],
      "stateMutability": "view",
      "type": "function"
    },
    {
      "inputs": [
        {
          "internalType": "address",
          "name": "contributor",
          "type": "address"
        }
      ],
      "name": "addContributor",
      "outputs": [],
      "stateMutability": "nonpayable",
      "type": "function"
    },
    {
      "inputs": [
        {
          "internalType": "address",
          "name": "account",
          "type": "address"
        }
      ],
      "name": "balanceOf",
      "outputs": [
        {
          "internalType": "uint256",
          "name": "",
          "type": "uint256"
        }
      ],
      "stateMutability": "view",
      "type": "function"
    },
    {
      "inputs": [
        {
          "internalType": "address",
          "name": "account",
          "type": "address"
        },
        {
          "internalType": "uint256[]",
          "name": "ids",
          "type": "uint256[]"
        }
      ],
      "name": "balanceOfBatch",
      "outputs": [
        {
          "internalType": "uint256[]",
          "name": "",
          "type": "uint256[]"
        }
      ],
      "stateMutability": "view",
      "type": "function"
    },
    {
      "inputs": [
        {
          "internalType": "address[]",
          "name": "accounts",
          "type": "address[]"
        },
        {
          "internalType": "uint256[][]",
          "name": "ids",
          "type": "uint256[][]"
        }
      ],
      "name": "balanceOfBundle",
      "outputs": [
        {
          "internalType": "uint256[][]",
          "name": "",
          "type": "uint256[][]"
        }
      ],
      "stateMutability": "view",
      "type": "function"
    },
    {
      "inputs": [
        {
          "internalType": "address",
          "name": "from",
          "type": "address"
        },
        {
          "internalType": "uint256",
          "name": "id",
          "type": "uint256"
        },
        {
          "internalType": "uint256",
          "name": "amount",
          "type": "uint256"
        },
        {
          "internalType": "bool",
          "name": "deleteURI",
          "type": "bool"
        }
      ],
      "name": "burn",
      "outputs": [],
      "stateMutability": "nonpayable",
      "type": "function"
    },
    {
      "inputs": [
        {
          "internalType": "address",
          "name": "from",
          "type": "address"
        },
        {
          "internalType": "uint256[]",
          "name": "ids",
          "type": "uint256[]"
        },
        {
          "internalType": "uint256[]",
          "name": "amounts",
          "type": "uint256[]"
        },
        {
          "internalType": "bool",
          "name": "deleteURI",
          "type": "bool"
        }
      ],
      "name": "burnBatch",
      "outputs": [],
      "stateMutability": "nonpayable",
      "type": "function"
    },
    {
      "inputs": [
        {
          "internalType": "address[]",
          "name": "to",
          "type": "address[]"
        },
        {
          "internalType": "uint256[][]",
          "name": "ids",
          "type": "uint256[][]"
        },
        {
          "internalType": "uint256[][]",
          "name": "amounts",
          "type": "uint256[][]"
        },
        {
          "internalType": "string[][]",
          "name": "uris",
          "type": "string[][]"
        },
        {
          "internalType": "bytes[]",
          "name": "data",
          "type": "bytes[]"
        }
      ],
      "name": "mintBundle",
      "outputs": [],
      "stateMutability": "nonpayable",
      "type": "function"
    },
    {
      "inputs": [
        {
          "internalType": "address",
          "name": "to",
          "type": "address"
        },
        {
          "internalType": "uint256",
          "name": "id",
          "type": "uint256"
        },
        {
          "internalType": "uint256",
          "name": "amount",
          "type": "uint256"
        },
        {
          "internalType": "string",
          "name": "uri",
          "type": "string"
        },
        {
          "internalType": "bytes",
          "name": "data",
          "type": "bytes"
        }
      ],
      "name": "mintToContract",
      "outputs": [],
      "stateMutability": "nonpayable",
      "type": "function"
    },
    {
      "inputs": [
        {
          "internalType": "address",
          "name": "to",
          "type": "address"
        },
        {
          "internalType": "uint256",
          "name": "amount",
          "type": "uint256"
        },
        {
          "internalType": "string",
          "name": "uri",
          "type": "string"
        },
        {
          "internalType": "bytes",
          "name": "data",
          "type": "bytes"
        }
      ],
      "name": "mintToContract",
      "outputs": [],
      "stateMutability": "nonpayable",
      "type": "function"
    },
    {
      "inputs": [
        {
          "internalType": "address",
          "name": "to",
          "type": "address"
        },
        {
          "internalType": "uint256",
          "name": "amount",
          "type": "uint256"
        },
        {
          "internalType": "uint8",
          "name": "v",
          "type": "uint8"
        },
        {
          "internalType": "bytes32",
          "name": "r",
          "type": "bytes32"
        },
        {
          "internalType": "bytes32",
          "name": "s",
          "type": "bytes32"
        },
        {
          "internalType": "string",
          "name": "uri",
          "type": "string"
        },
        {
          "internalType": "bytes",
          "name": "data",
          "type": "bytes"
        }
      ],
      "name": "mintToEOA",
      "outputs": [],
      "stateMutability": "nonpayable",
      "type": "function"
    },
    {
      "inputs": [],
      "name": "name",
      "outputs": [
        {
          "internalType": "string",
          "name": "",
          "type": "string"
        }
      ],
      "stateMutability": "view",
      "type": "function"
    },
    {
      "inputs": [
        {
          "internalType": "address",
          "name": "",
          "type": "address"
        }
      ],
      "name": "owners",
      "outputs": [
        {
          "internalType": "bool",
          "name": "",
          "type": "bool"
        }
      ],
      "stateMutability": "view",
      "type": "function"
    },
    {
      "inputs": [
        {
          "internalType": "string",
          "name": "newBaseURI",
          "type": "string"
        }
      ],
      "name": "setBaseURI",
      "outputs": [],
      "stateMutability": "nonpayable",
      "type": "function"
    },
    {
      "inputs": [
        {
          "internalType": "bytes",
          "name": "sig",
          "type": "bytes"
        }
      ],
      "name": "splitSignature",
      "outputs": [
        {
          "internalType": "bytes32",
          "name": "r",
          "type": "bytes32"
        },
        {
          "internalType": "bytes32",
          "name": "s",
          "type": "bytes32"
        },
        {
          "internalType": "uint8",
          "name": "v",
          "type": "uint8"
        }
      ],
      "stateMutability": "pure",
      "type": "function"
    },
    {
      "inputs": [],
      "name": "symbol",
      "outputs": [
        {
          "internalType": "string",
          "name": "",
          "type": "string"
        }
      ],
      "stateMutability": "view",
      "type": "function"
    },
    {
      "inputs": [
        {
          "internalType": "uint256",
          "name": "id",
          "type": "uint256"
        }
      ],
      "name": "tokenURI",
      "outputs": [
        {
          "internalType": "string",
          "name": "",
          "type": "string"
        }
      ],
      "stateMutability": "view",
      "type": "function"
    }
  ],
  "bytecode": "0x60806040523480156200001157600080fd5b5060405162004f9b38038062004f9b833981810160405281019062000037919062000448565b80600060405180608001604052806040518060400160405280601581526020017f45524331323338204d696e7420417070726f76616c000000000000000000000081525081526020016040518060400160405280600181526020017f310000000000000000000000000000000000000000000000000000000000000081525081526020014681526020013073ffffffffffffffffffffffffffffffffffffffff1681525090507f8b73c3c69bb8fe3d512ecc4cf759cc79239f7b179b0ffacaa9a75d522b39400f8160000151805190602001208260200151805190602001208360400151846060015160405160200162000136959493929190620005bb565b604051602081830303815290604052805190602001206000819055507fe5a822f101a714d5cd94a04cf067a84a2ddb69b5326b93008a040df8a74a387281600001518260200151836040015184606001516000546040516200019d95949392919062000618565b60405180910390a150620001b7816200029660201b60201c565b506001600460008573ffffffffffffffffffffffffffffffffffffffff1673ffffffffffffffffffffffffffffffffffffffff16815260200190815260200160002060006101000a81548160ff021916908315150217905550620002318260405180602001604052806000815250620002b260201b60201c565b1562000274576040517f08c379a00000000000000000000000000000000000000000000000000000000081526004016200026b9062000683565b60405180910390fd5b81600590805190602001906200028c9291906200030f565b50505050620008c7565b8060029080519060200190620002ae9291906200030f565b5050565b600081604051602001620002c79190620005a2565b6040516020818303038152906040528051906020012083604051602001620002f09190620005a2565b6040516020818303038152906040528051906020012014905092915050565b8280546200031d90620007a9565b90600052602060002090601f0160209004810192826200034157600085556200038d565b82601f106200035c57805160ff19168380011785556200038d565b828001600101855582156200038d579182015b828111156200038c5782518255916020019190600101906200036f565b5b5090506200039c9190620003a0565b5090565b5b80821115620003bb576000816000905550600101620003a1565b5090565b6000620003d6620003d084620006ce565b620006a5565b905082815260208101848484011115620003ef57600080fd5b620003fc84828562000773565b509392505050565b6000815190506200041581620008ad565b92915050565b600082601f8301126200042d57600080fd5b81516200043f848260208601620003bf565b91505092915050565b6000806000606084860312156200045e57600080fd5b60006200046e8682870162000404565b935050602084015167ffffffffffffffff8111156200048c57600080fd5b6200049a868287016200041b565b925050604084015167ffffffffffffffff811115620004b857600080fd5b620004c6868287016200041b565b9150509250925092565b620004db816200072b565b82525050565b620004ec816200073f565b82525050565b6000620004ff8262000704565b6200050b81856200070f565b93506200051d81856020860162000773565b620005288162000873565b840191505092915050565b6000620005408262000704565b6200054c818562000720565b93506200055e81856020860162000773565b80840191505092915050565b600062000579600e836200070f565b9150620005868262000884565b602082019050919050565b6200059c8162000769565b82525050565b6000620005b0828462000533565b915081905092915050565b600060a082019050620005d26000830188620004e1565b620005e16020830187620004e1565b620005f06040830186620004e1565b620005ff606083018562000591565b6200060e6080830184620004d0565b9695505050505050565b600060a0820190508181036000830152620006348188620004f2565b905081810360208301526200064a8187620004f2565b90506200065b604083018662000591565b6200066a6060830185620004d0565b620006796080830184620004e1565b9695505050505050565b600060208201905081810360008301526200069e816200056a565b9050919050565b6000620006b1620006c4565b9050620006bf8282620007df565b919050565b6000604051905090565b600067ffffffffffffffff821115620006ec57620006eb62000844565b5b620006f78262000873565b9050602081019050919050565b600081519050919050565b600082825260208201905092915050565b600081905092915050565b6000620007388262000749565b9050919050565b6000819050919050565b600073ffffffffffffffffffffffffffffffffffffffff82169050919050565b6000819050919050565b60005b838110156200079357808201518184015260208101905062000776565b83811115620007a3576000848401525b50505050565b60006002820490506001821680620007c257607f821691505b60208210811415620007d957620007d862000815565b5b50919050565b620007ea8262000873565b810181811067ffffffffffffffff821117156200080c576200080b62000844565b5b80604052505050565b7f4e487b7100000000000000000000000000000000000000000000000000000000600052602260045260246000fd5b7f4e487b7100000000000000000000000000000000000000000000000000000000600052604160045260246000fd5b6000601f19601f8301169050919050565b7f496e76616c69642073796d626f6c000000000000000000000000000000000000600082015250565b620008b8816200072b565b8114620008c457600080fd5b50565b6146c480620008d76000396000f3fe608060405234801561001057600080fd5b50600436106101215760003560e01c80637c68ec4c116100ad578063a7bb580311610071578063a7bb580314610304578063afd6908614610336578063b579184f14610366578063c87b56dd14610382578063dbee1524146103b257610121565b80637c68ec4c14610262578063815a7c70146102925780638af702a1146102ae57806395d89b41146102ca5780639c547035146102e857610121565b80633ebce34a116100f45780633ebce34a146101ae57806344893bf3146101ca57806355f804b3146101e657806370a0823114610202578063787d2f301461023257610121565b8063022914a71461012657806306fdde031461015657806331126dd1146101745780633644e51514610190575b600080fd5b610140600480360381019061013b9190612e20565b6103e2565b60405161014d9190613a92565b60405180910390f35b61015e610402565b60405161016b9190613b89565b60405180910390f35b61018e60048036038101906101899190612fff565b61043f565b005b6101986104f3565b6040516101a59190613aad565b60405180910390f35b6101c860048036038101906101c39190613062565b6104f9565b005b6101e460048036038101906101df9190612e9d565b6105a2565b005b61020060048036038101906101fb919061339c565b610656565b005b61021c60048036038101906102179190612e20565b6106ee565b6040516102299190613d0b565b60405180910390f35b61024c60048036038101906102479190612f30565b6107b8565b6040516102599190613d0b565b60405180910390f35b61027c600480360381019061027791906133dd565b610882565b6040516102899190613a92565b60405180910390f35b6102ac60048036038101906102a79190613109565b6108db565b005b6102c860048036038101906102c39190613243565b61098b565b005b6102d2610da4565b6040516102df9190613b89565b60405180910390f35b61030260048036038101906102fd9190612f6c565b610e36565b005b61031e6004803603810190610319919061335b565b610ee0565b60405161032d93929190613b52565b60405180910390f35b610350600480360381019061034b9190612e49565b610f48565b60405161035d9190613a39565b60405180910390f35b610380600480360381019061037b9190612e20565b61107b565b005b61039c60048036038101906103979190613449565b6111d2565b6040516103a99190613b89565b60405180910390f35b6103cc60048036038101906103c791906131d7565b6112a2565b6040516103d99190613a17565b60405180910390f35b60046020528060005260406000206000915054906101000a900460ff1681565b60606040518060400160405280601381526020017f4f4e452052657020426164676520546f6b656e00000000000000000000000000815250905090565b600460003373ffffffffffffffffffffffffffffffffffffffff1673ffffffffffffffffffffffffffffffffffffffff16815260200190815260200160002060009054906101000a900460ff166104cb576040517f08c379a00000000000000000000000000000000000000000000000000000000081526004016104c290613bab565b60405180910390fd5b80156104e1576104dc848484611419565b6104ed565b6104ec848484611432565b5b50505050565b60005481565b600460003373ffffffffffffffffffffffffffffffffffffffff1673ffffffffffffffffffffffffffffffffffffffff16815260200190815260200160002060009054906101000a900460ff16610585576040517f08c379a000000000000000000000000000000000000000000000000000000000815260040161057c90613bab565b60405180910390fd5b6105918585858461160f565b61059b848361168c565b5050505050565b600460003373ffffffffffffffffffffffffffffffffffffffff1673ffffffffffffffffffffffffffffffffffffffff16815260200190815260200160002060009054906101000a900460ff1661062e576040517f08c379a000000000000000000000000000000000000000000000000000000000815260040161062590613bab565b60405180910390fd5b80156106445761063f8484846116f0565b610650565b61064f8484846119c7565b5b50505050565b600460003373ffffffffffffffffffffffffffffffffffffffff1673ffffffffffffffffffffffffffffffffffffffff16815260200190815260200160002060009054906101000a900460ff166106e2576040517f08c379a00000000000000000000000000000000000000000000000000000000081526004016106d990613bab565b60405180910390fd5b6106eb81611c95565b50565b60008073ffffffffffffffffffffffffffffffffffffffff168273ffffffffffffffffffffffffffffffffffffffff16141561075f576040517f08c379a000000000000000000000000000000000000000000000000000000000815260040161075690613c6b565b60405180910390fd5b600160006001815260200190815260200160002060008373ffffffffffffffffffffffffffffffffffffffff1673ffffffffffffffffffffffffffffffffffffffff168152602001908152602001600020549050919050565b60008073ffffffffffffffffffffffffffffffffffffffff168373ffffffffffffffffffffffffffffffffffffffff161415610829576040517f08c379a000000000000000000000000000000000000000000000000000000000815260040161082090613c6b565b60405180910390fd5b6001600083815260200190815260200160002060008473ffffffffffffffffffffffffffffffffffffffff1673ffffffffffffffffffffffffffffffffffffffff16815260200190815260200160002054905092915050565b6000816040516020016108959190613923565b60405160208183030381529060405280519060200120836040516020016108bc9190613923565b6040516020818303038152906040528051906020012014905092915050565b600460003373ffffffffffffffffffffffffffffffffffffffff1673ffffffffffffffffffffffffffffffffffffffff16815260200190815260200160002060009054906101000a900460ff16610967576040517f08c379a000000000000000000000000000000000000000000000000000000000815260040161095e90613bab565b60405180910390fd5b6109778760018888888887611caf565b61098260018361168c565b50505050505050565b600460003373ffffffffffffffffffffffffffffffffffffffff1673ffffffffffffffffffffffffffffffffffffffff16815260200190815260200160002060009054906101000a900460ff16610a17576040517f08c379a0000000000000000000000000000000000000000000000000000000008152600401610a0e90613bab565b60405180910390fd5b60005b8551811015610d9c57610aad858281518110610a5f577f4e487b7100000000000000000000000000000000000000000000000000000000600052603260045260246000fd5b6020026020010151848381518110610aa0577f4e487b7100000000000000000000000000000000000000000000000000000000600052603260045260246000fd5b6020026020010151611ce1565b610b0c868281518110610ae9577f4e487b7100000000000000000000000000000000000000000000000000000000600052603260045260246000fd5b602002602001015173ffffffffffffffffffffffffffffffffffffffff16611dd3565b15610c2257610c1d868281518110610b4d577f4e487b7100000000000000000000000000000000000000000000000000000000600052603260045260246000fd5b6020026020010151868381518110610b8e577f4e487b7100000000000000000000000000000000000000000000000000000000600052603260045260246000fd5b6020026020010151868481518110610bcf577f4e487b7100000000000000000000000000000000000000000000000000000000600052603260045260246000fd5b6020026020010151858581518110610c10577f4e487b7100000000000000000000000000000000000000000000000000000000600052603260045260246000fd5b6020026020010151611df6565b610d89565b6000806000610c70858581518110610c63577f4e487b7100000000000000000000000000000000000000000000000000000000600052603260045260246000fd5b6020026020010151610ee0565b925092509250610d85898581518110610cb2577f4e487b7100000000000000000000000000000000000000000000000000000000600052603260045260246000fd5b6020026020010151898681518110610cf3577f4e487b7100000000000000000000000000000000000000000000000000000000600052603260045260246000fd5b6020026020010151898781518110610d34577f4e487b7100000000000000000000000000000000000000000000000000000000600052603260045260246000fd5b60200260200101518487878b8b81518110610d78577f4e487b7100000000000000000000000000000000000000000000000000000000600052603260045260246000fd5b6020026020010151611e73565b5050505b8080610d949061410c565b915050610a1a565b505050505050565b606060058054610db3906140a9565b80601f0160208091040260200160405190810160405280929190818152602001828054610ddf906140a9565b8015610e2c5780601f10610e0157610100808354040283529160200191610e2c565b820191906000526020600020905b815481529060010190602001808311610e0f57829003601f168201915b5050505050905090565b600460003373ffffffffffffffffffffffffffffffffffffffff1673ffffffffffffffffffffffffffffffffffffffff16815260200190815260200160002060009054906101000a900460ff16610ec2576040517f08c379a0000000000000000000000000000000000000000000000000000000008152600401610eb990613bab565b60405180910390fd5b610ecf846001858461160f565b610eda60018361168c565b50505050565b60008060006041845114610f29576040517f08c379a0000000000000000000000000000000000000000000000000000000008152600401610f2090613ceb565b60405180910390fd5b6020840151925060408401519150606084015160001a90509193909250565b60606000825167ffffffffffffffff811115610f8d577f4e487b7100000000000000000000000000000000000000000000000000000000600052604160045260246000fd5b604051908082528060200260200182016040528015610fbb5781602001602082028036833780820191505090505b50905060008351905060005b8181101561106f576110198686838151811061100c577f4e487b7100000000000000000000000000000000000000000000000000000000600052603260045260246000fd5b60200260200101516107b8565b838281518110611052577f4e487b7100000000000000000000000000000000000000000000000000000000600052603260045260246000fd5b602002602001018181525050806110689061410c565b9050610fc7565b50819250505092915050565b600460003373ffffffffffffffffffffffffffffffffffffffff1673ffffffffffffffffffffffffffffffffffffffff16815260200190815260200160002060009054906101000a900460ff16611107576040517f08c379a00000000000000000000000000000000000000000000000000000000081526004016110fe90613bab565b60405180910390fd5b600073ffffffffffffffffffffffffffffffffffffffff168173ffffffffffffffffffffffffffffffffffffffff161415611177576040517f08c379a000000000000000000000000000000000000000000000000000000000815260040161116e90613c0b565b60405180910390fd5b6001600460008373ffffffffffffffffffffffffffffffffffffffff1673ffffffffffffffffffffffffffffffffffffffff16815260200190815260200160002060006101000a81548160ff02191690831515021790555050565b606060006003600084815260200190815260200160002080546111f4906140a9565b80601f0160208091040260200160405190810160405280929190818152602001828054611220906140a9565b801561126d5780601f106112425761010080835404028352916020019161126d565b820191906000526020600020905b81548152906001019060200180831161125057829003601f168201915b5050505050905061127d83611ea5565b1561128b578091505061129d565b6000611295611ed0565b905080925050505b919050565b60606000835167ffffffffffffffff8111156112e7577f4e487b7100000000000000000000000000000000000000000000000000000000600052604160045260246000fd5b60405190808252806020026020018201604052801561131a57816020015b60608152602001906001900390816113055790505b50905060008451905060005b8181101561140d576113b886828151811061136a577f4e487b7100000000000000000000000000000000000000000000000000000000600052603260045260246000fd5b60200260200101518683815181106113ab577f4e487b7100000000000000000000000000000000000000000000000000000000600052603260045260246000fd5b6020026020010151610f48565b8382815181106113f1577f4e487b7100000000000000000000000000000000000000000000000000000000600052603260045260246000fd5b6020026020010181905250806114069061410c565b9050611326565b50819250505092915050565b611424838383611432565b61142d82611f62565b505050565b600073ffffffffffffffffffffffffffffffffffffffff168373ffffffffffffffffffffffffffffffffffffffff1614156114a2576040517f08c379a000000000000000000000000000000000000000000000000000000000815260040161149990613c2b565b60405180910390fd5b60003390506114b381858585611f93565b60006001600085815260200190815260200160002060008673ffffffffffffffffffffffffffffffffffffffff1673ffffffffffffffffffffffffffffffffffffffff1681526020019081526020016000205490508281101561154b576040517f08c379a000000000000000000000000000000000000000000000000000000000815260040161154290613bcb565b60405180910390fd5b8281036001600086815260200190815260200160002060008773ffffffffffffffffffffffffffffffffffffffff1673ffffffffffffffffffffffffffffffffffffffff16815260200190815260200160002081905550838573ffffffffffffffffffffffffffffffffffffffff168373ffffffffffffffffffffffffffffffffffffffff167f995c922928fc04a31c6446db7f51f402ddb95ac41fa3dca51c98ff1fe7300531866040516116009190613d0b565b60405180910390a45050505050565b61162e8473ffffffffffffffffffffffffffffffffffffffff16611dd3565b61166d576040517f08c379a000000000000000000000000000000000000000000000000000000000815260040161166490613ccb565b60405180910390fd5b61167984848484611f99565b611686338585858561207f565b50505050565b806003600084815260200190815260200160002090805190602001906116b3929190612803565b50817f369737eac2f50072db0001f8a5c3f225ab50d5ab38d8cbdbabf885abf2ab722a826040516116e49190613b89565b60405180910390a25050565b600073ffffffffffffffffffffffffffffffffffffffff168373ffffffffffffffffffffffffffffffffffffffff161415611760576040517f08c379a000000000000000000000000000000000000000000000000000000000815260040161175790613c2b565b60405180910390fd5b80518251146117a4576040517f08c379a000000000000000000000000000000000000000000000000000000000815260040161179b90613cab565b60405180910390fd5b600033905060005b83518110156119595760008482815181106117f0577f4e487b7100000000000000000000000000000000000000000000000000000000600052603260045260246000fd5b602002602001015190506000848381518110611835577f4e487b7100000000000000000000000000000000000000000000000000000000600052603260045260246000fd5b6020026020010151905061184b84888484611f93565b60006001600084815260200190815260200160002060008973ffffffffffffffffffffffffffffffffffffffff1673ffffffffffffffffffffffffffffffffffffffff168152602001908152602001600020549050818110156118e3576040517f08c379a00000000000000000000000000000000000000000000000000000000081526004016118da90613bcb565b60405180910390fd5b8181036001600085815260200190815260200160002060008a73ffffffffffffffffffffffffffffffffffffffff1673ffffffffffffffffffffffffffffffffffffffff1681526020019081526020016000208190555061194383611f62565b50505080806119519061410c565b9150506117ac565b508373ffffffffffffffffffffffffffffffffffffffff168173ffffffffffffffffffffffffffffffffffffffff167ff6d51a8d20e8b0143ca41399aa93b2a480cb0b95e39847e4ebd3144b2db8775d85856040516119b9929190613a5b565b60405180910390a350505050565b600073ffffffffffffffffffffffffffffffffffffffff168373ffffffffffffffffffffffffffffffffffffffff161415611a37576040517f08c379a0000000000000000000000000000000000000000000000000000000008152600401611a2e90613c2b565b60405180910390fd5b8051825114611a7b576040517f08c379a0000000000000000000000000000000000000000000000000000000008152600401611a7290613cab565b60405180910390fd5b600033905060005b8351811015611c27576000848281518110611ac7577f4e487b7100000000000000000000000000000000000000000000000000000000600052603260045260246000fd5b602002602001015190506000848381518110611b0c577f4e487b7100000000000000000000000000000000000000000000000000000000600052603260045260246000fd5b60200260200101519050611b2284888484611f93565b60006001600084815260200190815260200160002060008973ffffffffffffffffffffffffffffffffffffffff1673ffffffffffffffffffffffffffffffffffffffff16815260200190815260200160002054905081811015611bba576040517f08c379a0000000000000000000000000000000000000000000000000000000008152600401611bb190613bcb565b60405180910390fd5b8181036001600085815260200190815260200160002060008a73ffffffffffffffffffffffffffffffffffffffff1673ffffffffffffffffffffffffffffffffffffffff168152602001908152602001600020819055505050508080611c1f9061410c565b915050611a83565b508373ffffffffffffffffffffffffffffffffffffffff168173ffffffffffffffffffffffffffffffffffffffff167ff6d51a8d20e8b0143ca41399aa93b2a480cb0b95e39847e4ebd3144b2db8775d8585604051611c87929190613a5b565b60405180910390a350505050565b8060029080519060200190611cab929190612803565b5050565b6000611cbc33888861223e565b9050611ccb33828787876122d7565b611cd788888885611f99565b5050505050505050565b8051825114611d25576040517f08c379a0000000000000000000000000000000000000000000000000000000008152600401611d1c90613c8b565b60405180910390fd5b60005b8251811015611dce57611dbb838281518110611d6d577f4e487b7100000000000000000000000000000000000000000000000000000000600052603260045260246000fd5b6020026020010151838381518110611dae577f4e487b7100000000000000000000000000000000000000000000000000000000600052603260045260246000fd5b602002602001015161168c565b8080611dc69061410c565b915050611d28565b505050565b6000808273ffffffffffffffffffffffffffffffffffffffff163b119050919050565b611e158473ffffffffffffffffffffffffffffffffffffffff16611dd3565b611e54576040517f08c379a0000000000000000000000000000000000000000000000000000000008152600401611e4b90613ccb565b60405180910390fd5b611e608484848461230d565b611e6d3385858585612558565b50505050565b6000611e80888888612717565b9050611e8f88828787876122d7565b611e9b8888888561230d565b5050505050505050565b600080600360008481526020019081526020016000208054611ec6906140a9565b9050119050919050565b606060028054611edf906140a9565b80601f0160208091040260200160405190810160405280929190818152602001828054611f0b906140a9565b8015611f585780601f10611f2d57610100808354040283529160200191611f58565b820191906000526020600020905b815481529060010190602001808311611f3b57829003601f168201915b5050505050905090565b611f6b81611ea5565b15611f9057600360008281526020019081526020016000206000611f8f9190612889565b5b50565b50505050565b6000339050611fab81868686866127fc565b826001600086815260200190815260200160002060008773ffffffffffffffffffffffffffffffffffffffff1673ffffffffffffffffffffffffffffffffffffffff168152602001908152602001600020600082825461200b9190613f86565b92505081905550838573ffffffffffffffffffffffffffffffffffffffff168273ffffffffffffffffffffffffffffffffffffffff167f17facb1ae55b1a0fe54049767ddeb027123cb5d0379a5a1c6f5c954287d88fb3866040516120709190613d0b565b60405180910390a45050505050565b8373ffffffffffffffffffffffffffffffffffffffff166345ed75d5868585856040518563ffffffff1660e01b81526004016120be94939291906139cb565b602060405180830381600087803b1580156120d857600080fd5b505af192505050801561210957506040513d601f19601f820116820180604052508101906121069190613332565b60015b6121af576121156141ec565b806308c379a01415612172575061212a61456e565b806121355750612174565b806040517f08c379a00000000000000000000000000000000000000000000000000000000081526004016121699190613b89565b60405180910390fd5b505b6040517f08c379a00000000000000000000000000000000000000000000000000000000081526004016121a690613c4b565b60405180910390fd5b6345ed75d560e01b7bffffffffffffffffffffffffffffffffffffffffffffffffffffffff1916817bffffffffffffffffffffffffffffffffffffffffffffffffffffffff191614612236576040517f08c379a000000000000000000000000000000000000000000000000000000000815260040161222d90613beb565b60405180910390fd5b505050505050565b60008060405180606001604052808673ffffffffffffffffffffffffffffffffffffffff1681526020018581526020018481525090507f97b28eca24e5080ea4d0af02f80111ea0596b75fdd4228411a50c43abfdd3eed8160000151826020015183604001516040516020016122b79493929190613b0d565b604051602081830303815290604052805190602001209150509392505050565b60008054856040516020016122ed92919061393a565b604051602081830303815290604052805190602001209050505050505050565b8151835114612351576040517f08c379a000000000000000000000000000000000000000000000000000000000815260040161234890613cab565b60405180910390fd5b600033905060005b84518110156124e9576123ef82878784815181106123a0577f4e487b7100000000000000000000000000000000000000000000000000000000600052603260045260246000fd5b60200260200101518785815181106123e1577f4e487b7100000000000000000000000000000000000000000000000000000000600052603260045260246000fd5b6020026020010151876127fc565b838181518110612428577f4e487b7100000000000000000000000000000000000000000000000000000000600052603260045260246000fd5b60200260200101516001600087848151811061246d577f4e487b7100000000000000000000000000000000000000000000000000000000600052603260045260246000fd5b6020026020010151815260200190815260200160002060008873ffffffffffffffffffffffffffffffffffffffff1673ffffffffffffffffffffffffffffffffffffffff16815260200190815260200160002060008282546124cf9190613f86565b9250508190555080806124e19061410c565b915050612359565b508473ffffffffffffffffffffffffffffffffffffffff168173ffffffffffffffffffffffffffffffffffffffff167f5c5ac6bfb3f54a39f008d2e9be10d575012f29230716d49e92da377d748b1a878686604051612549929190613a5b565b60405180910390a35050505050565b8373ffffffffffffffffffffffffffffffffffffffff1663c0bfec68868585856040518563ffffffff1660e01b81526004016125979493929190613971565b602060405180830381600087803b1580156125b157600080fd5b505af19250505080156125e257506040513d601f19601f820116820180604052508101906125df9190613332565b60015b612688576125ee6141ec565b806308c379a0141561264b575061260361456e565b8061260e575061264d565b806040517f08c379a00000000000000000000000000000000000000000000000000000000081526004016126429190613b89565b60405180910390fd5b505b6040517f08c379a000000000000000000000000000000000000000000000000000000000815260040161267f90613c4b565b60405180910390fd5b63c0bfec6860e01b7bffffffffffffffffffffffffffffffffffffffffffffffffffffffff1916817bffffffffffffffffffffffffffffffffffffffffffffffffffffffff19161461270f576040517f08c379a000000000000000000000000000000000000000000000000000000000815260040161270690613beb565b60405180910390fd5b505050505050565b60008060405180606001604052808673ffffffffffffffffffffffffffffffffffffffff1681526020018581526020018481525090507f3766a97e8e4290ccc4e1f96c50729afab6e1e51b341c132ce910495c64b43d0e81600001518260200151604051602001612788919061390c565b6040516020818303038152906040528051906020012083604001516040516020016127b3919061390c565b604051602081830303815290604052805190602001206040516020016127dc9493929190613ac8565b604051602081830303815290604052805190602001209150509392505050565b5050505050565b82805461280f906140a9565b90600052602060002090601f0160209004810192826128315760008555612878565b82601f1061284a57805160ff1916838001178555612878565b82800160010185558215612878579182015b8281111561287757825182559160200191906001019061285c565b5b50905061288591906128c9565b5090565b508054612895906140a9565b6000825580601f106128a757506128c6565b601f0160209004906000526020600020908101906128c591906128c9565b5b50565b5b808211156128e25760008160009055506001016128ca565b5090565b60006128f96128f484613d4b565b613d26565b9050808382526020820190508285602086028201111561291857600080fd5b60005b85811015612948578161292e8882612c52565b84526020840193506020830192505060018101905061291b565b5050509392505050565b600061296561296084613d77565b613d26565b9050808382526020820190508285602086028201111561298457600080fd5b60005b858110156129ce57813567ffffffffffffffff8111156129a657600080fd5b8086016129b38982612d0f565b85526020850194506020840193505050600181019050612987565b5050509392505050565b60006129eb6129e684613da3565b613d26565b90508083825260208201905082856020860282011115612a0a57600080fd5b60005b85811015612a5457813567ffffffffffffffff811115612a2c57600080fd5b808601612a398982612d39565b85526020850194506020840193505050600181019050612a0d565b5050509392505050565b6000612a71612a6c84613dcf565b613d26565b90508083825260208201905082856020860282011115612a9057600080fd5b60005b85811015612ada57813567ffffffffffffffff811115612ab257600080fd5b808601612abf8982612da2565b85526020850194506020840193505050600181019050612a93565b5050509392505050565b6000612af7612af284613dfb565b613d26565b90508083825260208201905082856020860282011115612b1657600080fd5b60005b85811015612b6057813567ffffffffffffffff811115612b3857600080fd5b808601612b458982612dcc565b85526020850194506020840193505050600181019050612b19565b5050509392505050565b6000612b7d612b7884613e27565b613d26565b90508083825260208201905082856020860282011115612b9c57600080fd5b60005b85811015612bcc5781612bb28882612df6565b845260208401935060208301925050600181019050612b9f565b5050509392505050565b6000612be9612be484613e53565b613d26565b905082815260208101848484011115612c0157600080fd5b612c0c848285614067565b509392505050565b6000612c27612c2284613e84565b613d26565b905082815260208101848484011115612c3f57600080fd5b612c4a848285614067565b509392505050565b600081359050612c6181614604565b92915050565b600082601f830112612c7857600080fd5b8135612c888482602086016128e6565b91505092915050565b600082601f830112612ca257600080fd5b8135612cb2848260208601612952565b91505092915050565b600082601f830112612ccc57600080fd5b8135612cdc8482602086016129d8565b91505092915050565b600082601f830112612cf657600080fd5b8135612d06848260208601612a5e565b91505092915050565b600082601f830112612d2057600080fd5b8135612d30848260208601612ae4565b91505092915050565b600082601f830112612d4a57600080fd5b8135612d5a848260208601612b6a565b91505092915050565b600081359050612d728161461b565b92915050565b600081359050612d8781614632565b92915050565b600081519050612d9c81614649565b92915050565b600082601f830112612db357600080fd5b8135612dc3848260208601612bd6565b91505092915050565b600082601f830112612ddd57600080fd5b8135612ded848260208601612c14565b91505092915050565b600081359050612e0581614660565b92915050565b600081359050612e1a81614677565b92915050565b600060208284031215612e3257600080fd5b6000612e4084828501612c52565b91505092915050565b60008060408385031215612e5c57600080fd5b6000612e6a85828601612c52565b925050602083013567ffffffffffffffff811115612e8757600080fd5b612e9385828601612d39565b9150509250929050565b60008060008060808587031215612eb357600080fd5b6000612ec187828801612c52565b945050602085013567ffffffffffffffff811115612ede57600080fd5b612eea87828801612d39565b935050604085013567ffffffffffffffff811115612f0757600080fd5b612f1387828801612d39565b9250506060612f2487828801612d63565b91505092959194509250565b60008060408385031215612f4357600080fd5b6000612f5185828601612c52565b9250506020612f6285828601612df6565b9150509250929050565b60008060008060808587031215612f8257600080fd5b6000612f9087828801612c52565b9450506020612fa187828801612df6565b935050604085013567ffffffffffffffff811115612fbe57600080fd5b612fca87828801612dcc565b925050606085013567ffffffffffffffff811115612fe757600080fd5b612ff387828801612da2565b91505092959194509250565b6000806000806080858703121561301557600080fd5b600061302387828801612c52565b945050602061303487828801612df6565b935050604061304587828801612df6565b925050606061305687828801612d63565b91505092959194509250565b600080600080600060a0868803121561307a57600080fd5b600061308888828901612c52565b955050602061309988828901612df6565b94505060406130aa88828901612df6565b935050606086013567ffffffffffffffff8111156130c757600080fd5b6130d388828901612dcc565b925050608086013567ffffffffffffffff8111156130f057600080fd5b6130fc88828901612da2565b9150509295509295909350565b600080600080600080600060e0888a03121561312457600080fd5b60006131328a828b01612c52565b97505060206131438a828b01612df6565b96505060406131548a828b01612e0b565b95505060606131658a828b01612d78565b94505060806131768a828b01612d78565b93505060a088013567ffffffffffffffff81111561319357600080fd5b61319f8a828b01612dcc565b92505060c088013567ffffffffffffffff8111156131bc57600080fd5b6131c88a828b01612da2565b91505092959891949750929550565b600080604083850312156131ea57600080fd5b600083013567ffffffffffffffff81111561320457600080fd5b61321085828601612c67565b925050602083013567ffffffffffffffff81111561322d57600080fd5b61323985828601612cbb565b9150509250929050565b600080600080600060a0868803121561325b57600080fd5b600086013567ffffffffffffffff81111561327557600080fd5b61328188828901612c67565b955050602086013567ffffffffffffffff81111561329e57600080fd5b6132aa88828901612cbb565b945050604086013567ffffffffffffffff8111156132c757600080fd5b6132d388828901612cbb565b935050606086013567ffffffffffffffff8111156132f057600080fd5b6132fc88828901612c91565b925050608086013567ffffffffffffffff81111561331957600080fd5b61332588828901612ce5565b9150509295509295909350565b60006020828403121561334457600080fd5b600061335284828501612d8d565b91505092915050565b60006020828403121561336d57600080fd5b600082013567ffffffffffffffff81111561338757600080fd5b61339384828501612da2565b91505092915050565b6000602082840312156133ae57600080fd5b600082013567ffffffffffffffff8111156133c857600080fd5b6133d484828501612dcc565b91505092915050565b600080604083850312156133f057600080fd5b600083013567ffffffffffffffff81111561340a57600080fd5b61341685828601612dcc565b925050602083013567ffffffffffffffff81111561343357600080fd5b61343f85828601612dcc565b9150509250929050565b60006020828403121561345b57600080fd5b600061346984828501612df6565b91505092915050565b600061347e838361353a565b905092915050565b600061349283836138d0565b60208301905092915050565b60006134aa83836138ee565b60208301905092915050565b6134bf81613fdc565b82525050565b60006134d082613ed5565b6134da8185613f1b565b9350836020820285016134ec85613eb5565b8060005b8581101561352857848403895281516135098582613472565b945061351483613f01565b925060208a019950506001810190506134f0565b50829750879550505050505092915050565b600061354582613ee0565b61354f8185613f2c565b935061355a83613ec5565b8060005b8381101561358b5781516135728882613486565b975061357d83613f0e565b92505060018101905061355e565b5085935050505092915050565b60006135a382613ee0565b6135ad8185613f3d565b93506135b883613ec5565b8060005b838110156135e95781516135d08882613486565b97506135db83613f0e565b9250506001810190506135bc565b5085935050505092915050565b600061360182613ee0565b61360b8185613f4e565b935061361683613ec5565b8060005b8381101561364757815161362e888261349e565b975061363983613f0e565b92505060018101905061361a565b5085935050505092915050565b61365d81613fee565b82525050565b61366c81613ffa565b82525050565b61368361367e82613ffa565b614155565b82525050565b600061369482613eeb565b61369e8185613f59565b93506136ae818560208601614076565b6136b78161420e565b840191505092915050565b60006136cd82613ef6565b6136d78185613f6a565b93506136e7818560208601614076565b6136f08161420e565b840191505092915050565b600061370682613ef6565b6137108185613f7b565b9350613720818560208601614076565b80840191505092915050565b6000613739602583613f6a565b91506137448261422c565b604082019050919050565b600061375c600283613f7b565b91506137678261427b565b600282019050919050565b600061377f602483613f6a565b915061378a826142a4565b604082019050919050565b60006137a2602883613f6a565b91506137ad826142f3565b604082019050919050565b60006137c5601f83613f6a565b91506137d082614342565b602082019050919050565b60006137e8602383613f6a565b91506137f38261436b565b604082019050919050565b600061380b603483613f6a565b9150613816826143ba565b604082019050919050565b600061382e602b83613f6a565b915061383982614409565b604082019050919050565b6000613851603283613f6a565b915061385c82614458565b604082019050919050565b6000613874602883613f6a565b915061387f826144a7565b604082019050919050565b6000613897602483613f6a565b91506138a2826144f6565b604082019050919050565b60006138ba601883613f6a565b91506138c582614545565b602082019050919050565b6138d981614050565b82525050565b6138e881614050565b82525050565b6138f781614050565b82525050565b6139068161405a565b82525050565b600061391882846135f6565b915081905092915050565b600061392f82846136fb565b915081905092915050565b60006139458261374f565b91506139518285613672565b6020820191506139618284613672565b6020820191508190509392505050565b600060808201905061398660008301876134b6565b81810360208301526139988186613598565b905081810360408301526139ac8185613598565b905081810360608301526139c08184613689565b905095945050505050565b60006080820190506139e060008301876134b6565b6139ed60208301866138df565b6139fa60408301856138df565b8181036060830152613a0c8184613689565b905095945050505050565b60006020820190508181036000830152613a3181846134c5565b905092915050565b60006020820190508181036000830152613a538184613598565b905092915050565b60006040820190508181036000830152613a758185613598565b90508181036020830152613a898184613598565b90509392505050565b6000602082019050613aa76000830184613654565b92915050565b6000602082019050613ac26000830184613663565b92915050565b6000608082019050613add6000830187613663565b613aea60208301866134b6565b613af76040830185613663565b613b046060830184613663565b95945050505050565b6000608082019050613b226000830187613663565b613b2f60208301866134b6565b613b3c60408301856138df565b613b4960608301846138df565b95945050505050565b6000606082019050613b676000830186613663565b613b746020830185613663565b613b8160408301846138fd565b949350505050565b60006020820190508181036000830152613ba381846136c2565b905092915050565b60006020820190508181036000830152613bc48161372c565b9050919050565b60006020820190508181036000830152613be481613772565b9050919050565b60006020820190508181036000830152613c0481613795565b9050919050565b60006020820190508181036000830152613c24816137b8565b9050919050565b60006020820190508181036000830152613c44816137db565b9050919050565b60006020820190508181036000830152613c64816137fe565b9050919050565b60006020820190508181036000830152613c8481613821565b9050919050565b60006020820190508181036000830152613ca481613844565b9050919050565b60006020820190508181036000830152613cc481613867565b9050919050565b60006020820190508181036000830152613ce48161388a565b9050919050565b60006020820190508181036000830152613d04816138ad565b9050919050565b6000602082019050613d2060008301846138df565b92915050565b6000613d30613d41565b9050613d3c82826140db565b919050565b6000604051905090565b600067ffffffffffffffff821115613d6657613d656141bd565b5b602082029050602081019050919050565b600067ffffffffffffffff821115613d9257613d916141bd565b5b602082029050602081019050919050565b600067ffffffffffffffff821115613dbe57613dbd6141bd565b5b602082029050602081019050919050565b600067ffffffffffffffff821115613dea57613de96141bd565b5b602082029050602081019050919050565b600067ffffffffffffffff821115613e1657613e156141bd565b5b602082029050602081019050919050565b600067ffffffffffffffff821115613e4257613e416141bd565b5b602082029050602081019050919050565b600067ffffffffffffffff821115613e6e57613e6d6141bd565b5b613e778261420e565b9050602081019050919050565b600067ffffffffffffffff821115613e9f57613e9e6141bd565b5b613ea88261420e565b9050602081019050919050565b6000819050602082019050919050565b6000819050602082019050919050565b600081519050919050565b600081519050919050565b600081519050919050565b600081519050919050565b6000602082019050919050565b6000602082019050919050565b600082825260208201905092915050565b600082825260208201905092915050565b600082825260208201905092915050565b600081905092915050565b600082825260208201905092915050565b600082825260208201905092915050565b600081905092915050565b6000613f9182614050565b9150613f9c83614050565b9250827fffffffffffffffffffffffffffffffffffffffffffffffffffffffffffffffff03821115613fd157613fd061415f565b5b828201905092915050565b6000613fe782614030565b9050919050565b60008115159050919050565b6000819050919050565b60007fffffffff0000000000000000000000000000000000000000000000000000000082169050919050565b600073ffffffffffffffffffffffffffffffffffffffff82169050919050565b6000819050919050565b600060ff82169050919050565b82818337600083830152505050565b60005b83811015614094578082015181840152602081019050614079565b838111156140a3576000848401525b50505050565b600060028204905060018216806140c157607f821691505b602082108114156140d5576140d461418e565b5b50919050565b6140e48261420e565b810181811067ffffffffffffffff82111715614103576141026141bd565b5b80604052505050565b600061411782614050565b91507fffffffffffffffffffffffffffffffffffffffffffffffffffffffffffffffff82141561414a5761414961415f565b5b600182019050919050565b6000819050919050565b7f4e487b7100000000000000000000000000000000000000000000000000000000600052601160045260246000fd5b7f4e487b7100000000000000000000000000000000000000000000000000000000600052602260045260246000fd5b7f4e487b7100000000000000000000000000000000000000000000000000000000600052604160045260246000fd5b600060033d111561420b5760046000803e61420860005161421f565b90505b90565b6000601f19601f8301169050919050565b60008160e01c9050919050565b7f556e617574686f72697a65643a2073656e646572206973206e6f74207468652060008201527f6f776e6572000000000000000000000000000000000000000000000000000000602082015250565b7f1901000000000000000000000000000000000000000000000000000000000000600082015250565b7f455243313233383a206275726e20616d6f756e7420657863656564732062616c60008201527f616e636500000000000000000000000000000000000000000000000000000000602082015250565b7f455243313233383a204552433132333852656365697665722072656a6563746560008201527f6420746f6b656e73000000000000000000000000000000000000000000000000602082015250565b7f496e76616c6964206164647265737320666f7220636f6e7472696275746f7200600082015250565b7f455243313233383a206275726e2066726f6d20746865207a65726f206164647260008201527f6573730000000000000000000000000000000000000000000000000000000000602082015250565b7f455243313233383a207472616e7366657220746f206e6f6e204552433132333860008201527f526563656976657220696d706c656d656e746572000000000000000000000000602082015250565b7f455243313233383a2062616c616e636520717565727920666f7220746865207a60008201527f65726f2061646472657373000000000000000000000000000000000000000000602082015250565b7f4552433132333853746f726167653a2069647320616e6420746f6b656e20555260008201527f4973206c656e677468206d69736d617463680000000000000000000000000000602082015250565b7f455243313233383a2069647320616e6420616d6f756e7473206c656e6774682060008201527f6d69736d61746368000000000000000000000000000000000000000000000000602082015250565b7f455243313233383a20526563697069656e74206973206e6f74206120636f6e7460008201527f7261637400000000000000000000000000000000000000000000000000000000602082015250565b7f696e76616c6964207369676e6174757265206c656e6774680000000000000000600082015250565b600060443d101561457e57614601565b614586613d41565b60043d036004823e80513d602482011167ffffffffffffffff821117156145ae575050614601565b808201805167ffffffffffffffff8111156145cc5750505050614601565b80602083010160043d0385018111156145e9575050505050614601565b6145f8826020018501866140db565b82955050505050505b90565b61460d81613fdc565b811461461857600080fd5b50565b61462481613fee565b811461462f57600080fd5b50565b61463b81613ffa565b811461464657600080fd5b50565b61465281614004565b811461465d57600080fd5b50565b61466981614050565b811461467457600080fd5b50565b6146808161405a565b811461468b57600080fd5b5056fea264697066735822122064e5a491b71128e1403a396ee840fb960dc1e8a941a0fe277cde70b19af6a4c264736f6c63430008040033",
  "linkReferences": {},
  "deployedLinkReferences": {}
}