{
  "_format": "hh-sol-artifact-1",
  "contractName": "ONERep",
  "sourceName": "contracts/ONERep.sol",
  "abi": [
    {
      "inputs": [
        {
          "internalType": "address",
          "name": "owner_",
          "type": "address"
        },
        {
          "internalType": "string",
          "name": "baseURI_",
          "type": "string"
        }
      ],
      "stateMutability": "nonpayable",
      "type": "constructor"
    },
    {
      "anonymous": false,
      "inputs": [
        {
          "indexed": true,
          "internalType": "address",
          "name": "burner",
          "type": "address"
        },
        {
          "indexed": true,
          "internalType": "address",
          "name": "owner",
          "type": "address"
        },
        {
          "indexed": false,
          "internalType": "uint256[]",
          "name": "ids",
          "type": "uint256[]"
        },
        {
          "indexed": false,
          "internalType": "uint256[]",
          "name": "amounts",
          "type": "uint256[]"
        }
      ],
      "name": "BurnBatch",
      "type": "event"
    },
    {
      "anonymous": false,
      "inputs": [
        {
          "indexed": true,
          "internalType": "address",
          "name": "burner",
          "type": "address"
        },
        {
          "indexed": true,
          "internalType": "address",
          "name": "owner",
          "type": "address"
        },
        {
          "indexed": true,
          "internalType": "uint256",
          "name": "id",
          "type": "uint256"
        },
        {
          "indexed": false,
          "internalType": "uint256",
          "name": "amount",
          "type": "uint256"
        }
      ],
      "name": "BurnSingle",
      "type": "event"
    },
    {
      "anonymous": false,
      "inputs": [
        {
          "indexed": false,
          "internalType": "string",
          "name": "name",
          "type": "string"
        },
        {
          "indexed": false,
          "internalType": "string",
          "name": "version",
          "type": "string"
        },
        {
          "indexed": false,
          "internalType": "uint256",
          "name": "chainId",
          "type": "uint256"
        },
        {
          "indexed": false,
          "internalType": "address",
          "name": "verifyingContract",
          "type": "address"
        },
        {
          "indexed": false,
          "internalType": "bytes32",
          "name": "dsDigest",
          "type": "bytes32"
        }
      ],
      "name": "DomainSeparatorForMintApproval",
      "type": "event"
    },
    {
      "anonymous": false,
      "inputs": [
        {
          "indexed": true,
          "internalType": "address",
          "name": "minter",
          "type": "address"
        },
        {
          "indexed": true,
          "internalType": "address",
          "name": "to",
          "type": "address"
        },
        {
          "indexed": false,
          "internalType": "uint256[]",
          "name": "ids",
          "type": "uint256[]"
        },
        {
          "indexed": false,
          "internalType": "uint256[]",
          "name": "amounts",
          "type": "uint256[]"
        }
      ],
      "name": "MintBatch",
      "type": "event"
    },
    {
      "anonymous": false,
      "inputs": [
        {
          "indexed": true,
          "internalType": "address",
          "name": "minter",
          "type": "address"
        },
        {
          "indexed": true,
          "internalType": "address",
          "name": "to",
          "type": "address"
        },
        {
          "indexed": true,
          "internalType": "uint256",
          "name": "id",
          "type": "uint256"
        },
        {
          "indexed": false,
          "internalType": "uint256",
          "name": "amount",
          "type": "uint256"
        }
      ],
      "name": "MintSingle",
      "type": "event"
    },
    {
      "anonymous": false,
      "inputs": [
        {
          "indexed": true,
          "internalType": "uint256",
          "name": "id",
          "type": "uint256"
        },
        {
          "indexed": false,
          "internalType": "string",
          "name": "value",
          "type": "string"
        }
      ],
      "name": "URI",
      "type": "event"
    },
    {
      "inputs": [],
      "name": "DOMAIN_SEPARATOR",
      "outputs": [
        {
          "internalType": "bytes32",
          "name": "",
          "type": "bytes32"
        }
      ],
      "stateMutability": "view",
      "type": "function"
    },
    {
      "inputs": [
        {
          "internalType": "address",
          "name": "account",
          "type": "address"
        },
        {
          "internalType": "uint256",
          "name": "id",
          "type": "uint256"
        }
      ],
      "name": "_balanceOf",
      "outputs": [
        {
          "internalType": "uint256",
          "name": "",
          "type": "uint256"
        }
      ],
      "stateMutability": "view",
      "type": "function"
    },
    {
      "inputs": [
        {
          "internalType": "address",
          "name": "account",
          "type": "address"
        }
      ],
      "name": "balanceOf",
      "outputs": [
        {
          "internalType": "uint256",
          "name": "",
          "type": "uint256"
        }
      ],
      "stateMutability": "view",
      "type": "function"
    },
    {
      "inputs": [
        {
          "internalType": "address",
          "name": "account",
          "type": "address"
        },
        {
          "internalType": "uint256[]",
          "name": "ids",
          "type": "uint256[]"
        }
      ],
      "name": "balanceOfBatch",
      "outputs": [
        {
          "internalType": "uint256[]",
          "name": "",
          "type": "uint256[]"
        }
      ],
      "stateMutability": "view",
      "type": "function"
    },
    {
      "inputs": [
        {
          "internalType": "address[]",
          "name": "accounts",
          "type": "address[]"
        },
        {
          "internalType": "uint256[][]",
          "name": "ids",
          "type": "uint256[][]"
        }
      ],
      "name": "balanceOfBundle",
      "outputs": [
        {
          "internalType": "uint256[][]",
          "name": "",
          "type": "uint256[][]"
        }
      ],
      "stateMutability": "view",
      "type": "function"
    },
    {
      "inputs": [
        {
          "internalType": "address",
          "name": "from",
          "type": "address"
        },
        {
          "internalType": "uint256",
          "name": "id",
          "type": "uint256"
        },
        {
          "internalType": "uint256",
          "name": "amount",
          "type": "uint256"
        },
        {
          "internalType": "bool",
          "name": "deleteURI",
          "type": "bool"
        }
      ],
      "name": "burn",
      "outputs": [],
      "stateMutability": "nonpayable",
      "type": "function"
    },
    {
      "inputs": [
        {
          "internalType": "address",
          "name": "from",
          "type": "address"
        },
        {
          "internalType": "uint256[]",
          "name": "ids",
          "type": "uint256[]"
        },
        {
          "internalType": "uint256[]",
          "name": "amounts",
          "type": "uint256[]"
        },
        {
          "internalType": "bool",
          "name": "deleteURI",
          "type": "bool"
        }
      ],
      "name": "burnBatch",
      "outputs": [],
      "stateMutability": "nonpayable",
      "type": "function"
    },
    {
      "inputs": [
        {
          "internalType": "address[]",
          "name": "to",
          "type": "address[]"
        },
        {
          "internalType": "uint256[][]",
          "name": "ids",
          "type": "uint256[][]"
        },
        {
          "internalType": "uint256[][]",
          "name": "amounts",
          "type": "uint256[][]"
        },
        {
          "internalType": "string[][]",
          "name": "uris",
          "type": "string[][]"
        },
        {
          "internalType": "bytes[]",
          "name": "data",
          "type": "bytes[]"
        }
      ],
      "name": "mintBundle",
      "outputs": [],
      "stateMutability": "nonpayable",
      "type": "function"
    },
    {
      "inputs": [
        {
          "internalType": "address",
          "name": "to",
          "type": "address"
        },
        {
          "internalType": "uint256",
          "name": "id",
          "type": "uint256"
        },
        {
          "internalType": "uint256",
          "name": "amount",
          "type": "uint256"
        },
        {
          "internalType": "string",
          "name": "uri",
          "type": "string"
        },
        {
          "internalType": "bytes",
          "name": "data",
          "type": "bytes"
        }
      ],
      "name": "mintToContract",
      "outputs": [],
      "stateMutability": "nonpayable",
      "type": "function"
    },
    {
      "inputs": [
        {
          "internalType": "address",
          "name": "to",
          "type": "address"
        },
        {
          "internalType": "uint256",
          "name": "amount",
          "type": "uint256"
        },
        {
          "internalType": "string",
          "name": "uri",
          "type": "string"
        },
        {
          "internalType": "bytes",
          "name": "data",
          "type": "bytes"
        }
      ],
      "name": "mintToContract",
      "outputs": [],
      "stateMutability": "nonpayable",
      "type": "function"
    },
    {
      "inputs": [
        {
          "internalType": "address",
          "name": "to",
          "type": "address"
        },
        {
          "internalType": "uint256",
          "name": "amount",
          "type": "uint256"
        },
        {
          "internalType": "uint8",
          "name": "v",
          "type": "uint8"
        },
        {
          "internalType": "bytes32",
          "name": "r",
          "type": "bytes32"
        },
        {
          "internalType": "bytes32",
          "name": "s",
          "type": "bytes32"
        },
        {
          "internalType": "string",
          "name": "uri",
          "type": "string"
        },
        {
          "internalType": "bytes",
          "name": "data",
          "type": "bytes"
        }
      ],
      "name": "mintToEOA",
      "outputs": [],
      "stateMutability": "nonpayable",
      "type": "function"
    },
    {
      "inputs": [],
      "name": "owner",
      "outputs": [
        {
          "internalType": "address",
          "name": "",
          "type": "address"
        }
      ],
      "stateMutability": "view",
      "type": "function"
    },
    {
      "inputs": [
        {
          "internalType": "string",
          "name": "newBaseURI",
          "type": "string"
        }
      ],
      "name": "setBaseURI",
      "outputs": [],
      "stateMutability": "nonpayable",
      "type": "function"
    },
    {
      "inputs": [
        {
          "internalType": "address",
          "name": "newOwner",
          "type": "address"
        }
      ],
      "name": "setOwner",
      "outputs": [],
      "stateMutability": "nonpayable",
      "type": "function"
    },
    {
      "inputs": [
        {
          "internalType": "bytes",
          "name": "sig",
          "type": "bytes"
        }
      ],
      "name": "splitSignature",
      "outputs": [
        {
          "internalType": "bytes32",
          "name": "r",
          "type": "bytes32"
        },
        {
          "internalType": "bytes32",
          "name": "s",
          "type": "bytes32"
        },
        {
          "internalType": "uint8",
          "name": "v",
          "type": "uint8"
        }
      ],
      "stateMutability": "pure",
      "type": "function"
    },
    {
      "inputs": [
        {
          "internalType": "uint256",
          "name": "id",
          "type": "uint256"
        }
      ],
      "name": "tokenURI",
      "outputs": [
        {
          "internalType": "string",
          "name": "",
          "type": "string"
        }
      ],
      "stateMutability": "view",
      "type": "function"
    }
  ],
  "bytecode": "0x60806040523480156200001157600080fd5b5060405162004b3338038062004b33833981810160405281019062000037919062000356565b80600060405180608001604052806040518060400160405280601581526020017f45524331323338204d696e7420417070726f76616c000000000000000000000081525081526020016040518060400160405280600181526020017f310000000000000000000000000000000000000000000000000000000000000081525081526020014681526020013073ffffffffffffffffffffffffffffffffffffffff1681525090507f8b73c3c69bb8fe3d512ecc4cf759cc79239f7b179b0ffacaa9a75d522b39400f816000015180519060200120826020015180519060200120836040015184606001516040516020016200013695949392919062000424565b604051602081830303815290604052805190602001206000819055507fe5a822f101a714d5cd94a04cf067a84a2ddb69b5326b93008a040df8a74a387281600001518260200151836040015184606001516000546040516200019d95949392919062000481565b60405180910390a150620001b7816200020160201b60201c565b5081600460006101000a81548173ffffffffffffffffffffffffffffffffffffffff021916908373ffffffffffffffffffffffffffffffffffffffff1602179055505050620006da565b8060029080519060200190620002199291906200021d565b5050565b8280546200022b90620005e5565b90600052602060002090601f0160209004810192826200024f57600085556200029b565b82601f106200026a57805160ff19168380011785556200029b565b828001600101855582156200029b579182015b828111156200029a5782518255916020019190600101906200027d565b5b509050620002aa9190620002ae565b5090565b5b80821115620002c9576000816000905550600101620002af565b5090565b6000620002e4620002de8462000515565b620004ec565b905082815260208101848484011115620002fd57600080fd5b6200030a848285620005af565b509392505050565b6000815190506200032381620006c0565b92915050565b600082601f8301126200033b57600080fd5b81516200034d848260208601620002cd565b91505092915050565b600080604083850312156200036a57600080fd5b60006200037a8582860162000312565b925050602083015167ffffffffffffffff8111156200039857600080fd5b620003a68582860162000329565b9150509250929050565b620003bb8162000567565b82525050565b620003cc816200057b565b82525050565b6000620003df826200054b565b620003eb818562000556565b9350620003fd818560208601620005af565b6200040881620006af565b840191505092915050565b6200041e81620005a5565b82525050565b600060a0820190506200043b6000830188620003c1565b6200044a6020830187620003c1565b620004596040830186620003c1565b62000468606083018562000413565b620004776080830184620003b0565b9695505050505050565b600060a08201905081810360008301526200049d8188620003d2565b90508181036020830152620004b38187620003d2565b9050620004c4604083018662000413565b620004d36060830185620003b0565b620004e26080830184620003c1565b9695505050505050565b6000620004f86200050b565b90506200050682826200061b565b919050565b6000604051905090565b600067ffffffffffffffff82111562000533576200053262000680565b5b6200053e82620006af565b9050602081019050919050565b600081519050919050565b600082825260208201905092915050565b6000620005748262000585565b9050919050565b6000819050919050565b600073ffffffffffffffffffffffffffffffffffffffff82169050919050565b6000819050919050565b60005b83811015620005cf578082015181840152602081019050620005b2565b83811115620005df576000848401525b50505050565b60006002820490506001821680620005fe57607f821691505b6020821081141562000615576200061462000651565b5b50919050565b6200062682620006af565b810181811067ffffffffffffffff8211171562000648576200064762000680565b5b80604052505050565b7f4e487b7100000000000000000000000000000000000000000000000000000000600052602260045260246000fd5b7f4e487b7100000000000000000000000000000000000000000000000000000000600052604160045260246000fd5b6000601f19601f8301169050919050565b620006cb8162000567565b8114620006d757600080fd5b50565b61444980620006ea6000396000f3fe608060405234801561001057600080fd5b50600436106101005760003560e01c8063815a7c7011610097578063a7bb580311610066578063a7bb580314610281578063afd69086146102b3578063c87b56dd146102e3578063dbee15241461031357610100565b8063815a7c701461020f5780638af702a11461022b5780638da5cb5b146102475780639c5470351461026557610100565b806344893bf3116100d357806344893bf31461017757806355f804b31461019357806370a08231146101af578063787d2f30146101df57610100565b806313af40351461010557806331126dd1146101215780633644e5151461013d5780633ebce34a1461015b575b600080fd5b61011f600480360381019061011a9190612c68565b610343565b005b61013b60048036038101906101369190612e47565b610487565b005b61014561053f565b6040516101529190613832565b60405180910390f35b61017560048036038101906101709190612eaa565b610545565b005b610191600480360381019061018c9190612ce5565b6105f2565b005b6101ad60048036038101906101a891906131e4565b6106aa565b005b6101c960048036038101906101c49190612c68565b610746565b6040516101d69190613a90565b60405180910390f35b6101f960048036038101906101f49190612d78565b610810565b6040516102069190613a90565b60405180910390f35b61022960048036038101906102249190612f51565b6108da565b005b6102456004803603810190610240919061308b565b61098e565b005b61024f610dab565b60405161025c91906136f6565b60405180910390f35b61027f600480360381019061027a9190612db4565b610dd1565b005b61029b600480360381019061029691906131a3565b610e7f565b6040516102aa939291906138d7565b60405180910390f35b6102cd60048036038101906102c89190612c91565b610ee7565b6040516102da91906137d9565b60405180910390f35b6102fd60048036038101906102f89190613225565b61101a565b60405161030a919061390e565b60405180910390f35b61032d6004803603810190610328919061301f565b6110ea565b60405161033a91906137b7565b60405180910390f35b600460009054906101000a900473ffffffffffffffffffffffffffffffffffffffff1673ffffffffffffffffffffffffffffffffffffffff163373ffffffffffffffffffffffffffffffffffffffff16146103d3576040517f08c379a00000000000000000000000000000000000000000000000000000000081526004016103ca90613950565b60405180910390fd5b600073ffffffffffffffffffffffffffffffffffffffff168173ffffffffffffffffffffffffffffffffffffffff161415610443576040517f08c379a000000000000000000000000000000000000000000000000000000000815260040161043a90613930565b60405180910390fd5b80600460006101000a81548173ffffffffffffffffffffffffffffffffffffffff021916908373ffffffffffffffffffffffffffffffffffffffff16021790555050565b600460009054906101000a900473ffffffffffffffffffffffffffffffffffffffff1673ffffffffffffffffffffffffffffffffffffffff163373ffffffffffffffffffffffffffffffffffffffff1614610517576040517f08c379a000000000000000000000000000000000000000000000000000000000815260040161050e90613950565b60405180910390fd5b801561052d57610528848484611261565b610539565b61053884848461127a565b5b50505050565b60005481565b600460009054906101000a900473ffffffffffffffffffffffffffffffffffffffff1673ffffffffffffffffffffffffffffffffffffffff163373ffffffffffffffffffffffffffffffffffffffff16146105d5576040517f08c379a00000000000000000000000000000000000000000000000000000000081526004016105cc90613950565b60405180910390fd5b6105e185858584611457565b6105eb84836114d4565b5050505050565b600460009054906101000a900473ffffffffffffffffffffffffffffffffffffffff1673ffffffffffffffffffffffffffffffffffffffff163373ffffffffffffffffffffffffffffffffffffffff1614610682576040517f08c379a000000000000000000000000000000000000000000000000000000000815260040161067990613950565b60405180910390fd5b801561069857610693848484611538565b6106a4565b6106a384848461180f565b5b50505050565b600460009054906101000a900473ffffffffffffffffffffffffffffffffffffffff1673ffffffffffffffffffffffffffffffffffffffff163373ffffffffffffffffffffffffffffffffffffffff161461073a576040517f08c379a000000000000000000000000000000000000000000000000000000000815260040161073190613950565b60405180910390fd5b61074381611add565b50565b60008073ffffffffffffffffffffffffffffffffffffffff168273ffffffffffffffffffffffffffffffffffffffff1614156107b7576040517f08c379a00000000000000000000000000000000000000000000000000000000081526004016107ae906139f0565b60405180910390fd5b600160006001815260200190815260200160002060008373ffffffffffffffffffffffffffffffffffffffff1673ffffffffffffffffffffffffffffffffffffffff168152602001908152602001600020549050919050565b60008073ffffffffffffffffffffffffffffffffffffffff168373ffffffffffffffffffffffffffffffffffffffff161415610881576040517f08c379a0000000000000000000000000000000000000000000000000000000008152600401610878906139f0565b60405180910390fd5b6001600083815260200190815260200160002060008473ffffffffffffffffffffffffffffffffffffffff1673ffffffffffffffffffffffffffffffffffffffff16815260200190815260200160002054905092915050565b600460009054906101000a900473ffffffffffffffffffffffffffffffffffffffff1673ffffffffffffffffffffffffffffffffffffffff163373ffffffffffffffffffffffffffffffffffffffff161461096a576040517f08c379a000000000000000000000000000000000000000000000000000000000815260040161096190613950565b60405180910390fd5b61097a8760018888888887611af7565b6109856001836114d4565b50505050505050565b600460009054906101000a900473ffffffffffffffffffffffffffffffffffffffff1673ffffffffffffffffffffffffffffffffffffffff163373ffffffffffffffffffffffffffffffffffffffff1614610a1e576040517f08c379a0000000000000000000000000000000000000000000000000000000008152600401610a1590613950565b60405180910390fd5b60005b8551811015610da357610ab4858281518110610a66577f4e487b7100000000000000000000000000000000000000000000000000000000600052603260045260246000fd5b6020026020010151848381518110610aa7577f4e487b7100000000000000000000000000000000000000000000000000000000600052603260045260246000fd5b6020026020010151611b29565b610b13868281518110610af0577f4e487b7100000000000000000000000000000000000000000000000000000000600052603260045260246000fd5b602002602001015173ffffffffffffffffffffffffffffffffffffffff16611c1b565b15610c2957610c24868281518110610b54577f4e487b7100000000000000000000000000000000000000000000000000000000600052603260045260246000fd5b6020026020010151868381518110610b95577f4e487b7100000000000000000000000000000000000000000000000000000000600052603260045260246000fd5b6020026020010151868481518110610bd6577f4e487b7100000000000000000000000000000000000000000000000000000000600052603260045260246000fd5b6020026020010151858581518110610c17577f4e487b7100000000000000000000000000000000000000000000000000000000600052603260045260246000fd5b6020026020010151611c3e565b610d90565b6000806000610c77858581518110610c6a577f4e487b7100000000000000000000000000000000000000000000000000000000600052603260045260246000fd5b6020026020010151610e7f565b925092509250610d8c898581518110610cb9577f4e487b7100000000000000000000000000000000000000000000000000000000600052603260045260246000fd5b6020026020010151898681518110610cfa577f4e487b7100000000000000000000000000000000000000000000000000000000600052603260045260246000fd5b6020026020010151898781518110610d3b577f4e487b7100000000000000000000000000000000000000000000000000000000600052603260045260246000fd5b60200260200101518487878b8b81518110610d7f577f4e487b7100000000000000000000000000000000000000000000000000000000600052603260045260246000fd5b6020026020010151611cbb565b5050505b8080610d9b90613e91565b915050610a21565b505050505050565b600460009054906101000a900473ffffffffffffffffffffffffffffffffffffffff1681565b600460009054906101000a900473ffffffffffffffffffffffffffffffffffffffff1673ffffffffffffffffffffffffffffffffffffffff163373ffffffffffffffffffffffffffffffffffffffff1614610e61576040517f08c379a0000000000000000000000000000000000000000000000000000000008152600401610e5890613950565b60405180910390fd5b610e6e8460018584611457565b610e796001836114d4565b50505050565b60008060006041845114610ec8576040517f08c379a0000000000000000000000000000000000000000000000000000000008152600401610ebf90613a70565b60405180910390fd5b6020840151925060408401519150606084015160001a90509193909250565b60606000825167ffffffffffffffff811115610f2c577f4e487b7100000000000000000000000000000000000000000000000000000000600052604160045260246000fd5b604051908082528060200260200182016040528015610f5a5781602001602082028036833780820191505090505b50905060008351905060005b8181101561100e57610fb886868381518110610fab577f4e487b7100000000000000000000000000000000000000000000000000000000600052603260045260246000fd5b6020026020010151610810565b838281518110610ff1577f4e487b7100000000000000000000000000000000000000000000000000000000600052603260045260246000fd5b6020026020010181815250508061100790613e91565b9050610f66565b50819250505092915050565b6060600060036000848152602001908152602001600020805461103c90613e2e565b80601f016020809104026020016040519081016040528092919081815260200182805461106890613e2e565b80156110b55780601f1061108a576101008083540402835291602001916110b5565b820191906000526020600020905b81548152906001019060200180831161109857829003601f168201915b505050505090506110c583611ced565b156110d357809150506110e5565b60006110dd611d18565b905080925050505b919050565b60606000835167ffffffffffffffff81111561112f577f4e487b7100000000000000000000000000000000000000000000000000000000600052604160045260246000fd5b60405190808252806020026020018201604052801561116257816020015b606081526020019060019003908161114d5790505b50905060008451905060005b81811015611255576112008682815181106111b2577f4e487b7100000000000000000000000000000000000000000000000000000000600052603260045260246000fd5b60200260200101518683815181106111f3577f4e487b7100000000000000000000000000000000000000000000000000000000600052603260045260246000fd5b6020026020010151610ee7565b838281518110611239577f4e487b7100000000000000000000000000000000000000000000000000000000600052603260045260246000fd5b60200260200101819052508061124e90613e91565b905061116e565b50819250505092915050565b61126c83838361127a565b61127582611daa565b505050565b600073ffffffffffffffffffffffffffffffffffffffff168373ffffffffffffffffffffffffffffffffffffffff1614156112ea576040517f08c379a00000000000000000000000000000000000000000000000000000000081526004016112e1906139b0565b60405180910390fd5b60003390506112fb81858585611ddb565b60006001600085815260200190815260200160002060008673ffffffffffffffffffffffffffffffffffffffff1673ffffffffffffffffffffffffffffffffffffffff16815260200190815260200160002054905082811015611393576040517f08c379a000000000000000000000000000000000000000000000000000000000815260040161138a90613970565b60405180910390fd5b8281036001600086815260200190815260200160002060008773ffffffffffffffffffffffffffffffffffffffff1673ffffffffffffffffffffffffffffffffffffffff16815260200190815260200160002081905550838573ffffffffffffffffffffffffffffffffffffffff168373ffffffffffffffffffffffffffffffffffffffff167f995c922928fc04a31c6446db7f51f402ddb95ac41fa3dca51c98ff1fe7300531866040516114489190613a90565b60405180910390a45050505050565b6114768473ffffffffffffffffffffffffffffffffffffffff16611c1b565b6114b5576040517f08c379a00000000000000000000000000000000000000000000000000000000081526004016114ac90613a50565b60405180910390fd5b6114c184848484611de1565b6114ce3385858585611ec7565b50505050565b806003600084815260200190815260200160002090805190602001906114fb92919061264b565b50817f369737eac2f50072db0001f8a5c3f225ab50d5ab38d8cbdbabf885abf2ab722a8260405161152c919061390e565b60405180910390a25050565b600073ffffffffffffffffffffffffffffffffffffffff168373ffffffffffffffffffffffffffffffffffffffff1614156115a8576040517f08c379a000000000000000000000000000000000000000000000000000000000815260040161159f906139b0565b60405180910390fd5b80518251146115ec576040517f08c379a00000000000000000000000000000000000000000000000000000000081526004016115e390613a30565b60405180910390fd5b600033905060005b83518110156117a1576000848281518110611638577f4e487b7100000000000000000000000000000000000000000000000000000000600052603260045260246000fd5b60200260200101519050600084838151811061167d577f4e487b7100000000000000000000000000000000000000000000000000000000600052603260045260246000fd5b6020026020010151905061169384888484611ddb565b60006001600084815260200190815260200160002060008973ffffffffffffffffffffffffffffffffffffffff1673ffffffffffffffffffffffffffffffffffffffff1681526020019081526020016000205490508181101561172b576040517f08c379a000000000000000000000000000000000000000000000000000000000815260040161172290613970565b60405180910390fd5b8181036001600085815260200190815260200160002060008a73ffffffffffffffffffffffffffffffffffffffff1673ffffffffffffffffffffffffffffffffffffffff1681526020019081526020016000208190555061178b83611daa565b505050808061179990613e91565b9150506115f4565b508373ffffffffffffffffffffffffffffffffffffffff168173ffffffffffffffffffffffffffffffffffffffff167ff6d51a8d20e8b0143ca41399aa93b2a480cb0b95e39847e4ebd3144b2db8775d85856040516118019291906137fb565b60405180910390a350505050565b600073ffffffffffffffffffffffffffffffffffffffff168373ffffffffffffffffffffffffffffffffffffffff16141561187f576040517f08c379a0000000000000000000000000000000000000000000000000000000008152600401611876906139b0565b60405180910390fd5b80518251146118c3576040517f08c379a00000000000000000000000000000000000000000000000000000000081526004016118ba90613a30565b60405180910390fd5b600033905060005b8351811015611a6f57600084828151811061190f577f4e487b7100000000000000000000000000000000000000000000000000000000600052603260045260246000fd5b602002602001015190506000848381518110611954577f4e487b7100000000000000000000000000000000000000000000000000000000600052603260045260246000fd5b6020026020010151905061196a84888484611ddb565b60006001600084815260200190815260200160002060008973ffffffffffffffffffffffffffffffffffffffff1673ffffffffffffffffffffffffffffffffffffffff16815260200190815260200160002054905081811015611a02576040517f08c379a00000000000000000000000000000000000000000000000000000000081526004016119f990613970565b60405180910390fd5b8181036001600085815260200190815260200160002060008a73ffffffffffffffffffffffffffffffffffffffff1673ffffffffffffffffffffffffffffffffffffffff168152602001908152602001600020819055505050508080611a6790613e91565b9150506118cb565b508373ffffffffffffffffffffffffffffffffffffffff168173ffffffffffffffffffffffffffffffffffffffff167ff6d51a8d20e8b0143ca41399aa93b2a480cb0b95e39847e4ebd3144b2db8775d8585604051611acf9291906137fb565b60405180910390a350505050565b8060029080519060200190611af392919061264b565b5050565b6000611b04338888612086565b9050611b13338287878761211f565b611b1f88888885611de1565b5050505050505050565b8051825114611b6d576040517f08c379a0000000000000000000000000000000000000000000000000000000008152600401611b6490613a10565b60405180910390fd5b60005b8251811015611c1657611c03838281518110611bb5577f4e487b7100000000000000000000000000000000000000000000000000000000600052603260045260246000fd5b6020026020010151838381518110611bf6577f4e487b7100000000000000000000000000000000000000000000000000000000600052603260045260246000fd5b60200260200101516114d4565b8080611c0e90613e91565b915050611b70565b505050565b6000808273ffffffffffffffffffffffffffffffffffffffff163b119050919050565b611c5d8473ffffffffffffffffffffffffffffffffffffffff16611c1b565b611c9c576040517f08c379a0000000000000000000000000000000000000000000000000000000008152600401611c9390613a50565b60405180910390fd5b611ca884848484612155565b611cb533858585856123a0565b50505050565b6000611cc888888861255f565b9050611cd7888287878761211f565b611ce388888885612155565b5050505050505050565b600080600360008481526020019081526020016000208054611d0e90613e2e565b9050119050919050565b606060028054611d2790613e2e565b80601f0160208091040260200160405190810160405280929190818152602001828054611d5390613e2e565b8015611da05780601f10611d7557610100808354040283529160200191611da0565b820191906000526020600020905b815481529060010190602001808311611d8357829003601f168201915b5050505050905090565b611db381611ced565b15611dd857600360008281526020019081526020016000206000611dd791906126d1565b5b50565b50505050565b6000339050611df38186868686612644565b826001600086815260200190815260200160002060008773ffffffffffffffffffffffffffffffffffffffff1673ffffffffffffffffffffffffffffffffffffffff1681526020019081526020016000206000828254611e539190613d0b565b92505081905550838573ffffffffffffffffffffffffffffffffffffffff168273ffffffffffffffffffffffffffffffffffffffff167f17facb1ae55b1a0fe54049767ddeb027123cb5d0379a5a1c6f5c954287d88fb386604051611eb89190613a90565b60405180910390a45050505050565b8373ffffffffffffffffffffffffffffffffffffffff166345ed75d5868585856040518563ffffffff1660e01b8152600401611f06949392919061376b565b602060405180830381600087803b158015611f2057600080fd5b505af1925050508015611f5157506040513d601f19601f82011682018060405250810190611f4e919061317a565b60015b611ff757611f5d613f71565b806308c379a01415611fba5750611f726142f3565b80611f7d5750611fbc565b806040517f08c379a0000000000000000000000000000000000000000000000000000000008152600401611fb1919061390e565b60405180910390fd5b505b6040517f08c379a0000000000000000000000000000000000000000000000000000000008152600401611fee906139d0565b60405180910390fd5b6345ed75d560e01b7bffffffffffffffffffffffffffffffffffffffffffffffffffffffff1916817bffffffffffffffffffffffffffffffffffffffffffffffffffffffff19161461207e576040517f08c379a000000000000000000000000000000000000000000000000000000000815260040161207590613990565b60405180910390fd5b505050505050565b60008060405180606001604052808673ffffffffffffffffffffffffffffffffffffffff1681526020018581526020018481525090507f97b28eca24e5080ea4d0af02f80111ea0596b75fdd4228411a50c43abfdd3eed8160000151826020015183604001516040516020016120ff9493929190613892565b604051602081830303815290604052805190602001209150509392505050565b60008054856040516020016121359291906136bf565b604051602081830303815290604052805190602001209050505050505050565b8151835114612199576040517f08c379a000000000000000000000000000000000000000000000000000000000815260040161219090613a30565b60405180910390fd5b600033905060005b84518110156123315761223782878784815181106121e8577f4e487b7100000000000000000000000000000000000000000000000000000000600052603260045260246000fd5b6020026020010151878581518110612229577f4e487b7100000000000000000000000000000000000000000000000000000000600052603260045260246000fd5b602002602001015187612644565b838181518110612270577f4e487b7100000000000000000000000000000000000000000000000000000000600052603260045260246000fd5b6020026020010151600160008784815181106122b5577f4e487b7100000000000000000000000000000000000000000000000000000000600052603260045260246000fd5b6020026020010151815260200190815260200160002060008873ffffffffffffffffffffffffffffffffffffffff1673ffffffffffffffffffffffffffffffffffffffff16815260200190815260200160002060008282546123179190613d0b565b92505081905550808061232990613e91565b9150506121a1565b508473ffffffffffffffffffffffffffffffffffffffff168173ffffffffffffffffffffffffffffffffffffffff167f5c5ac6bfb3f54a39f008d2e9be10d575012f29230716d49e92da377d748b1a8786866040516123919291906137fb565b60405180910390a35050505050565b8373ffffffffffffffffffffffffffffffffffffffff1663c0bfec68868585856040518563ffffffff1660e01b81526004016123df9493929190613711565b602060405180830381600087803b1580156123f957600080fd5b505af192505050801561242a57506040513d601f19601f82011682018060405250810190612427919061317a565b60015b6124d057612436613f71565b806308c379a01415612493575061244b6142f3565b806124565750612495565b806040517f08c379a000000000000000000000000000000000000000000000000000000000815260040161248a919061390e565b60405180910390fd5b505b6040517f08c379a00000000000000000000000000000000000000000000000000000000081526004016124c7906139d0565b60405180910390fd5b63c0bfec6860e01b7bffffffffffffffffffffffffffffffffffffffffffffffffffffffff1916817bffffffffffffffffffffffffffffffffffffffffffffffffffffffff191614612557576040517f08c379a000000000000000000000000000000000000000000000000000000000815260040161254e90613990565b60405180910390fd5b505050505050565b60008060405180606001604052808673ffffffffffffffffffffffffffffffffffffffff1681526020018581526020018481525090507f3766a97e8e4290ccc4e1f96c50729afab6e1e51b341c132ce910495c64b43d0e816000015182602001516040516020016125d091906136a8565b6040516020818303038152906040528051906020012083604001516040516020016125fb91906136a8565b60405160208183030381529060405280519060200120604051602001612624949392919061384d565b604051602081830303815290604052805190602001209150509392505050565b5050505050565b82805461265790613e2e565b90600052602060002090601f01602090048101928261267957600085556126c0565b82601f1061269257805160ff19168380011785556126c0565b828001600101855582156126c0579182015b828111156126bf5782518255916020019190600101906126a4565b5b5090506126cd9190612711565b5090565b5080546126dd90613e2e565b6000825580601f106126ef575061270e565b601f01602090049060005260206000209081019061270d9190612711565b5b50565b5b8082111561272a576000816000905550600101612712565b5090565b600061274161273c84613ad0565b613aab565b9050808382526020820190508285602086028201111561276057600080fd5b60005b8581101561279057816127768882612a9a565b845260208401935060208301925050600181019050612763565b5050509392505050565b60006127ad6127a884613afc565b613aab565b905080838252602082019050828560208602820111156127cc57600080fd5b60005b8581101561281657813567ffffffffffffffff8111156127ee57600080fd5b8086016127fb8982612b57565b855260208501945060208401935050506001810190506127cf565b5050509392505050565b600061283361282e84613b28565b613aab565b9050808382526020820190508285602086028201111561285257600080fd5b60005b8581101561289c57813567ffffffffffffffff81111561287457600080fd5b8086016128818982612b81565b85526020850194506020840193505050600181019050612855565b5050509392505050565b60006128b96128b484613b54565b613aab565b905080838252602082019050828560208602820111156128d857600080fd5b60005b8581101561292257813567ffffffffffffffff8111156128fa57600080fd5b8086016129078982612bea565b855260208501945060208401935050506001810190506128db565b5050509392505050565b600061293f61293a84613b80565b613aab565b9050808382526020820190508285602086028201111561295e57600080fd5b60005b858110156129a857813567ffffffffffffffff81111561298057600080fd5b80860161298d8982612c14565b85526020850194506020840193505050600181019050612961565b5050509392505050565b60006129c56129c084613bac565b613aab565b905080838252602082019050828560208602820111156129e457600080fd5b60005b85811015612a1457816129fa8882612c3e565b8452602084019350602083019250506001810190506129e7565b5050509392505050565b6000612a31612a2c84613bd8565b613aab565b905082815260208101848484011115612a4957600080fd5b612a54848285613dec565b509392505050565b6000612a6f612a6a84613c09565b613aab565b905082815260208101848484011115612a8757600080fd5b612a92848285613dec565b509392505050565b600081359050612aa981614389565b92915050565b600082601f830112612ac057600080fd5b8135612ad084826020860161272e565b91505092915050565b600082601f830112612aea57600080fd5b8135612afa84826020860161279a565b91505092915050565b600082601f830112612b1457600080fd5b8135612b24848260208601612820565b91505092915050565b600082601f830112612b3e57600080fd5b8135612b4e8482602086016128a6565b91505092915050565b600082601f830112612b6857600080fd5b8135612b7884826020860161292c565b91505092915050565b600082601f830112612b9257600080fd5b8135612ba28482602086016129b2565b91505092915050565b600081359050612bba816143a0565b92915050565b600081359050612bcf816143b7565b92915050565b600081519050612be4816143ce565b92915050565b600082601f830112612bfb57600080fd5b8135612c0b848260208601612a1e565b91505092915050565b600082601f830112612c2557600080fd5b8135612c35848260208601612a5c565b91505092915050565b600081359050612c4d816143e5565b92915050565b600081359050612c62816143fc565b92915050565b600060208284031215612c7a57600080fd5b6000612c8884828501612a9a565b91505092915050565b60008060408385031215612ca457600080fd5b6000612cb285828601612a9a565b925050602083013567ffffffffffffffff811115612ccf57600080fd5b612cdb85828601612b81565b9150509250929050565b60008060008060808587031215612cfb57600080fd5b6000612d0987828801612a9a565b945050602085013567ffffffffffffffff811115612d2657600080fd5b612d3287828801612b81565b935050604085013567ffffffffffffffff811115612d4f57600080fd5b612d5b87828801612b81565b9250506060612d6c87828801612bab565b91505092959194509250565b60008060408385031215612d8b57600080fd5b6000612d9985828601612a9a565b9250506020612daa85828601612c3e565b9150509250929050565b60008060008060808587031215612dca57600080fd5b6000612dd887828801612a9a565b9450506020612de987828801612c3e565b935050604085013567ffffffffffffffff811115612e0657600080fd5b612e1287828801612c14565b925050606085013567ffffffffffffffff811115612e2f57600080fd5b612e3b87828801612bea565b91505092959194509250565b60008060008060808587031215612e5d57600080fd5b6000612e6b87828801612a9a565b9450506020612e7c87828801612c3e565b9350506040612e8d87828801612c3e565b9250506060612e9e87828801612bab565b91505092959194509250565b600080600080600060a08688031215612ec257600080fd5b6000612ed088828901612a9a565b9550506020612ee188828901612c3e565b9450506040612ef288828901612c3e565b935050606086013567ffffffffffffffff811115612f0f57600080fd5b612f1b88828901612c14565b925050608086013567ffffffffffffffff811115612f3857600080fd5b612f4488828901612bea565b9150509295509295909350565b600080600080600080600060e0888a031215612f6c57600080fd5b6000612f7a8a828b01612a9a565b9750506020612f8b8a828b01612c3e565b9650506040612f9c8a828b01612c53565b9550506060612fad8a828b01612bc0565b9450506080612fbe8a828b01612bc0565b93505060a088013567ffffffffffffffff811115612fdb57600080fd5b612fe78a828b01612c14565b92505060c088013567ffffffffffffffff81111561300457600080fd5b6130108a828b01612bea565b91505092959891949750929550565b6000806040838503121561303257600080fd5b600083013567ffffffffffffffff81111561304c57600080fd5b61305885828601612aaf565b925050602083013567ffffffffffffffff81111561307557600080fd5b61308185828601612b03565b9150509250929050565b600080600080600060a086880312156130a357600080fd5b600086013567ffffffffffffffff8111156130bd57600080fd5b6130c988828901612aaf565b955050602086013567ffffffffffffffff8111156130e657600080fd5b6130f288828901612b03565b945050604086013567ffffffffffffffff81111561310f57600080fd5b61311b88828901612b03565b935050606086013567ffffffffffffffff81111561313857600080fd5b61314488828901612ad9565b925050608086013567ffffffffffffffff81111561316157600080fd5b61316d88828901612b2d565b9150509295509295909350565b60006020828403121561318c57600080fd5b600061319a84828501612bd5565b91505092915050565b6000602082840312156131b557600080fd5b600082013567ffffffffffffffff8111156131cf57600080fd5b6131db84828501612bea565b91505092915050565b6000602082840312156131f657600080fd5b600082013567ffffffffffffffff81111561321057600080fd5b61321c84828501612c14565b91505092915050565b60006020828403121561323757600080fd5b600061324584828501612c3e565b91505092915050565b600061325a8383613316565b905092915050565b600061326e838361366c565b60208301905092915050565b6000613286838361368a565b60208301905092915050565b61329b81613d61565b82525050565b60006132ac82613c5a565b6132b68185613ca0565b9350836020820285016132c885613c3a565b8060005b8581101561330457848403895281516132e5858261324e565b94506132f083613c86565b925060208a019950506001810190506132cc565b50829750879550505050505092915050565b600061332182613c65565b61332b8185613cb1565b935061333683613c4a565b8060005b8381101561336757815161334e8882613262565b975061335983613c93565b92505060018101905061333a565b5085935050505092915050565b600061337f82613c65565b6133898185613cc2565b935061339483613c4a565b8060005b838110156133c55781516133ac8882613262565b97506133b783613c93565b925050600181019050613398565b5085935050505092915050565b60006133dd82613c65565b6133e78185613cd3565b93506133f283613c4a565b8060005b8381101561342357815161340a888261327a565b975061341583613c93565b9250506001810190506133f6565b5085935050505092915050565b61343981613d7f565b82525050565b61345061344b82613d7f565b613eda565b82525050565b600061346182613c70565b61346b8185613cde565b935061347b818560208601613dfb565b61348481613f93565b840191505092915050565b600061349a82613c7b565b6134a48185613cef565b93506134b4818560208601613dfb565b6134bd81613f93565b840191505092915050565b60006134d5601d83613cef565b91506134e082613fb1565b602082019050919050565b60006134f8602583613cef565b915061350382613fda565b604082019050919050565b600061351b600283613d00565b915061352682614029565b600282019050919050565b600061353e602483613cef565b915061354982614052565b604082019050919050565b6000613561602883613cef565b915061356c826140a1565b604082019050919050565b6000613584602383613cef565b915061358f826140f0565b604082019050919050565b60006135a7603483613cef565b91506135b28261413f565b604082019050919050565b60006135ca602b83613cef565b91506135d58261418e565b604082019050919050565b60006135ed603283613cef565b91506135f8826141dd565b604082019050919050565b6000613610602883613cef565b915061361b8261422c565b604082019050919050565b6000613633602483613cef565b915061363e8261427b565b604082019050919050565b6000613656601883613cef565b9150613661826142ca565b602082019050919050565b61367581613dd5565b82525050565b61368481613dd5565b82525050565b61369381613dd5565b82525050565b6136a281613ddf565b82525050565b60006136b482846133d2565b915081905092915050565b60006136ca8261350e565b91506136d6828561343f565b6020820191506136e6828461343f565b6020820191508190509392505050565b600060208201905061370b6000830184613292565b92915050565b60006080820190506137266000830187613292565b81810360208301526137388186613374565b9050818103604083015261374c8185613374565b905081810360608301526137608184613456565b905095945050505050565b60006080820190506137806000830187613292565b61378d602083018661367b565b61379a604083018561367b565b81810360608301526137ac8184613456565b905095945050505050565b600060208201905081810360008301526137d181846132a1565b905092915050565b600060208201905081810360008301526137f38184613374565b905092915050565b600060408201905081810360008301526138158185613374565b905081810360208301526138298184613374565b90509392505050565b60006020820190506138476000830184613430565b92915050565b60006080820190506138626000830187613430565b61386f6020830186613292565b61387c6040830185613430565b6138896060830184613430565b95945050505050565b60006080820190506138a76000830187613430565b6138b46020830186613292565b6138c1604083018561367b565b6138ce606083018461367b565b95945050505050565b60006060820190506138ec6000830186613430565b6138f96020830185613430565b6139066040830184613699565b949350505050565b60006020820190508181036000830152613928818461348f565b905092915050565b60006020820190508181036000830152613949816134c8565b9050919050565b60006020820190508181036000830152613969816134eb565b9050919050565b6000602082019050818103600083015261398981613531565b9050919050565b600060208201905081810360008301526139a981613554565b9050919050565b600060208201905081810360008301526139c981613577565b9050919050565b600060208201905081810360008301526139e98161359a565b9050919050565b60006020820190508181036000830152613a09816135bd565b9050919050565b60006020820190508181036000830152613a29816135e0565b9050919050565b60006020820190508181036000830152613a4981613603565b9050919050565b60006020820190508181036000830152613a6981613626565b9050919050565b60006020820190508181036000830152613a8981613649565b9050919050565b6000602082019050613aa5600083018461367b565b92915050565b6000613ab5613ac6565b9050613ac18282613e60565b919050565b6000604051905090565b600067ffffffffffffffff821115613aeb57613aea613f42565b5b602082029050602081019050919050565b600067ffffffffffffffff821115613b1757613b16613f42565b5b602082029050602081019050919050565b600067ffffffffffffffff821115613b4357613b42613f42565b5b602082029050602081019050919050565b600067ffffffffffffffff821115613b6f57613b6e613f42565b5b602082029050602081019050919050565b600067ffffffffffffffff821115613b9b57613b9a613f42565b5b602082029050602081019050919050565b600067ffffffffffffffff821115613bc757613bc6613f42565b5b602082029050602081019050919050565b600067ffffffffffffffff821115613bf357613bf2613f42565b5b613bfc82613f93565b9050602081019050919050565b600067ffffffffffffffff821115613c2457613c23613f42565b5b613c2d82613f93565b9050602081019050919050565b6000819050602082019050919050565b6000819050602082019050919050565b600081519050919050565b600081519050919050565b600081519050919050565b600081519050919050565b6000602082019050919050565b6000602082019050919050565b600082825260208201905092915050565b600082825260208201905092915050565b600082825260208201905092915050565b600081905092915050565b600082825260208201905092915050565b600082825260208201905092915050565b600081905092915050565b6000613d1682613dd5565b9150613d2183613dd5565b9250827fffffffffffffffffffffffffffffffffffffffffffffffffffffffffffffffff03821115613d5657613d55613ee4565b5b828201905092915050565b6000613d6c82613db5565b9050919050565b60008115159050919050565b6000819050919050565b60007fffffffff0000000000000000000000000000000000000000000000000000000082169050919050565b600073ffffffffffffffffffffffffffffffffffffffff82169050919050565b6000819050919050565b600060ff82169050919050565b82818337600083830152505050565b60005b83811015613e19578082015181840152602081019050613dfe565b83811115613e28576000848401525b50505050565b60006002820490506001821680613e4657607f821691505b60208210811415613e5a57613e59613f13565b5b50919050565b613e6982613f93565b810181811067ffffffffffffffff82111715613e8857613e87613f42565b5b80604052505050565b6000613e9c82613dd5565b91507fffffffffffffffffffffffffffffffffffffffffffffffffffffffffffffffff821415613ecf57613ece613ee4565b5b600182019050919050565b6000819050919050565b7f4e487b7100000000000000000000000000000000000000000000000000000000600052601160045260246000fd5b7f4e487b7100000000000000000000000000000000000000000000000000000000600052602260045260246000fd5b7f4e487b7100000000000000000000000000000000000000000000000000000000600052604160045260246000fd5b600060033d1115613f905760046000803e613f8d600051613fa4565b90505b90565b6000601f19601f8301169050919050565b60008160e01c9050919050565b7f496e76616c6964206164647265737320666f72206e6577206f776e6572000000600082015250565b7f556e617574686f72697a65643a2073656e646572206973206e6f74207468652060008201527f6f776e6572000000000000000000000000000000000000000000000000000000602082015250565b7f1901000000000000000000000000000000000000000000000000000000000000600082015250565b7f455243313233383a206275726e20616d6f756e7420657863656564732062616c60008201527f616e636500000000000000000000000000000000000000000000000000000000602082015250565b7f455243313233383a204552433132333852656365697665722072656a6563746560008201527f6420746f6b656e73000000000000000000000000000000000000000000000000602082015250565b7f455243313233383a206275726e2066726f6d20746865207a65726f206164647260008201527f6573730000000000000000000000000000000000000000000000000000000000602082015250565b7f455243313233383a207472616e7366657220746f206e6f6e204552433132333860008201527f526563656976657220696d706c656d656e746572000000000000000000000000602082015250565b7f455243313233383a2062616c616e636520717565727920666f7220746865207a60008201527f65726f2061646472657373000000000000000000000000000000000000000000602082015250565b7f4552433132333853746f726167653a2069647320616e6420746f6b656e20555260008201527f4973206c656e677468206d69736d617463680000000000000000000000000000602082015250565b7f455243313233383a2069647320616e6420616d6f756e7473206c656e6774682060008201527f6d69736d61746368000000000000000000000000000000000000000000000000602082015250565b7f455243313233383a20526563697069656e74206973206e6f74206120636f6e7460008201527f7261637400000000000000000000000000000000000000000000000000000000602082015250565b7f696e76616c6964207369676e6174757265206c656e6774680000000000000000600082015250565b600060443d101561430357614386565b61430b613ac6565b60043d036004823e80513d602482011167ffffffffffffffff82111715614333575050614386565b808201805167ffffffffffffffff8111156143515750505050614386565b80602083010160043d03850181111561436e575050505050614386565b61437d82602001850186613e60565b82955050505050505b90565b61439281613d61565b811461439d57600080fd5b50565b6143a981613d73565b81146143b457600080fd5b50565b6143c081613d7f565b81146143cb57600080fd5b50565b6143d781613d89565b81146143e257600080fd5b50565b6143ee81613dd5565b81146143f957600080fd5b50565b61440581613ddf565b811461441057600080fd5b5056fea2646970667358221220ca368715a531d208604f660821d981b6a3e526b1c6856b44e76472bc5883244164736f6c63430008040033",
  "linkReferences": {},
  "deployedLinkReferences": {}
}