{
  "contractName": "Badge",
  "abi": [
    {
      "inputs": [
        {
          "internalType": "address",
          "name": "owner_",
          "type": "address"
        },
        {
          "internalType": "string",
          "name": "baseURI_",
          "type": "string"
        }
      ],
      "stateMutability": "nonpayable",
      "type": "constructor"
    },
    {
      "anonymous": false,
      "inputs": [
        {
          "indexed": true,
          "internalType": "address",
          "name": "burner",
          "type": "address"
        },
        {
          "indexed": true,
          "internalType": "address",
          "name": "owner",
          "type": "address"
        },
        {
          "indexed": false,
          "internalType": "uint256[]",
          "name": "ids",
          "type": "uint256[]"
        },
        {
          "indexed": false,
          "internalType": "uint256[]",
          "name": "amounts",
          "type": "uint256[]"
        }
      ],
      "name": "BurnBatch",
      "type": "event"
    },
    {
      "anonymous": false,
      "inputs": [
        {
          "indexed": true,
          "internalType": "address",
          "name": "burner",
          "type": "address"
        },
        {
          "indexed": true,
          "internalType": "address",
          "name": "owner",
          "type": "address"
        },
        {
          "indexed": true,
          "internalType": "uint256",
          "name": "id",
          "type": "uint256"
        },
        {
          "indexed": false,
          "internalType": "uint256",
          "name": "amount",
          "type": "uint256"
        }
      ],
      "name": "BurnSingle",
      "type": "event"
    },
    {
      "anonymous": false,
      "inputs": [
        {
          "indexed": false,
          "internalType": "string",
          "name": "name",
          "type": "string"
        },
        {
          "indexed": false,
          "internalType": "string",
          "name": "version",
          "type": "string"
        },
        {
          "indexed": false,
          "internalType": "uint256",
          "name": "chainId",
          "type": "uint256"
        },
        {
          "indexed": false,
          "internalType": "address",
          "name": "verifyingContract",
          "type": "address"
        },
        {
          "indexed": false,
          "internalType": "bytes32",
          "name": "dsDigest",
          "type": "bytes32"
        }
      ],
      "name": "DomainSeparatorForMintApproval",
      "type": "event"
    },
    {
      "anonymous": false,
      "inputs": [
        {
          "indexed": true,
          "internalType": "address",
          "name": "minter",
          "type": "address"
        },
        {
          "indexed": true,
          "internalType": "address",
          "name": "to",
          "type": "address"
        },
        {
          "indexed": false,
          "internalType": "uint256[]",
          "name": "ids",
          "type": "uint256[]"
        },
        {
          "indexed": false,
          "internalType": "uint256[]",
          "name": "amounts",
          "type": "uint256[]"
        }
      ],
      "name": "MintBatch",
      "type": "event"
    },
    {
      "anonymous": false,
      "inputs": [
        {
          "indexed": true,
          "internalType": "address",
          "name": "minter",
          "type": "address"
        },
        {
          "indexed": true,
          "internalType": "address",
          "name": "to",
          "type": "address"
        },
        {
          "indexed": true,
          "internalType": "uint256",
          "name": "id",
          "type": "uint256"
        },
        {
          "indexed": false,
          "internalType": "uint256",
          "name": "amount",
          "type": "uint256"
        }
      ],
      "name": "MintSingle",
      "type": "event"
    },
    {
      "anonymous": false,
      "inputs": [
        {
          "indexed": true,
          "internalType": "uint256",
          "name": "id",
          "type": "uint256"
        },
        {
          "indexed": false,
          "internalType": "string",
          "name": "value",
          "type": "string"
        }
      ],
      "name": "URI",
      "type": "event"
    },
    {
      "inputs": [],
      "name": "DOMAIN_SEPARATOR",
      "outputs": [
        {
          "internalType": "bytes32",
          "name": "",
          "type": "bytes32"
        }
      ],
      "stateMutability": "view",
      "type": "function"
    },
    {
      "inputs": [
        {
          "internalType": "address",
          "name": "account",
          "type": "address"
        },
        {
          "internalType": "uint256",
          "name": "id",
          "type": "uint256"
        }
      ],
      "name": "balanceOf",
      "outputs": [
        {
          "internalType": "uint256",
          "name": "",
          "type": "uint256"
        }
      ],
      "stateMutability": "view",
      "type": "function"
    },
    {
      "inputs": [
        {
          "internalType": "address",
          "name": "account",
          "type": "address"
        },
        {
          "internalType": "uint256[]",
          "name": "ids",
          "type": "uint256[]"
        }
      ],
      "name": "balanceOfBatch",
      "outputs": [
        {
          "internalType": "uint256[]",
          "name": "",
          "type": "uint256[]"
        }
      ],
      "stateMutability": "view",
      "type": "function"
    },
    {
      "inputs": [
        {
          "internalType": "address[]",
          "name": "accounts",
          "type": "address[]"
        },
        {
          "internalType": "uint256[][]",
          "name": "ids",
          "type": "uint256[][]"
        }
      ],
      "name": "balanceOfBundle",
      "outputs": [
        {
          "internalType": "uint256[][]",
          "name": "",
          "type": "uint256[][]"
        }
      ],
      "stateMutability": "view",
      "type": "function"
    },
    {
      "inputs": [],
      "name": "owner",
      "outputs": [
        {
          "internalType": "address",
          "name": "",
          "type": "address"
        }
      ],
      "stateMutability": "view",
      "type": "function"
    },
    {
      "inputs": [
        {
          "internalType": "bytes",
          "name": "sig",
          "type": "bytes"
        }
      ],
      "name": "splitSignature",
      "outputs": [
        {
          "internalType": "bytes32",
          "name": "r",
          "type": "bytes32"
        },
        {
          "internalType": "bytes32",
          "name": "s",
          "type": "bytes32"
        },
        {
          "internalType": "uint8",
          "name": "v",
          "type": "uint8"
        }
      ],
      "stateMutability": "pure",
      "type": "function"
    },
    {
      "inputs": [
        {
          "internalType": "uint256",
          "name": "id",
          "type": "uint256"
        }
      ],
      "name": "tokenURI",
      "outputs": [
        {
          "internalType": "string",
          "name": "",
          "type": "string"
        }
      ],
      "stateMutability": "view",
      "type": "function"
    },
    {
      "inputs": [
        {
          "internalType": "address",
          "name": "newOwner",
          "type": "address"
        }
      ],
      "name": "setOwner",
      "outputs": [],
      "stateMutability": "nonpayable",
      "type": "function"
    },
    {
      "inputs": [
        {
          "internalType": "string",
          "name": "newBaseURI",
          "type": "string"
        }
      ],
      "name": "setBaseURI",
      "outputs": [],
      "stateMutability": "nonpayable",
      "type": "function"
    },
    {
      "inputs": [
        {
          "internalType": "address",
          "name": "to",
          "type": "address"
        },
        {
          "internalType": "uint256",
          "name": "id",
          "type": "uint256"
        },
        {
          "internalType": "uint256",
          "name": "amount",
          "type": "uint256"
        },
        {
          "internalType": "uint8",
          "name": "v",
          "type": "uint8"
        },
        {
          "internalType": "bytes32",
          "name": "r",
          "type": "bytes32"
        },
        {
          "internalType": "bytes32",
          "name": "s",
          "type": "bytes32"
        },
        {
          "internalType": "string",
          "name": "uri",
          "type": "string"
        },
        {
          "internalType": "bytes",
          "name": "data",
          "type": "bytes"
        }
      ],
      "name": "mintToEOA",
      "outputs": [],
      "stateMutability": "nonpayable",
      "type": "function"
    },
    {
      "inputs": [
        {
          "internalType": "address",
          "name": "to",
          "type": "address"
        },
        {
          "internalType": "uint256",
          "name": "id",
          "type": "uint256"
        },
        {
          "internalType": "uint256",
          "name": "amount",
          "type": "uint256"
        },
        {
          "internalType": "string",
          "name": "uri",
          "type": "string"
        },
        {
          "internalType": "bytes",
          "name": "data",
          "type": "bytes"
        }
      ],
      "name": "mintToContract",
      "outputs": [],
      "stateMutability": "nonpayable",
      "type": "function"
    },
    {
      "inputs": [
        {
          "internalType": "address[]",
          "name": "to",
          "type": "address[]"
        },
        {
          "internalType": "uint256[][]",
          "name": "ids",
          "type": "uint256[][]"
        },
        {
          "internalType": "uint256[][]",
          "name": "amounts",
          "type": "uint256[][]"
        },
        {
          "internalType": "string[][]",
          "name": "uris",
          "type": "string[][]"
        },
        {
          "internalType": "bytes[]",
          "name": "data",
          "type": "bytes[]"
        }
      ],
      "name": "mintBundle",
      "outputs": [],
      "stateMutability": "nonpayable",
      "type": "function"
    },
    {
      "inputs": [
        {
          "internalType": "address",
          "name": "from",
          "type": "address"
        },
        {
          "internalType": "uint256",
          "name": "id",
          "type": "uint256"
        },
        {
          "internalType": "uint256",
          "name": "amount",
          "type": "uint256"
        },
        {
          "internalType": "bool",
          "name": "deleteURI",
          "type": "bool"
        }
      ],
      "name": "burn",
      "outputs": [],
      "stateMutability": "nonpayable",
      "type": "function"
    },
    {
      "inputs": [
        {
          "internalType": "address",
          "name": "from",
          "type": "address"
        },
        {
          "internalType": "uint256[]",
          "name": "ids",
          "type": "uint256[]"
        },
        {
          "internalType": "uint256[]",
          "name": "amounts",
          "type": "uint256[]"
        },
        {
          "internalType": "bool",
          "name": "deleteURI",
          "type": "bool"
        }
      ],
      "name": "burnBatch",
      "outputs": [],
      "stateMutability": "nonpayable",
      "type": "function"
    }
  ],
  "bytecode": "0x60806040523480156200001157600080fd5b50604051620046fd380380620046fd8339818101604052810190620000379190620004cf565b80600060405180608001604052806040518060400160405280601581526020017f45524331323338204d696e7420417070726f76616c000000000000000000000081525081526020016040518060400160405280600181526020017f310000000000000000000000000000000000000000000000000000000000000081525081526020014681526020013073ffffffffffffffffffffffffffffffffffffffff1681525090507f8b73c3c69bb8fe3d512ecc4cf759cc79239f7b179b0ffacaa9a75d522b39400f81600001518051906020012082602001518051906020012083604001518460600151604051602001620001369594939291906200057c565b604051602081830303815290604052805190602001206000819055507fe5a822f101a714d5cd94a04cf067a84a2ddb69b5326b93008a040df8a74a387281600001518260200151836040015184606001516000546040516200019d95949392919062000636565b60405180910390a150620001b7816200020160201b60201c565b5081600460006101000a81548173ffffffffffffffffffffffffffffffffffffffff021916908373ffffffffffffffffffffffffffffffffffffffff160217905550505062000705565b8060029080519060200190620002199291906200021d565b5050565b8280546200022b90620006d0565b90600052602060002090601f0160209004810192826200024f57600085556200029b565b82601f106200026a57805160ff19168380011785556200029b565b828001600101855582156200029b579182015b828111156200029a5782518255916020019190600101906200027d565b5b509050620002aa9190620002ae565b5090565b5b80821115620002c9576000816000905550600101620002af565b5090565b6000604051905090565b600080fd5b600080fd5b600073ffffffffffffffffffffffffffffffffffffffff82169050919050565b60006200030e82620002e1565b9050919050565b620003208162000301565b81146200032c57600080fd5b50565b600081519050620003408162000315565b92915050565b600080fd5b600080fd5b6000601f19601f8301169050919050565b7f4e487b7100000000000000000000000000000000000000000000000000000000600052604160045260246000fd5b6200039b8262000350565b810181811067ffffffffffffffff82111715620003bd57620003bc62000361565b5b80604052505050565b6000620003d2620002cd565b9050620003e0828262000390565b919050565b600067ffffffffffffffff82111562000403576200040262000361565b5b6200040e8262000350565b9050602081019050919050565b60005b838110156200043b5780820151818401526020810190506200041e565b838111156200044b576000848401525b50505050565b6000620004686200046284620003e5565b620003c6565b9050828152602081018484840111156200048757620004866200034b565b5b620004948482856200041b565b509392505050565b600082601f830112620004b457620004b362000346565b5b8151620004c684826020860162000451565b91505092915050565b60008060408385031215620004e957620004e8620002d7565b5b6000620004f9858286016200032f565b925050602083015167ffffffffffffffff8111156200051d576200051c620002dc565b5b6200052b858286016200049c565b9150509250929050565b6000819050919050565b6200054a8162000535565b82525050565b6000819050919050565b620005658162000550565b82525050565b620005768162000301565b82525050565b600060a0820190506200059360008301886200053f565b620005a260208301876200053f565b620005b160408301866200053f565b620005c060608301856200055a565b620005cf60808301846200056b565b9695505050505050565b600081519050919050565b600082825260208201905092915050565b60006200060282620005d9565b6200060e8185620005e4565b9350620006208185602086016200041b565b6200062b8162000350565b840191505092915050565b600060a0820190508181036000830152620006528188620005f5565b90508181036020830152620006688187620005f5565b90506200067960408301866200055a565b6200068860608301856200056b565b6200069760808301846200053f565b9695505050505050565b7f4e487b7100000000000000000000000000000000000000000000000000000000600052602260045260246000fd5b60006002820490506001821680620006e957607f821691505b602082108103620006ff57620006fe620006a1565b5b50919050565b613fe880620007156000396000f3fe608060405234801561001057600080fd5b50600436106100e95760003560e01c806355f804b31161008c578063a7bb580311610066578063a7bb58031461021e578063afd6908614610250578063c87b56dd14610280578063dbee1524146102b0576100e9565b806355f804b3146101c85780638af702a1146101e45780638da5cb5b14610200576100e9565b806331126dd1116100c857806331126dd1146101565780633644e515146101725780633ebce34a1461019057806344893bf3146101ac576100e9565b8062fdd58e146100ee57806313af40351461011e578063198fe9c21461013a575b600080fd5b61010860048036038101906101039190612243565b6102e0565b6040516101159190612292565b60405180910390f35b610138600480360381019061013391906122ad565b6103a9565b005b610154600480360381019061014f9190612530565b6104ec565b005b610170600480360381019061016b9190612656565b61059f565b005b61017a610657565b60405161018791906126cc565b60405180910390f35b6101aa60048036038101906101a591906126e7565b61065d565b005b6101c660048036038101906101c19190612862565b61070a565b005b6101e260048036038101906101dd9190612901565b6107c2565b005b6101fe60048036038101906101f99190612d91565b61085e565b005b610208610ab3565b6040516102159190612ea7565b60405180910390f35b61023860048036038101906102339190612ec2565b610ad9565b60405161024793929190612f1a565b60405180910390f35b61026a60048036038101906102659190612f51565b610b41565b604051610277919061306b565b60405180910390f35b61029a6004803603810190610295919061308d565b610c02565b6040516102a79190613142565b60405180910390f35b6102ca60048036038101906102c59190613164565b610cd2565b6040516102d7919061330d565b60405180910390f35b60008073ffffffffffffffffffffffffffffffffffffffff168373ffffffffffffffffffffffffffffffffffffffff1603610350576040517f08c379a0000000000000000000000000000000000000000000000000000000008152600401610347906133a1565b60405180910390fd5b6001600083815260200190815260200160002060008473ffffffffffffffffffffffffffffffffffffffff1673ffffffffffffffffffffffffffffffffffffffff16815260200190815260200160002054905092915050565b600460009054906101000a900473ffffffffffffffffffffffffffffffffffffffff1673ffffffffffffffffffffffffffffffffffffffff163373ffffffffffffffffffffffffffffffffffffffff1614610439576040517f08c379a000000000000000000000000000000000000000000000000000000000815260040161043090613433565b60405180910390fd5b600073ffffffffffffffffffffffffffffffffffffffff168173ffffffffffffffffffffffffffffffffffffffff16036104a8576040517f08c379a000000000000000000000000000000000000000000000000000000000815260040161049f9061349f565b60405180910390fd5b80600460006101000a81548173ffffffffffffffffffffffffffffffffffffffff021916908373ffffffffffffffffffffffffffffffffffffffff16021790555050565b600460009054906101000a900473ffffffffffffffffffffffffffffffffffffffff1673ffffffffffffffffffffffffffffffffffffffff163373ffffffffffffffffffffffffffffffffffffffff161461057c576040517f08c379a000000000000000000000000000000000000000000000000000000000815260040161057390613433565b60405180910390fd5b61058b88888888888887610db1565b6105958783610de3565b5050505050505050565b600460009054906101000a900473ffffffffffffffffffffffffffffffffffffffff1673ffffffffffffffffffffffffffffffffffffffff163373ffffffffffffffffffffffffffffffffffffffff161461062f576040517f08c379a000000000000000000000000000000000000000000000000000000000815260040161062690613433565b60405180910390fd5b801561064557610640848484610e47565b610651565b610650848484610e60565b5b50505050565b60005481565b600460009054906101000a900473ffffffffffffffffffffffffffffffffffffffff1673ffffffffffffffffffffffffffffffffffffffff163373ffffffffffffffffffffffffffffffffffffffff16146106ed576040517f08c379a00000000000000000000000000000000000000000000000000000000081526004016106e490613433565b60405180910390fd5b6106f98585858461103c565b6107038483610de3565b5050505050565b600460009054906101000a900473ffffffffffffffffffffffffffffffffffffffff1673ffffffffffffffffffffffffffffffffffffffff163373ffffffffffffffffffffffffffffffffffffffff161461079a576040517f08c379a000000000000000000000000000000000000000000000000000000000815260040161079190613433565b60405180910390fd5b80156107b0576107ab8484846110b9565b6107bc565b6107bb848484611343565b5b50505050565b600460009054906101000a900473ffffffffffffffffffffffffffffffffffffffff1673ffffffffffffffffffffffffffffffffffffffff163373ffffffffffffffffffffffffffffffffffffffff1614610852576040517f08c379a000000000000000000000000000000000000000000000000000000000815260040161084990613433565b60405180910390fd5b61085b816115c4565b50565b600460009054906101000a900473ffffffffffffffffffffffffffffffffffffffff1673ffffffffffffffffffffffffffffffffffffffff163373ffffffffffffffffffffffffffffffffffffffff16146108ee576040517f08c379a00000000000000000000000000000000000000000000000000000000081526004016108e590613433565b60405180910390fd5b60005b8551811015610aab576109388582815181106109105761090f6134bf565b5b602002602001015184838151811061092b5761092a6134bf565b5b60200260200101516115de565b61097186828151811061094e5761094d6134bf565b5b602002602001015173ffffffffffffffffffffffffffffffffffffffff16611684565b156109ef576109ea86828151811061098c5761098b6134bf565b5b60200260200101518683815181106109a7576109a66134bf565b5b60200260200101518684815181106109c2576109c16134bf565b5b60200260200101518585815181106109dd576109dc6134bf565b5b60200260200101516116a7565b610a98565b6000806000610a17858581518110610a0a57610a096134bf565b5b6020026020010151610ad9565b925092509250610a94898581518110610a3357610a326134bf565b5b6020026020010151898681518110610a4e57610a4d6134bf565b5b6020026020010151898781518110610a6957610a686134bf565b5b60200260200101518487878b8b81518110610a8757610a866134bf565b5b6020026020010151611724565b5050505b8080610aa39061351d565b9150506108f1565b505050505050565b600460009054906101000a900473ffffffffffffffffffffffffffffffffffffffff1681565b60008060006041845114610b22576040517f08c379a0000000000000000000000000000000000000000000000000000000008152600401610b19906135b1565b60405180910390fd5b6020840151925060408401519150606084015160001a90509193909250565b60606000825167ffffffffffffffff811115610b6057610b5f612364565b5b604051908082528060200260200182016040528015610b8e5781602001602082028036833780820191505090505b50905060008351905060005b81811015610bf657610bc686868381518110610bb957610bb86134bf565b5b60200260200101516102e0565b838281518110610bd957610bd86134bf565b5b60200260200101818152505080610bef9061351d565b9050610b9a565b50819250505092915050565b60606000600360008481526020019081526020016000208054610c2490613600565b80601f0160208091040260200160405190810160405280929190818152602001828054610c5090613600565b8015610c9d5780601f10610c7257610100808354040283529160200191610c9d565b820191906000526020600020905b815481529060010190602001808311610c8057829003601f168201915b50505050509050610cad83611756565b15610cbb5780915050610ccd565b6000610cc5611781565b905080925050505b919050565b60606000835167ffffffffffffffff811115610cf157610cf0612364565b5b604051908082528060200260200182016040528015610d2457816020015b6060815260200190600190039081610d0f5790505b50905060008451905060005b81811015610da557610d76868281518110610d4e57610d4d6134bf565b5b6020026020010151868381518110610d6957610d686134bf565b5b6020026020010151610b41565b838281518110610d8957610d886134bf565b5b602002602001018190525080610d9e9061351d565b9050610d30565b50819250505092915050565b6000610dbe338888611813565b9050610dcd33828787876118ac565b610dd98888888561199e565b5050505050505050565b80600360008481526020019081526020016000209080519060200190610e0a9291906120b8565b50817f369737eac2f50072db0001f8a5c3f225ab50d5ab38d8cbdbabf885abf2ab722a82604051610e3b9190613142565b60405180910390a25050565b610e52838383610e60565b610e5b82611a84565b505050565b600073ffffffffffffffffffffffffffffffffffffffff168373ffffffffffffffffffffffffffffffffffffffff1603610ecf576040517f08c379a0000000000000000000000000000000000000000000000000000000008152600401610ec6906136a3565b60405180910390fd5b6000339050610ee081858585611ab5565b60006001600085815260200190815260200160002060008673ffffffffffffffffffffffffffffffffffffffff1673ffffffffffffffffffffffffffffffffffffffff16815260200190815260200160002054905082811015610f78576040517f08c379a0000000000000000000000000000000000000000000000000000000008152600401610f6f90613735565b60405180910390fd5b8281036001600086815260200190815260200160002060008773ffffffffffffffffffffffffffffffffffffffff1673ffffffffffffffffffffffffffffffffffffffff16815260200190815260200160002081905550838573ffffffffffffffffffffffffffffffffffffffff168373ffffffffffffffffffffffffffffffffffffffff167f995c922928fc04a31c6446db7f51f402ddb95ac41fa3dca51c98ff1fe73005318660405161102d9190612292565b60405180910390a45050505050565b61105b8473ffffffffffffffffffffffffffffffffffffffff16611684565b61109a576040517f08c379a0000000000000000000000000000000000000000000000000000000008152600401611091906137c7565b60405180910390fd5b6110a68484848461199e565b6110b33385858585611abb565b50505050565b600073ffffffffffffffffffffffffffffffffffffffff168373ffffffffffffffffffffffffffffffffffffffff1603611128576040517f08c379a000000000000000000000000000000000000000000000000000000000815260040161111f906136a3565b60405180910390fd5b805182511461116c576040517f08c379a000000000000000000000000000000000000000000000000000000000815260040161116390613859565b60405180910390fd5b600033905060005b83518110156112d5576000848281518110611192576111916134bf565b5b6020026020010151905060008483815181106111b1576111b06134bf565b5b602002602001015190506111c784888484611ab5565b60006001600084815260200190815260200160002060008973ffffffffffffffffffffffffffffffffffffffff1673ffffffffffffffffffffffffffffffffffffffff1681526020019081526020016000205490508181101561125f576040517f08c379a000000000000000000000000000000000000000000000000000000000815260040161125690613735565b60405180910390fd5b8181036001600085815260200190815260200160002060008a73ffffffffffffffffffffffffffffffffffffffff1673ffffffffffffffffffffffffffffffffffffffff168152602001908152602001600020819055506112bf83611a84565b50505080806112cd9061351d565b915050611174565b508373ffffffffffffffffffffffffffffffffffffffff168173ffffffffffffffffffffffffffffffffffffffff167ff6d51a8d20e8b0143ca41399aa93b2a480cb0b95e39847e4ebd3144b2db8775d8585604051611335929190613879565b60405180910390a350505050565b600073ffffffffffffffffffffffffffffffffffffffff168373ffffffffffffffffffffffffffffffffffffffff16036113b2576040517f08c379a00000000000000000000000000000000000000000000000000000000081526004016113a9906136a3565b60405180910390fd5b80518251146113f6576040517f08c379a00000000000000000000000000000000000000000000000000000000081526004016113ed90613859565b60405180910390fd5b600033905060005b835181101561155657600084828151811061141c5761141b6134bf565b5b60200260200101519050600084838151811061143b5761143a6134bf565b5b6020026020010151905061145184888484611ab5565b60006001600084815260200190815260200160002060008973ffffffffffffffffffffffffffffffffffffffff1673ffffffffffffffffffffffffffffffffffffffff168152602001908152602001600020549050818110156114e9576040517f08c379a00000000000000000000000000000000000000000000000000000000081526004016114e090613735565b60405180910390fd5b8181036001600085815260200190815260200160002060008a73ffffffffffffffffffffffffffffffffffffffff1673ffffffffffffffffffffffffffffffffffffffff16815260200190815260200160002081905550505050808061154e9061351d565b9150506113fe565b508373ffffffffffffffffffffffffffffffffffffffff168173ffffffffffffffffffffffffffffffffffffffff167ff6d51a8d20e8b0143ca41399aa93b2a480cb0b95e39847e4ebd3144b2db8775d85856040516115b6929190613879565b60405180910390a350505050565b80600290805190602001906115da9291906120b8565b5050565b8051825114611622576040517f08c379a000000000000000000000000000000000000000000000000000000000815260040161161990613922565b60405180910390fd5b60005b825181101561167f5761166c838281518110611644576116436134bf565b5b602002602001015183838151811061165f5761165e6134bf565b5b6020026020010151610de3565b80806116779061351d565b915050611625565b505050565b6000808273ffffffffffffffffffffffffffffffffffffffff163b119050919050565b6116c68473ffffffffffffffffffffffffffffffffffffffff16611684565b611705576040517f08c379a00000000000000000000000000000000000000000000000000000000081526004016116fc906137c7565b60405180910390fd5b61171184848484611c6a565b61171e3385858585611e1d565b50505050565b6000611731888888611fcc565b905061174088828787876118ac565b61174c88888885611c6a565b5050505050505050565b60008060036000848152602001908152602001600020805461177790613600565b9050119050919050565b60606002805461179090613600565b80601f01602080910402602001604051908101604052809291908181526020018280546117bc90613600565b80156118095780601f106117de57610100808354040283529160200191611809565b820191906000526020600020905b8154815290600101906020018083116117ec57829003601f168201915b5050505050905090565b60008060405180606001604052808673ffffffffffffffffffffffffffffffffffffffff1681526020018581526020018481525090507f97b28eca24e5080ea4d0af02f80111ea0596b75fdd4228411a50c43abfdd3eed81600001518260200151836040015160405160200161188c9493929190613942565b604051602081830303815290604052805190602001209150509392505050565b60008054856040516020016118c29291906139ff565b6040516020818303038152906040528051906020012090508573ffffffffffffffffffffffffffffffffffffffff16600182868686604051600081526020016040526040516119149493929190613a36565b6020604051602081039080840390855afa158015611936573d6000803e3d6000fd5b5050506020604051035173ffffffffffffffffffffffffffffffffffffffff1614611996576040517f08c379a000000000000000000000000000000000000000000000000000000000815260040161198d90613aed565b60405180910390fd5b505050505050565b60003390506119b081868686866120b1565b826001600086815260200190815260200160002060008773ffffffffffffffffffffffffffffffffffffffff1673ffffffffffffffffffffffffffffffffffffffff1681526020019081526020016000206000828254611a109190613b0d565b92505081905550838573ffffffffffffffffffffffffffffffffffffffff168273ffffffffffffffffffffffffffffffffffffffff167f17facb1ae55b1a0fe54049767ddeb027123cb5d0379a5a1c6f5c954287d88fb386604051611a759190612292565b60405180910390a45050505050565b611a8d81611756565b15611ab257600360008281526020019081526020016000206000611ab1919061213e565b5b50565b50505050565b8373ffffffffffffffffffffffffffffffffffffffff166345ed75d5868585856040518563ffffffff1660e01b8152600401611afa9493929190613bb8565b6020604051808303816000875af1925050508015611b3657506040513d601f19601f82011682018060405250810190611b339190613c5c565b60015b611bdb57611b42613c96565b806308c379a003611b9e5750611b56613cb8565b80611b615750611ba0565b806040517f08c379a0000000000000000000000000000000000000000000000000000000008152600401611b959190613142565b60405180910390fd5b505b6040517f08c379a0000000000000000000000000000000000000000000000000000000008152600401611bd290613dba565b60405180910390fd5b6345ed75d560e01b7bffffffffffffffffffffffffffffffffffffffffffffffffffffffff1916817bffffffffffffffffffffffffffffffffffffffffffffffffffffffff191614611c62576040517f08c379a0000000000000000000000000000000000000000000000000000000008152600401611c5990613e4c565b60405180910390fd5b505050505050565b8151835114611cae576040517f08c379a0000000000000000000000000000000000000000000000000000000008152600401611ca590613859565b60405180910390fd5b600033905060005b8451811015611dae57611d008287878481518110611cd757611cd66134bf565b5b6020026020010151878581518110611cf257611cf16134bf565b5b6020026020010151876120b1565b838181518110611d1357611d126134bf565b5b602002602001015160016000878481518110611d3257611d316134bf565b5b6020026020010151815260200190815260200160002060008873ffffffffffffffffffffffffffffffffffffffff1673ffffffffffffffffffffffffffffffffffffffff1681526020019081526020016000206000828254611d949190613b0d565b925050819055508080611da69061351d565b915050611cb6565b508473ffffffffffffffffffffffffffffffffffffffff168173ffffffffffffffffffffffffffffffffffffffff167f5c5ac6bfb3f54a39f008d2e9be10d575012f29230716d49e92da377d748b1a878686604051611e0e929190613879565b60405180910390a35050505050565b8373ffffffffffffffffffffffffffffffffffffffff1663c0bfec68868585856040518563ffffffff1660e01b8152600401611e5c9493929190613e6c565b6020604051808303816000875af1925050508015611e9857506040513d601f19601f82011682018060405250810190611e959190613c5c565b60015b611f3d57611ea4613c96565b806308c379a003611f005750611eb8613cb8565b80611ec35750611f02565b806040517f08c379a0000000000000000000000000000000000000000000000000000000008152600401611ef79190613142565b60405180910390fd5b505b6040517f08c379a0000000000000000000000000000000000000000000000000000000008152600401611f3490613dba565b60405180910390fd5b63c0bfec6860e01b7bffffffffffffffffffffffffffffffffffffffffffffffffffffffff1916817bffffffffffffffffffffffffffffffffffffffffffffffffffffffff191614611fc4576040517f08c379a0000000000000000000000000000000000000000000000000000000008152600401611fbb90613e4c565b60405180910390fd5b505050505050565b60008060405180606001604052808673ffffffffffffffffffffffffffffffffffffffff1681526020018581526020018481525090507f3766a97e8e4290ccc4e1f96c50729afab6e1e51b341c132ce910495c64b43d0e8160000151826020015160405160200161203d9190613f56565b6040516020818303038152906040528051906020012083604001516040516020016120689190613f56565b604051602081830303815290604052805190602001206040516020016120919493929190613f6d565b604051602081830303815290604052805190602001209150509392505050565b5050505050565b8280546120c490613600565b90600052602060002090601f0160209004810192826120e6576000855561212d565b82601f106120ff57805160ff191683800117855561212d565b8280016001018555821561212d579182015b8281111561212c578251825591602001919060010190612111565b5b50905061213a919061217e565b5090565b50805461214a90613600565b6000825580601f1061215c575061217b565b601f01602090049060005260206000209081019061217a919061217e565b5b50565b5b8082111561219757600081600090555060010161217f565b5090565b6000604051905090565b600080fd5b600080fd5b600073ffffffffffffffffffffffffffffffffffffffff82169050919050565b60006121da826121af565b9050919050565b6121ea816121cf565b81146121f557600080fd5b50565b600081359050612207816121e1565b92915050565b6000819050919050565b6122208161220d565b811461222b57600080fd5b50565b60008135905061223d81612217565b92915050565b6000806040838503121561225a576122596121a5565b5b6000612268858286016121f8565b92505060206122798582860161222e565b9150509250929050565b61228c8161220d565b82525050565b60006020820190506122a76000830184612283565b92915050565b6000602082840312156122c3576122c26121a5565b5b60006122d1848285016121f8565b91505092915050565b600060ff82169050919050565b6122f0816122da565b81146122fb57600080fd5b50565b60008135905061230d816122e7565b92915050565b6000819050919050565b61232681612313565b811461233157600080fd5b50565b6000813590506123438161231d565b92915050565b600080fd5b600080fd5b6000601f19601f8301169050919050565b7f4e487b7100000000000000000000000000000000000000000000000000000000600052604160045260246000fd5b61239c82612353565b810181811067ffffffffffffffff821117156123bb576123ba612364565b5b80604052505050565b60006123ce61219b565b90506123da8282612393565b919050565b600067ffffffffffffffff8211156123fa576123f9612364565b5b61240382612353565b9050602081019050919050565b82818337600083830152505050565b600061243261242d846123df565b6123c4565b90508281526020810184848401111561244e5761244d61234e565b5b612459848285612410565b509392505050565b600082601f83011261247657612475612349565b5b813561248684826020860161241f565b91505092915050565b600067ffffffffffffffff8211156124aa576124a9612364565b5b6124b382612353565b9050602081019050919050565b60006124d36124ce8461248f565b6123c4565b9050828152602081018484840111156124ef576124ee61234e565b5b6124fa848285612410565b509392505050565b600082601f83011261251757612516612349565b5b81356125278482602086016124c0565b91505092915050565b600080600080600080600080610100898b031215612551576125506121a5565b5b600061255f8b828c016121f8565b98505060206125708b828c0161222e565b97505060406125818b828c0161222e565b96505060606125928b828c016122fe565b95505060806125a38b828c01612334565b94505060a06125b48b828c01612334565b93505060c089013567ffffffffffffffff8111156125d5576125d46121aa565b5b6125e18b828c01612461565b92505060e089013567ffffffffffffffff811115612602576126016121aa565b5b61260e8b828c01612502565b9150509295985092959890939650565b60008115159050919050565b6126338161261e565b811461263e57600080fd5b50565b6000813590506126508161262a565b92915050565b600080600080608085870312156126705761266f6121a5565b5b600061267e878288016121f8565b945050602061268f8782880161222e565b93505060406126a08782880161222e565b92505060606126b187828801612641565b91505092959194509250565b6126c681612313565b82525050565b60006020820190506126e160008301846126bd565b92915050565b600080600080600060a08688031215612703576127026121a5565b5b6000612711888289016121f8565b95505060206127228882890161222e565b94505060406127338882890161222e565b935050606086013567ffffffffffffffff811115612754576127536121aa565b5b61276088828901612461565b925050608086013567ffffffffffffffff811115612781576127806121aa565b5b61278d88828901612502565b9150509295509295909350565b600067ffffffffffffffff8211156127b5576127b4612364565b5b602082029050602081019050919050565b600080fd5b60006127de6127d98461279a565b6123c4565b90508083825260208201905060208402830185811115612801576128006127c6565b5b835b8181101561282a5780612816888261222e565b845260208401935050602081019050612803565b5050509392505050565b600082601f83011261284957612848612349565b5b81356128598482602086016127cb565b91505092915050565b6000806000806080858703121561287c5761287b6121a5565b5b600061288a878288016121f8565b945050602085013567ffffffffffffffff8111156128ab576128aa6121aa565b5b6128b787828801612834565b935050604085013567ffffffffffffffff8111156128d8576128d76121aa565b5b6128e487828801612834565b92505060606128f587828801612641565b91505092959194509250565b600060208284031215612917576129166121a5565b5b600082013567ffffffffffffffff811115612935576129346121aa565b5b61294184828501612461565b91505092915050565b600067ffffffffffffffff82111561296557612964612364565b5b602082029050602081019050919050565b60006129896129848461294a565b6123c4565b905080838252602082019050602084028301858111156129ac576129ab6127c6565b5b835b818110156129d557806129c188826121f8565b8452602084019350506020810190506129ae565b5050509392505050565b600082601f8301126129f4576129f3612349565b5b8135612a04848260208601612976565b91505092915050565b600067ffffffffffffffff821115612a2857612a27612364565b5b602082029050602081019050919050565b6000612a4c612a4784612a0d565b6123c4565b90508083825260208201905060208402830185811115612a6f57612a6e6127c6565b5b835b81811015612ab657803567ffffffffffffffff811115612a9457612a93612349565b5b808601612aa18982612834565b85526020850194505050602081019050612a71565b5050509392505050565b600082601f830112612ad557612ad4612349565b5b8135612ae5848260208601612a39565b91505092915050565b600067ffffffffffffffff821115612b0957612b08612364565b5b602082029050602081019050919050565b600067ffffffffffffffff821115612b3557612b34612364565b5b602082029050602081019050919050565b6000612b59612b5484612b1a565b6123c4565b90508083825260208201905060208402830185811115612b7c57612b7b6127c6565b5b835b81811015612bc357803567ffffffffffffffff811115612ba157612ba0612349565b5b808601612bae8982612461565b85526020850194505050602081019050612b7e565b5050509392505050565b600082601f830112612be257612be1612349565b5b8135612bf2848260208601612b46565b91505092915050565b6000612c0e612c0984612aee565b6123c4565b90508083825260208201905060208402830185811115612c3157612c306127c6565b5b835b81811015612c7857803567ffffffffffffffff811115612c5657612c55612349565b5b808601612c638982612bcd565b85526020850194505050602081019050612c33565b5050509392505050565b600082601f830112612c9757612c96612349565b5b8135612ca7848260208601612bfb565b91505092915050565b600067ffffffffffffffff821115612ccb57612cca612364565b5b602082029050602081019050919050565b6000612cef612cea84612cb0565b6123c4565b90508083825260208201905060208402830185811115612d1257612d116127c6565b5b835b81811015612d5957803567ffffffffffffffff811115612d3757612d36612349565b5b808601612d448982612502565b85526020850194505050602081019050612d14565b5050509392505050565b600082601f830112612d7857612d77612349565b5b8135612d88848260208601612cdc565b91505092915050565b600080600080600060a08688031215612dad57612dac6121a5565b5b600086013567ffffffffffffffff811115612dcb57612dca6121aa565b5b612dd7888289016129df565b955050602086013567ffffffffffffffff811115612df857612df76121aa565b5b612e0488828901612ac0565b945050604086013567ffffffffffffffff811115612e2557612e246121aa565b5b612e3188828901612ac0565b935050606086013567ffffffffffffffff811115612e5257612e516121aa565b5b612e5e88828901612c82565b925050608086013567ffffffffffffffff811115612e7f57612e7e6121aa565b5b612e8b88828901612d63565b9150509295509295909350565b612ea1816121cf565b82525050565b6000602082019050612ebc6000830184612e98565b92915050565b600060208284031215612ed857612ed76121a5565b5b600082013567ffffffffffffffff811115612ef657612ef56121aa565b5b612f0284828501612502565b91505092915050565b612f14816122da565b82525050565b6000606082019050612f2f60008301866126bd565b612f3c60208301856126bd565b612f496040830184612f0b565b949350505050565b60008060408385031215612f6857612f676121a5565b5b6000612f76858286016121f8565b925050602083013567ffffffffffffffff811115612f9757612f966121aa565b5b612fa385828601612834565b9150509250929050565b600081519050919050565b600082825260208201905092915050565b6000819050602082019050919050565b612fe28161220d565b82525050565b6000612ff48383612fd9565b60208301905092915050565b6000602082019050919050565b600061301882612fad565b6130228185612fb8565b935061302d83612fc9565b8060005b8381101561305e5781516130458882612fe8565b975061305083613000565b925050600181019050613031565b5085935050505092915050565b60006020820190508181036000830152613085818461300d565b905092915050565b6000602082840312156130a3576130a26121a5565b5b60006130b18482850161222e565b91505092915050565b600081519050919050565b600082825260208201905092915050565b60005b838110156130f45780820151818401526020810190506130d9565b83811115613103576000848401525b50505050565b6000613114826130ba565b61311e81856130c5565b935061312e8185602086016130d6565b61313781612353565b840191505092915050565b6000602082019050818103600083015261315c8184613109565b905092915050565b6000806040838503121561317b5761317a6121a5565b5b600083013567ffffffffffffffff811115613199576131986121aa565b5b6131a5858286016129df565b925050602083013567ffffffffffffffff8111156131c6576131c56121aa565b5b6131d285828601612ac0565b9150509250929050565b600081519050919050565b600082825260208201905092915050565b6000819050602082019050919050565b600082825260208201905092915050565b600061322482612fad565b61322e8185613208565b935061323983612fc9565b8060005b8381101561326a5781516132518882612fe8565b975061325c83613000565b92505060018101905061323d565b5085935050505092915050565b60006132838383613219565b905092915050565b6000602082019050919050565b60006132a3826131dc565b6132ad81856131e7565b9350836020820285016132bf856131f8565b8060005b858110156132fb57848403895281516132dc8582613277565b94506132e78361328b565b925060208a019950506001810190506132c3565b50829750879550505050505092915050565b600060208201905081810360008301526133278184613298565b905092915050565b7f455243313233383a2062616c616e636520717565727920666f7220746865207a60008201527f65726f2061646472657373000000000000000000000000000000000000000000602082015250565b600061338b602b836130c5565b91506133968261332f565b604082019050919050565b600060208201905081810360008301526133ba8161337e565b9050919050565b7f556e617574686f72697a65643a2073656e646572206973206e6f74207468652060008201527f6f776e6572000000000000000000000000000000000000000000000000000000602082015250565b600061341d6025836130c5565b9150613428826133c1565b604082019050919050565b6000602082019050818103600083015261344c81613410565b9050919050565b7f496e76616c6964206164647265737320666f72206e6577206f776e6572000000600082015250565b6000613489601d836130c5565b915061349482613453565b602082019050919050565b600060208201905081810360008301526134b88161347c565b9050919050565b7f4e487b7100000000000000000000000000000000000000000000000000000000600052603260045260246000fd5b7f4e487b7100000000000000000000000000000000000000000000000000000000600052601160045260246000fd5b60006135288261220d565b91507fffffffffffffffffffffffffffffffffffffffffffffffffffffffffffffffff820361355a576135596134ee565b5b600182019050919050565b7f696e76616c6964207369676e6174757265206c656e6774680000000000000000600082015250565b600061359b6018836130c5565b91506135a682613565565b602082019050919050565b600060208201905081810360008301526135ca8161358e565b9050919050565b7f4e487b7100000000000000000000000000000000000000000000000000000000600052602260045260246000fd5b6000600282049050600182168061361857607f821691505b60208210810361362b5761362a6135d1565b5b50919050565b7f455243313233383a206275726e2066726f6d20746865207a65726f206164647260008201527f6573730000000000000000000000000000000000000000000000000000000000602082015250565b600061368d6023836130c5565b915061369882613631565b604082019050919050565b600060208201905081810360008301526136bc81613680565b9050919050565b7f455243313233383a206275726e20616d6f756e7420657863656564732062616c60008201527f616e636500000000000000000000000000000000000000000000000000000000602082015250565b600061371f6024836130c5565b915061372a826136c3565b604082019050919050565b6000602082019050818103600083015261374e81613712565b9050919050565b7f455243313233383a20526563697069656e74206973206e6f74206120636f6e7460008201527f7261637400000000000000000000000000000000000000000000000000000000602082015250565b60006137b16024836130c5565b91506137bc82613755565b604082019050919050565b600060208201905081810360008301526137e0816137a4565b9050919050565b7f455243313233383a2069647320616e6420616d6f756e7473206c656e6774682060008201527f6d69736d61746368000000000000000000000000000000000000000000000000602082015250565b60006138436028836130c5565b915061384e826137e7565b604082019050919050565b6000602082019050818103600083015261387281613836565b9050919050565b60006040820190508181036000830152613893818561300d565b905081810360208301526138a7818461300d565b90509392505050565b7f4552433132333853746f726167653a2069647320616e6420746f6b656e20555260008201527f4973206c656e677468206d69736d617463680000000000000000000000000000602082015250565b600061390c6032836130c5565b9150613917826138b0565b604082019050919050565b6000602082019050818103600083015261393b816138ff565b9050919050565b600060808201905061395760008301876126bd565b6139646020830186612e98565b6139716040830185612283565b61397e6060830184612283565b95945050505050565b600081905092915050565b7f1901000000000000000000000000000000000000000000000000000000000000600082015250565b60006139c8600283613987565b91506139d382613992565b600282019050919050565b6000819050919050565b6139f96139f482612313565b6139de565b82525050565b6000613a0a826139bb565b9150613a1682856139e8565b602082019150613a2682846139e8565b6020820191508190509392505050565b6000608082019050613a4b60008301876126bd565b613a586020830186612f0b565b613a6560408301856126bd565b613a7260608301846126bd565b95945050505050565b7f455243313233383a20417070726f76616c20766572696669636174696f6e206660008201527f61696c6564000000000000000000000000000000000000000000000000000000602082015250565b6000613ad76025836130c5565b9150613ae282613a7b565b604082019050919050565b60006020820190508181036000830152613b0681613aca565b9050919050565b6000613b188261220d565b9150613b238361220d565b9250827fffffffffffffffffffffffffffffffffffffffffffffffffffffffffffffffff03821115613b5857613b576134ee565b5b828201905092915050565b600081519050919050565b600082825260208201905092915050565b6000613b8a82613b63565b613b948185613b6e565b9350613ba48185602086016130d6565b613bad81612353565b840191505092915050565b6000608082019050613bcd6000830187612e98565b613bda6020830186612283565b613be76040830185612283565b8181036060830152613bf98184613b7f565b905095945050505050565b60007fffffffff0000000000000000000000000000000000000000000000000000000082169050919050565b613c3981613c04565b8114613c4457600080fd5b50565b600081519050613c5681613c30565b92915050565b600060208284031215613c7257613c716121a5565b5b6000613c8084828501613c47565b91505092915050565b60008160e01c9050919050565b600060033d1115613cb55760046000803e613cb2600051613c89565b90505b90565b600060443d10613d4557613cca61219b565b60043d036004823e80513d602482011167ffffffffffffffff82111715613cf2575050613d45565b808201805167ffffffffffffffff811115613d105750505050613d45565b80602083010160043d038501811115613d2d575050505050613d45565b613d3c82602001850186612393565b82955050505050505b90565b7f455243313233383a207472616e7366657220746f206e6f6e204552433132333860008201527f526563656976657220696d706c656d656e746572000000000000000000000000602082015250565b6000613da46034836130c5565b9150613daf82613d48565b604082019050919050565b60006020820190508181036000830152613dd381613d97565b9050919050565b7f455243313233383a204552433132333852656365697665722072656a6563746560008201527f6420746f6b656e73000000000000000000000000000000000000000000000000602082015250565b6000613e366028836130c5565b9150613e4182613dda565b604082019050919050565b60006020820190508181036000830152613e6581613e29565b9050919050565b6000608082019050613e816000830187612e98565b8181036020830152613e93818661300d565b90508181036040830152613ea7818561300d565b90508181036060830152613ebb8184613b7f565b905095945050505050565b600081905092915050565b613eda8161220d565b82525050565b6000613eec8383613ed1565b60208301905092915050565b6000613f0382612fad565b613f0d8185613ec6565b9350613f1883612fc9565b8060005b83811015613f49578151613f308882613ee0565b9750613f3b83613000565b925050600181019050613f1c565b5085935050505092915050565b6000613f628284613ef8565b915081905092915050565b6000608082019050613f8260008301876126bd565b613f8f6020830186612e98565b613f9c60408301856126bd565b613fa960608301846126bd565b9594505050505056fea2646970667358221220cdd12aebea91e2191bc825a09f5ab80295cba2b3df8e5cc7ceaa89bdf5f56b8f64736f6c634300080d0033",
  "immutableReferences": {},
  "source": "// SPDX-License-Identifier: MIT\r\npragma solidity ^0.8.0;\r\n\r\nimport \"./ERC1238/extensions/ERC1238URIStorage.sol\";\r\nimport \"./utils/AddressMinimal.sol\";\r\n\r\ncontract Badge is ERC1238, ERC1238URIStorage {\r\n    using Address for address;\r\n    address public owner;\r\n\r\n    constructor(address owner_, string memory baseURI_) ERC1238(baseURI_) {\r\n        owner = owner_;\r\n    }\r\n\r\n    modifier onlyOwner() {\r\n        require(msg.sender == owner, \"Unauthorized: sender is not the owner\");\r\n        _;\r\n    }\r\n\r\n    function setOwner(address newOwner) external onlyOwner {\r\n        require(newOwner != address(0), \"Invalid address for new owner\");\r\n        owner = newOwner;\r\n    }\r\n\r\n    function setBaseURI(string memory newBaseURI) external onlyOwner {\r\n        _setBaseURI(newBaseURI);\r\n    }\r\n    \r\n    function mintToEOA(\r\n        address to,\r\n        uint256 id,\r\n        uint256 amount,\r\n        uint8 v,\r\n        bytes32 r,\r\n        bytes32 s,\r\n        string memory uri,\r\n        bytes memory data\r\n    ) external onlyOwner {\r\n        _mintToEOA(to, id, amount, v, r, s, data);\r\n        _setTokenURI(id, uri);\r\n    }\r\n\r\n    function mintToContract(\r\n        address to,\r\n        uint256 id,\r\n        uint256 amount,\r\n        string memory uri,\r\n        bytes memory data\r\n    ) external onlyOwner {\r\n        _mintToContract(to, id, amount, data);\r\n        _setTokenURI(id, uri);\r\n    }\r\n\r\n    function mintBundle(\r\n        address[] memory to,\r\n        uint256[][] memory ids,\r\n        uint256[][] memory amounts,\r\n        string[][] memory uris,\r\n        bytes[] memory data\r\n    ) external onlyOwner {\r\n        for (uint256 i = 0; i < to.length; i++) {\r\n            _setBatchTokenURI(ids[i], uris[i]);\r\n\r\n            if (to[i].isContract()) {\r\n                _mintBatchToContract(to[i], ids[i], amounts[i], data[i]);\r\n            } else {\r\n                (bytes32 r, bytes32 s, uint8 v) = splitSignature(data[i]);\r\n                _mintBatchToEOA(to[i], ids[i], amounts[i], v, r, s, data[i]);\r\n            }\r\n        }\r\n    }\r\n\r\n    function burn(\r\n        address from,\r\n        uint256 id,\r\n        uint256 amount,\r\n        bool deleteURI\r\n    ) external onlyOwner {\r\n        if (deleteURI) {\r\n            _burnAndDeleteURI(from, id, amount);\r\n        } else {\r\n            _burn(from, id, amount);\r\n        }\r\n    }\r\n\r\n    function burnBatch(\r\n        address from,\r\n        uint256[] memory ids,\r\n        uint256[] memory amounts,\r\n        bool deleteURI\r\n    ) external onlyOwner {\r\n        if (deleteURI) {\r\n            _burnBatchAndDeleteURIs(from, ids, amounts);\r\n        } else {\r\n            _burnBatch(from, ids, amounts);\r\n        }\r\n    }\r\n\r\n    /**\r\n     * @dev Destroys `amount` of tokens with id `id` owned by `from` and deletes the associated URI.\r\n     *\r\n     * Requirements:\r\n     *  - A token URI must be set.\r\n     *  - All tokens of this type must have been burned.\r\n     */\r\n    function _burnAndDeleteURI(\r\n        address from,\r\n        uint256 id,\r\n        uint256 amount\r\n    ) internal virtual {\r\n        super._burn(from, id, amount);\r\n\r\n        _deleteTokenURI(id);\r\n    }\r\n\r\n    /**\r\n     * @dev [Batched] version of {_burnAndDeleteURI}.\r\n     *\r\n     * Requirements:\r\n     *\r\n     * - `ids` and `amounts` must have the same length.\r\n     * - For each id the balance of `from` must be at least the amount wished to be burnt.\r\n     *\r\n     * Emits a {BurnBatch} event.\r\n     */\r\n    function _burnBatchAndDeleteURIs(\r\n        address from,\r\n        uint256[] memory ids,\r\n        uint256[] memory amounts\r\n    ) internal virtual {\r\n        require(from != address(0), \"ERC1238: burn from the zero address\");\r\n        require(ids.length == amounts.length, \"ERC1238: ids and amounts length mismatch\");\r\n\r\n        address burner = msg.sender;\r\n\r\n        for (uint256 i = 0; i < ids.length; i++) {\r\n            uint256 id = ids[i];\r\n            uint256 amount = amounts[i];\r\n\r\n            _beforeBurn(burner, from, id, amount);\r\n\r\n            uint256 fromBalance = _balances[id][from];\r\n            require(fromBalance >= amount, \"ERC1238: burn amount exceeds balance\");\r\n            unchecked {\r\n                _balances[id][from] = fromBalance - amount;\r\n            }\r\n\r\n            _deleteTokenURI(id);\r\n        }\r\n\r\n        emit BurnBatch(burner, from, ids, amounts);\r\n    }\r\n}\r\n",
  "sourcePath": "F:\\Workspace\\Orders\\ONERep\\ONERep.github\\dat\\badge-truffle\\contracts\\Badge.sol",
  "compiler": {
    "name": "solc",
    "version": "0.8.13+commit.abaa5c0e.Emscripten.clang"
  },
  "schemaVersion": "3.4.7",
  "updatedAt": "2022-06-14T03:16:16.599Z",
  "devdoc": {
    "kind": "dev",
    "methods": {
      "balanceOf(address,uint256)": {
        "details": "See {IERC1238-balanceOf}. Requirements: - `account` cannot be the zero address."
      },
      "balanceOfBatch(address,uint256[])": {
        "details": "See {IERC1238-balanceOfBatch}."
      },
      "balanceOfBundle(address[],uint256[][])": {
        "details": "See {IERC1238-balanceOfBundle}."
      },
      "tokenURI(uint256)": {
        "details": "See {IERC1238URIStorage-tokenURI}."
      }
    },
    "version": 1
  },
  "userdoc": {
    "kind": "user",
    "methods": {},
    "version": 1
  }
}