{
  "contractName": "ERC1238ReceiverMock",
  "abi": [
    {
      "inputs": [],
      "name": "ERC1238_ON_BATCH_MINT",
      "outputs": [
        {
          "internalType": "bytes4",
          "name": "",
          "type": "bytes4"
        }
      ],
      "stateMutability": "view",
      "type": "function"
    },
    {
      "inputs": [],
      "name": "ERC1238_ON_MINT",
      "outputs": [
        {
          "internalType": "bytes4",
          "name": "",
          "type": "bytes4"
        }
      ],
      "stateMutability": "view",
      "type": "function"
    },
    {
      "inputs": [
        {
          "internalType": "bytes4",
          "name": "interfaceId",
          "type": "bytes4"
        }
      ],
      "name": "supportsInterface",
      "outputs": [
        {
          "internalType": "bool",
          "name": "",
          "type": "bool"
        }
      ],
      "stateMutability": "view",
      "type": "function"
    },
    {
      "inputs": [
        {
          "internalType": "address",
          "name": "",
          "type": "address"
        },
        {
          "internalType": "uint256",
          "name": "id",
          "type": "uint256"
        },
        {
          "internalType": "uint256",
          "name": "",
          "type": "uint256"
        },
        {
          "internalType": "bytes",
          "name": "",
          "type": "bytes"
        }
      ],
      "name": "onERC1238Mint",
      "outputs": [
        {
          "internalType": "bytes4",
          "name": "",
          "type": "bytes4"
        }
      ],
      "stateMutability": "pure",
      "type": "function"
    },
    {
      "inputs": [
        {
          "internalType": "address",
          "name": "",
          "type": "address"
        },
        {
          "internalType": "uint256[]",
          "name": "ids",
          "type": "uint256[]"
        },
        {
          "internalType": "uint256[]",
          "name": "",
          "type": "uint256[]"
        },
        {
          "internalType": "bytes",
          "name": "",
          "type": "bytes"
        }
      ],
      "name": "onERC1238BatchMint",
      "outputs": [
        {
          "internalType": "bytes4",
          "name": "",
          "type": "bytes4"
        }
      ],
      "stateMutability": "pure",
      "type": "function"
    }
  ],
  "bytecode": "0x608060405234801561001057600080fd5b5061060a806100206000396000f3fe608060405234801561001057600080fd5b50600436106100575760003560e01c806301ffc9a71461005c57806345ed75d51461008c5780635f6ea4d6146100bc578063c0bfec68146100da578063db3778e61461010a575b600080fd5b61007660048036038101906100719190610278565b610128565b60405161008391906102c0565b60405180910390f35b6100a660048036038101906100a191906103d4565b610192565b6040516100b3919061046b565b60405180910390f35b6100c46101bb565b6040516100d1919061046b565b60405180910390f35b6100f460048036038101906100ef91906104dc565b6101c6565b604051610101919061046b565b60405180910390f35b61011261020b565b60405161011f919061046b565b60405180910390f35b60007f01ffc9a7000000000000000000000000000000000000000000000000000000007bffffffffffffffffffffffffffffffffffffffffffffffffffffffff1916827bffffffffffffffffffffffffffffffffffffffffffffffffffffffff1916149050919050565b60008085036101a757600060e01b90506101b2565b6345ed75d560e01b90505b95945050505050565b6345ed75d560e01b81565b600080878760008181106101dd576101dc6105a5565b5b90506020020135036101f557600060e01b9050610200565b63c0bfec6860e01b90505b979650505050505050565b63c0bfec6860e01b81565b600080fd5b600080fd5b60007fffffffff0000000000000000000000000000000000000000000000000000000082169050919050565b61025581610220565b811461026057600080fd5b50565b6000813590506102728161024c565b92915050565b60006020828403121561028e5761028d610216565b5b600061029c84828501610263565b91505092915050565b60008115159050919050565b6102ba816102a5565b82525050565b60006020820190506102d560008301846102b1565b92915050565b600073ffffffffffffffffffffffffffffffffffffffff82169050919050565b6000610306826102db565b9050919050565b610316816102fb565b811461032157600080fd5b50565b6000813590506103338161030d565b92915050565b6000819050919050565b61034c81610339565b811461035757600080fd5b50565b60008135905061036981610343565b92915050565b600080fd5b600080fd5b600080fd5b60008083601f8401126103945761039361036f565b5b8235905067ffffffffffffffff8111156103b1576103b0610374565b5b6020830191508360018202830111156103cd576103cc610379565b5b9250929050565b6000806000806000608086880312156103f0576103ef610216565b5b60006103fe88828901610324565b955050602061040f8882890161035a565b94505060406104208882890161035a565b935050606086013567ffffffffffffffff8111156104415761044061021b565b5b61044d8882890161037e565b92509250509295509295909350565b61046581610220565b82525050565b6000602082019050610480600083018461045c565b92915050565b60008083601f84011261049c5761049b61036f565b5b8235905067ffffffffffffffff8111156104b9576104b8610374565b5b6020830191508360208202830111156104d5576104d4610379565b5b9250929050565b60008060008060008060006080888a0312156104fb576104fa610216565b5b60006105098a828b01610324565b975050602088013567ffffffffffffffff81111561052a5761052961021b565b5b6105368a828b01610486565b9650965050604088013567ffffffffffffffff8111156105595761055861021b565b5b6105658a828b01610486565b9450945050606088013567ffffffffffffffff8111156105885761058761021b565b5b6105948a828b0161037e565b925092505092959891949750929550565b7f4e487b7100000000000000000000000000000000000000000000000000000000600052603260045260246000fdfea2646970667358221220a04d52d6ae78cc3421dcdf469bd39a9cdad7cbac83fe89b9d26e5f13ee87431864736f6c634300080d0033",
  "immutableReferences": {},
  "source": "// SPDX-License-Identifier: MIT\r\n\r\npragma solidity ^0.8.0;\r\n\r\nimport \"./ERC1238/IERC1238Receiver.sol\";\r\nimport \"./utils/ERC165.sol\";\r\n\r\n// This is a dummy example of a ERC1238Receiver with arbitrary rules.\r\n// It will reject non-transferable tokens if the token id is 0 in the case of a single token mint\r\n// or if the first token id is 0 for a batch mint.\r\ncontract ERC1238ReceiverMock is ERC165, IERC1238Receiver {\r\n    //  bytes4(keccak256(\"onERC1238Mint(address,uint256,uint256,bytes)\"))\r\n    bytes4 public constant ERC1238_ON_MINT = 0x45ed75d5;\r\n\r\n    // bytes4(keccak256(\"onERC1238BatchMint(address,uint256[],uint256[],bytes)\"))\r\n    bytes4 public constant ERC1238_ON_BATCH_MINT = 0xc0bfec68;\r\n\r\n    function onERC1238Mint(\r\n        address,\r\n        uint256 id,\r\n        uint256,\r\n        bytes calldata\r\n    ) external pure override returns (bytes4) {\r\n        if (id == 0) {\r\n            return bytes4(0);\r\n        }\r\n\r\n        return ERC1238_ON_MINT;\r\n    }\r\n\r\n    function onERC1238BatchMint(\r\n        address,\r\n        uint256[] calldata ids,\r\n        uint256[] calldata,\r\n        bytes calldata\r\n    ) external pure override returns (bytes4) {\r\n        if (ids[0] == 0) {\r\n            return bytes4(0);\r\n        }\r\n\r\n        return ERC1238_ON_BATCH_MINT;\r\n    }\r\n\r\n    // function supportsInterface(bytes4 interfaceId) public view virtual override(ERC165, IERC165) returns (bool) {\r\n    //     return interfaceId == type(IERC1238Receiver).interfaceId || super.supportsInterface(interfaceId);\r\n    // }\r\n}",
  "sourcePath": "F:\\Workspace\\Orders\\ONERep\\ONERep.github\\dat\\badge-truffle\\contracts\\ERC1238ReceiverMock.sol",
  "compiler": {
    "name": "solc",
    "version": "0.8.13+commit.abaa5c0e.Emscripten.clang"
  },
  "schemaVersion": "3.4.7",
  "updatedAt": "2022-06-14T03:16:16.711Z",
  "devdoc": {
    "kind": "dev",
    "methods": {
      "supportsInterface(bytes4)": {
        "details": "See {IERC165-supportsInterface}."
      }
    },
    "version": 1
  },
  "userdoc": {
    "kind": "user",
    "methods": {},
    "version": 1
  }
}