{
  "contractName": "ERC1238",
  "abi": [
    {
      "inputs": [
        {
          "internalType": "string",
          "name": "baseURI_",
          "type": "string"
        }
      ],
      "stateMutability": "nonpayable",
      "type": "constructor"
    },
    {
      "anonymous": false,
      "inputs": [
        {
          "indexed": true,
          "internalType": "address",
          "name": "burner",
          "type": "address"
        },
        {
          "indexed": true,
          "internalType": "address",
          "name": "owner",
          "type": "address"
        },
        {
          "indexed": false,
          "internalType": "uint256[]",
          "name": "ids",
          "type": "uint256[]"
        },
        {
          "indexed": false,
          "internalType": "uint256[]",
          "name": "amounts",
          "type": "uint256[]"
        }
      ],
      "name": "BurnBatch",
      "type": "event"
    },
    {
      "anonymous": false,
      "inputs": [
        {
          "indexed": true,
          "internalType": "address",
          "name": "burner",
          "type": "address"
        },
        {
          "indexed": true,
          "internalType": "address",
          "name": "owner",
          "type": "address"
        },
        {
          "indexed": true,
          "internalType": "uint256",
          "name": "id",
          "type": "uint256"
        },
        {
          "indexed": false,
          "internalType": "uint256",
          "name": "amount",
          "type": "uint256"
        }
      ],
      "name": "BurnSingle",
      "type": "event"
    },
    {
      "anonymous": false,
      "inputs": [
        {
          "indexed": false,
          "internalType": "string",
          "name": "name",
          "type": "string"
        },
        {
          "indexed": false,
          "internalType": "string",
          "name": "version",
          "type": "string"
        },
        {
          "indexed": false,
          "internalType": "uint256",
          "name": "chainId",
          "type": "uint256"
        },
        {
          "indexed": false,
          "internalType": "address",
          "name": "verifyingContract",
          "type": "address"
        },
        {
          "indexed": false,
          "internalType": "bytes32",
          "name": "dsDigest",
          "type": "bytes32"
        }
      ],
      "name": "DomainSeparatorForMintApproval",
      "type": "event"
    },
    {
      "anonymous": false,
      "inputs": [
        {
          "indexed": true,
          "internalType": "address",
          "name": "minter",
          "type": "address"
        },
        {
          "indexed": true,
          "internalType": "address",
          "name": "to",
          "type": "address"
        },
        {
          "indexed": false,
          "internalType": "uint256[]",
          "name": "ids",
          "type": "uint256[]"
        },
        {
          "indexed": false,
          "internalType": "uint256[]",
          "name": "amounts",
          "type": "uint256[]"
        }
      ],
      "name": "MintBatch",
      "type": "event"
    },
    {
      "anonymous": false,
      "inputs": [
        {
          "indexed": true,
          "internalType": "address",
          "name": "minter",
          "type": "address"
        },
        {
          "indexed": true,
          "internalType": "address",
          "name": "to",
          "type": "address"
        },
        {
          "indexed": true,
          "internalType": "uint256",
          "name": "id",
          "type": "uint256"
        },
        {
          "indexed": false,
          "internalType": "uint256",
          "name": "amount",
          "type": "uint256"
        }
      ],
      "name": "MintSingle",
      "type": "event"
    },
    {
      "inputs": [],
      "name": "DOMAIN_SEPARATOR",
      "outputs": [
        {
          "internalType": "bytes32",
          "name": "",
          "type": "bytes32"
        }
      ],
      "stateMutability": "view",
      "type": "function"
    },
    {
      "inputs": [
        {
          "internalType": "address",
          "name": "account",
          "type": "address"
        },
        {
          "internalType": "uint256",
          "name": "id",
          "type": "uint256"
        }
      ],
      "name": "balanceOf",
      "outputs": [
        {
          "internalType": "uint256",
          "name": "",
          "type": "uint256"
        }
      ],
      "stateMutability": "view",
      "type": "function"
    },
    {
      "inputs": [
        {
          "internalType": "address",
          "name": "account",
          "type": "address"
        },
        {
          "internalType": "uint256[]",
          "name": "ids",
          "type": "uint256[]"
        }
      ],
      "name": "balanceOfBatch",
      "outputs": [
        {
          "internalType": "uint256[]",
          "name": "",
          "type": "uint256[]"
        }
      ],
      "stateMutability": "view",
      "type": "function"
    },
    {
      "inputs": [
        {
          "internalType": "address[]",
          "name": "accounts",
          "type": "address[]"
        },
        {
          "internalType": "uint256[][]",
          "name": "ids",
          "type": "uint256[][]"
        }
      ],
      "name": "balanceOfBundle",
      "outputs": [
        {
          "internalType": "uint256[][]",
          "name": "",
          "type": "uint256[][]"
        }
      ],
      "stateMutability": "view",
      "type": "function"
    },
    {
      "inputs": [
        {
          "internalType": "bytes",
          "name": "sig",
          "type": "bytes"
        }
      ],
      "name": "splitSignature",
      "outputs": [
        {
          "internalType": "bytes32",
          "name": "r",
          "type": "bytes32"
        },
        {
          "internalType": "bytes32",
          "name": "s",
          "type": "bytes32"
        },
        {
          "internalType": "uint8",
          "name": "v",
          "type": "uint8"
        }
      ],
      "stateMutability": "pure",
      "type": "function"
    }
  ],
  "bytecode": "0x60806040523480156200001157600080fd5b506040516200152338038062001523833981810160405281019062000037919062000426565b600060405180608001604052806040518060400160405280601581526020017f45524331323338204d696e7420417070726f76616c000000000000000000000081525081526020016040518060400160405280600181526020017f310000000000000000000000000000000000000000000000000000000000000081525081526020014681526020013073ffffffffffffffffffffffffffffffffffffffff1681525090507f8b73c3c69bb8fe3d512ecc4cf759cc79239f7b179b0ffacaa9a75d522b39400f8160000151805190602001208260200151805190602001208360400151846060015160405160200162000135959493929190620004f2565b604051602081830303815290604052805190602001206000819055507fe5a822f101a714d5cd94a04cf067a84a2ddb69b5326b93008a040df8a74a387281600001518260200151836040015184606001516000546040516200019c959493929190620005ac565b60405180910390a150620001b681620001bd60201b60201c565b506200067b565b8060029080519060200190620001d5929190620001d9565b5050565b828054620001e79062000646565b90600052602060002090601f0160209004810192826200020b576000855562000257565b82601f106200022657805160ff191683800117855562000257565b8280016001018555821562000257579182015b828111156200025657825182559160200191906001019062000239565b5b5090506200026691906200026a565b5090565b5b80821115620002855760008160009055506001016200026b565b5090565b6000604051905090565b600080fd5b600080fd5b600080fd5b600080fd5b6000601f19601f8301169050919050565b7f4e487b7100000000000000000000000000000000000000000000000000000000600052604160045260246000fd5b620002f282620002a7565b810181811067ffffffffffffffff82111715620003145762000313620002b8565b5b80604052505050565b60006200032962000289565b9050620003378282620002e7565b919050565b600067ffffffffffffffff8211156200035a5762000359620002b8565b5b6200036582620002a7565b9050602081019050919050565b60005b838110156200039257808201518184015260208101905062000375565b83811115620003a2576000848401525b50505050565b6000620003bf620003b9846200033c565b6200031d565b905082815260208101848484011115620003de57620003dd620002a2565b5b620003eb84828562000372565b509392505050565b600082601f8301126200040b576200040a6200029d565b5b81516200041d848260208601620003a8565b91505092915050565b6000602082840312156200043f576200043e62000293565b5b600082015167ffffffffffffffff81111562000460576200045f62000298565b5b6200046e84828501620003f3565b91505092915050565b6000819050919050565b6200048c8162000477565b82525050565b6000819050919050565b620004a78162000492565b82525050565b600073ffffffffffffffffffffffffffffffffffffffff82169050919050565b6000620004da82620004ad565b9050919050565b620004ec81620004cd565b82525050565b600060a08201905062000509600083018862000481565b62000518602083018762000481565b62000527604083018662000481565b6200053660608301856200049c565b620005456080830184620004e1565b9695505050505050565b600081519050919050565b600082825260208201905092915050565b600062000578826200054f565b6200058481856200055a565b93506200059681856020860162000372565b620005a181620002a7565b840191505092915050565b600060a0820190508181036000830152620005c881886200056b565b90508181036020830152620005de81876200056b565b9050620005ef60408301866200049c565b620005fe6060830185620004e1565b6200060d608083018462000481565b9695505050505050565b7f4e487b7100000000000000000000000000000000000000000000000000000000600052602260045260246000fd5b600060028204905060018216806200065f57607f821691505b60208210810362000675576200067462000617565b5b50919050565b610e98806200068b6000396000f3fe608060405234801561001057600080fd5b50600436106100565760003560e01c8062fdd58e1461005b5780633644e5151461008b578063a7bb5803146100a9578063afd69086146100db578063dbee15241461010b575b600080fd5b610075600480360381019061007091906104ba565b61013b565b6040516100829190610509565b60405180910390f35b610093610204565b6040516100a0919061053d565b60405180910390f35b6100c360048036038101906100be919061069e565b61020a565b6040516100d293929190610703565b60405180910390f35b6100f560048036038101906100f09190610802565b610272565b604051610102919061091c565b60405180910390f35b61012560048036038101906101209190610ae2565b610333565b6040516101329190610c8b565b60405180910390f35b60008073ffffffffffffffffffffffffffffffffffffffff168373ffffffffffffffffffffffffffffffffffffffff16036101ab576040517f08c379a00000000000000000000000000000000000000000000000000000000081526004016101a290610d30565b60405180910390fd5b6001600083815260200190815260200160002060008473ffffffffffffffffffffffffffffffffffffffff1673ffffffffffffffffffffffffffffffffffffffff16815260200190815260200160002054905092915050565b60005481565b60008060006041845114610253576040517f08c379a000000000000000000000000000000000000000000000000000000000815260040161024a90610d9c565b60405180910390fd5b6020840151925060408401519150606084015160001a90509193909250565b60606000825167ffffffffffffffff81111561029157610290610573565b5b6040519080825280602002602001820160405280156102bf5781602001602082028036833780820191505090505b50905060008351905060005b81811015610327576102f7868683815181106102ea576102e9610dbc565b5b602002602001015161013b565b83828151811061030a57610309610dbc565b5b6020026020010181815250508061032090610e1a565b90506102cb565b50819250505092915050565b60606000835167ffffffffffffffff81111561035257610351610573565b5b60405190808252806020026020018201604052801561038557816020015b60608152602001906001900390816103705790505b50905060008451905060005b81811015610406576103d78682815181106103af576103ae610dbc565b5b60200260200101518683815181106103ca576103c9610dbc565b5b6020026020010151610272565b8382815181106103ea576103e9610dbc565b5b6020026020010181905250806103ff90610e1a565b9050610391565b50819250505092915050565b6000604051905090565b600080fd5b600080fd5b600073ffffffffffffffffffffffffffffffffffffffff82169050919050565b600061045182610426565b9050919050565b61046181610446565b811461046c57600080fd5b50565b60008135905061047e81610458565b92915050565b6000819050919050565b61049781610484565b81146104a257600080fd5b50565b6000813590506104b48161048e565b92915050565b600080604083850312156104d1576104d061041c565b5b60006104df8582860161046f565b92505060206104f0858286016104a5565b9150509250929050565b61050381610484565b82525050565b600060208201905061051e60008301846104fa565b92915050565b6000819050919050565b61053781610524565b82525050565b6000602082019050610552600083018461052e565b92915050565b600080fd5b600080fd5b6000601f19601f8301169050919050565b7f4e487b7100000000000000000000000000000000000000000000000000000000600052604160045260246000fd5b6105ab82610562565b810181811067ffffffffffffffff821117156105ca576105c9610573565b5b80604052505050565b60006105dd610412565b90506105e982826105a2565b919050565b600067ffffffffffffffff82111561060957610608610573565b5b61061282610562565b9050602081019050919050565b82818337600083830152505050565b600061064161063c846105ee565b6105d3565b90508281526020810184848401111561065d5761065c61055d565b5b61066884828561061f565b509392505050565b600082601f83011261068557610684610558565b5b813561069584826020860161062e565b91505092915050565b6000602082840312156106b4576106b361041c565b5b600082013567ffffffffffffffff8111156106d2576106d1610421565b5b6106de84828501610670565b91505092915050565b600060ff82169050919050565b6106fd816106e7565b82525050565b6000606082019050610718600083018661052e565b610725602083018561052e565b61073260408301846106f4565b949350505050565b600067ffffffffffffffff82111561075557610754610573565b5b602082029050602081019050919050565b600080fd5b600061077e6107798461073a565b6105d3565b905080838252602082019050602084028301858111156107a1576107a0610766565b5b835b818110156107ca57806107b688826104a5565b8452602084019350506020810190506107a3565b5050509392505050565b600082601f8301126107e9576107e8610558565b5b81356107f984826020860161076b565b91505092915050565b600080604083850312156108195761081861041c565b5b60006108278582860161046f565b925050602083013567ffffffffffffffff81111561084857610847610421565b5b610854858286016107d4565b9150509250929050565b600081519050919050565b600082825260208201905092915050565b6000819050602082019050919050565b61089381610484565b82525050565b60006108a5838361088a565b60208301905092915050565b6000602082019050919050565b60006108c98261085e565b6108d38185610869565b93506108de8361087a565b8060005b8381101561090f5781516108f68882610899565b9750610901836108b1565b9250506001810190506108e2565b5085935050505092915050565b6000602082019050818103600083015261093681846108be565b905092915050565b600067ffffffffffffffff82111561095957610958610573565b5b602082029050602081019050919050565b600061097d6109788461093e565b6105d3565b905080838252602082019050602084028301858111156109a05761099f610766565b5b835b818110156109c957806109b5888261046f565b8452602084019350506020810190506109a2565b5050509392505050565b600082601f8301126109e8576109e7610558565b5b81356109f884826020860161096a565b91505092915050565b600067ffffffffffffffff821115610a1c57610a1b610573565b5b602082029050602081019050919050565b6000610a40610a3b84610a01565b6105d3565b90508083825260208201905060208402830185811115610a6357610a62610766565b5b835b81811015610aaa57803567ffffffffffffffff811115610a8857610a87610558565b5b808601610a9589826107d4565b85526020850194505050602081019050610a65565b5050509392505050565b600082601f830112610ac957610ac8610558565b5b8135610ad9848260208601610a2d565b91505092915050565b60008060408385031215610af957610af861041c565b5b600083013567ffffffffffffffff811115610b1757610b16610421565b5b610b23858286016109d3565b925050602083013567ffffffffffffffff811115610b4457610b43610421565b5b610b5085828601610ab4565b9150509250929050565b600081519050919050565b600082825260208201905092915050565b6000819050602082019050919050565b600082825260208201905092915050565b6000610ba28261085e565b610bac8185610b86565b9350610bb78361087a565b8060005b83811015610be8578151610bcf8882610899565b9750610bda836108b1565b925050600181019050610bbb565b5085935050505092915050565b6000610c018383610b97565b905092915050565b6000602082019050919050565b6000610c2182610b5a565b610c2b8185610b65565b935083602082028501610c3d85610b76565b8060005b85811015610c795784840389528151610c5a8582610bf5565b9450610c6583610c09565b925060208a01995050600181019050610c41565b50829750879550505050505092915050565b60006020820190508181036000830152610ca58184610c16565b905092915050565b600082825260208201905092915050565b7f455243313233383a2062616c616e636520717565727920666f7220746865207a60008201527f65726f2061646472657373000000000000000000000000000000000000000000602082015250565b6000610d1a602b83610cad565b9150610d2582610cbe565b604082019050919050565b60006020820190508181036000830152610d4981610d0d565b9050919050565b7f696e76616c6964207369676e6174757265206c656e6774680000000000000000600082015250565b6000610d86601883610cad565b9150610d9182610d50565b602082019050919050565b60006020820190508181036000830152610db581610d79565b9050919050565b7f4e487b7100000000000000000000000000000000000000000000000000000000600052603260045260246000fd5b7f4e487b7100000000000000000000000000000000000000000000000000000000600052601160045260246000fd5b6000610e2582610484565b91507fffffffffffffffffffffffffffffffffffffffffffffffffffffffffffffffff8203610e5757610e56610deb565b5b60018201905091905056fea2646970667358221220269a676b1f596eaff5be52e8d39d313109e4dee7a1110b53d776548c1843d93964736f6c634300080d0033",
  "immutableReferences": {},
  "source": "// SPDX-License-Identifier: MIT\n\npragma solidity ^0.8.0;\n\nimport \"./IERC1238.sol\";\nimport \"./ERC1238Approval.sol\";\nimport \"./IERC1238Receiver.sol\";\nimport \"../utils/AddressMinimal.sol\";\n\n/**\n * @dev Implementation proposal for non-transferable (Badge) tokens\n * See https://github.com/ethereum/EIPs/issues/1238\n */\ncontract ERC1238 is IERC1238, ERC1238Approval {\n    using Address for address;\n\n    // Mapping from token ID to account balances\n    mapping(uint256 => mapping(address => uint256)) internal _balances;\n\n    // Used as the URI by default for all token types by relying on ID substitution,\n    // e.g. https://token-cdn-domain/{id}.json\n    string private baseURI;\n\n    /**\n     * @dev Initializes the contract by setting a `baseURI`.\n     * See {_setBaseURI}\n     */\n    constructor(string memory baseURI_) {\n        _setBaseURI(baseURI_);\n    }\n\n    // TODO: Add support for ERC165\n    // function supportsInterface(bytes4 interfaceId) public view virtual override(ERC165, IERC165) returns (bool) {\n    //     return\n    //\n    // }\n\n    /**\n     * @dev This implementation returns the same URI for *all* token types. It relies\n     * on the token type ID substitution mechanism as in EIP-1155:\n     * https://eips.ethereum.org/EIPS/eip-1155#metadata\n     *\n     * Clients calling this function must replace the `\\{id\\}` substring with the\n     * actual token type ID.\n     */\n    function _baseURI() internal view virtual returns (string memory) {\n        return baseURI;\n    }\n\n    /**\n     * @dev See {IERC1238-balanceOf}.\n     *\n     * Requirements:\n     *\n     * - `account` cannot be the zero address.\n     */\n    function balanceOf(address account, uint256 id)\n        public\n        view\n        virtual\n        override\n        returns (uint256)\n    {\n        require(\n            account != address(0),\n            \"ERC1238: balance query for the zero address\"\n        );\n        return _balances[id][account];\n    }\n\n    /**\n     * @dev See {IERC1238-balanceOfBatch}.\n     *\n     */\n    function balanceOfBatch(address account, uint256[] memory ids)\n        public\n        view\n        virtual\n        override\n        returns (uint256[] memory)\n    {\n        uint256[] memory batchBalances = new uint256[](ids.length);\n\n        uint256 length = ids.length;\n        for (uint256 i = 0; i < length; ++i) {\n            batchBalances[i] = balanceOf(account, ids[i]);\n        }\n\n        return batchBalances;\n    }\n\n    /**\n     * @dev See {IERC1238-balanceOfBundle}.\n     *\n     */\n    function balanceOfBundle(address[] memory accounts, uint256[][] memory ids)\n        public\n        view\n        virtual\n        override\n        returns (uint256[][] memory)\n    {\n        uint256[][] memory bundleBalances = new uint256[][](accounts.length);\n\n        uint256 length = accounts.length;\n        for (uint256 i = 0; i < length; ++i) {\n            bundleBalances[i] = balanceOfBatch(accounts[i], ids[i]);\n        }\n\n        return bundleBalances;\n    }\n\n    /**\n     * @dev Sets a new URI for all token types, by relying on the token type ID\n     * substitution mechanism as in EIP-1155\n     * https://eips.ethereum.org/EIPS/eip-1155#metadata\n     *\n     * By this mechanism, any occurrence of the `\\{id\\}` substring in either the\n     * URI or any of the amounts in the JSON file at said URI will be replaced by\n     * clients with the token type ID.\n     *\n     * For example, the `https://token-cdn-domain/\\{id\\}.json` URI would be\n     * interpreted by clients as\n     * `https://token-cdn-domain/000000000000000000000000000000000000000000000000000000000004cce0.json`\n     * for token type ID 0x4cce0.\n     *\n     *\n     * Because these URIs cannot be meaningfully represented by the {URI} event,\n     * this function emits no events.\n     */\n    function _setBaseURI(string memory newBaseURI) internal virtual {\n        baseURI = newBaseURI;\n    }\n\n    /**\n     * @dev Creates `amount` tokens of token type `id`, and assigns them to a smart contract (to).\n     *\n     *\n     * Requirements:\n     * - `to` must be a smart contract and must implement {IERC1238Receiver-onERC1238BatchMint} and return the\n     * acceptance magic value.\n     *\n     * Emits a {MintSingle} event.\n     */\n    function _mintToContract(\n        address to,\n        uint256 id,\n        uint256 amount,\n        bytes memory data\n    ) internal virtual {\n        require(to.isContract(), \"ERC1238: Recipient is not a contract\");\n\n        _mint(to, id, amount, data);\n\n        _doSafeMintAcceptanceCheck(msg.sender, to, id, amount, data);\n    }\n\n    /**\n     * @dev Creates `amount` tokens of token type `id`, and assigns them to the\n     * Externally Owned Account (to).\n     *\n     * Requirements:\n     *\n     * - `v`, `r` and `s` must be a EIP712 signature from `to` as defined by ERC1238Approval to\n     * approve the minting transaction.\n     *\n     * Emits a {MintSingle} event.\n     */\n    function _mintToEOA(\n        address to,\n        uint256 id,\n        uint256 amount,\n        uint8 v,\n        bytes32 r,\n        bytes32 s,\n        bytes memory data\n    ) internal virtual {\n        // bytes32 messageHash = _getMintApprovalMessageHash(to, id, amount);\n        // _verifyMintingApproval(to, messageHash, v, r, s);\n        bytes32 messageHash = _getMintApprovalMessageHash(msg.sender, id, amount);\n        _verifyMintingApproval(msg.sender, messageHash, v, r, s);\n\n        _mint(to, id, amount, data);\n    }\n\n    /**\n     * @dev [Batched] version of {_mintToContract}. A batch specifies an array of token `id` and\n     * the amount of tokens for each.\n     *\n     * Requirements:\n     * - `to` must be a smart contract and must implement {IERC1238Receiver-onERC1238BatchMint} and return the\n     * acceptance magic value.\n     * - `ids` and `amounts` must have the same length.\n     *\n     * Emits a {MintBatch} event.\n     */\n    function _mintBatchToContract(\n        address to,\n        uint256[] memory ids,\n        uint256[] memory amounts,\n        bytes memory data\n    ) internal virtual {\n        require(to.isContract(), \"ERC1238: Recipient is not a contract\");\n\n        _mintBatch(to, ids, amounts, data);\n\n        _doSafeBatchMintAcceptanceCheck(msg.sender, to, ids, amounts, data);\n    }\n\n    /**\n     * @dev [Batched] version of {_mintToEOA}. A batch specifies an array of token `id` and\n     * the amount of tokens for each.\n     *\n     * Requirements:\n     * - `v`, `r` and `s` must be a EIP712 signature from `to` as defined by ERC1238Approval to\n     * approve the batch minting transaction.\n     *\n     * Emits a {MintBatch} event.\n     */\n    function _mintBatchToEOA(\n        address to,\n        uint256[] memory ids,\n        uint256[] memory amounts,\n        uint8 v,\n        bytes32 r,\n        bytes32 s,\n        bytes memory data\n    ) internal virtual {\n        bytes32 messageHash = _getMintBatchApprovalMessageHash(\n            to,\n            ids,\n            amounts\n        );\n        _verifyMintingApproval(to, messageHash, v, r, s);\n\n        _mintBatch(to, ids, amounts, data);\n    }\n\n    /**\n     * @dev Mints a bundle, which can be viewed as minting several batches\n     * to an array of addresses in one transaction.\n     *\n     * Requirements:\n     * - `to` can be a combination of smart contract addresses and EOAs.\n     * - If `to` is not a contract, an EIP712 signature from `to` as defined by ERC1238Approval\n     * must be passed at the right index in `data`.\n     *\n     * Emits multiple {MintBatch} events.\n     */\n    function _mintBundle(\n        address[] memory to,\n        uint256[][] memory ids,\n        uint256[][] memory amounts,\n        bytes[] memory data\n    ) internal virtual {\n        for (uint256 i = 0; i < to.length; i++) {\n            if (to[i].isContract()) {\n                _mintBatchToContract(to[i], ids[i], amounts[i], data[i]);\n            } else {\n                (bytes32 r, bytes32 s, uint8 v) = splitSignature(data[i]);\n                _mintBatchToEOA(to[i], ids[i], amounts[i], v, r, s, data[i]);\n            }\n        }\n    }\n\n    /**\n     * @dev Creates `amount` tokens of token type `id`, and assigns them to `to`.\n     *\n     * Emits a {MintSingle} event.\n     *\n     * Requirements:\n     *\n     * - If `to` refers to a smart contract, it must implement {IERC1238Receiver-onERC1238Mint} and return the\n     * acceptance magic value.\n     *\n     * Emits a {MintSingle} event.\n     */\n    function _mint(\n        address to,\n        uint256 id,\n        uint256 amount,\n        bytes memory data\n    ) private {\n        address minter = msg.sender;\n\n        _beforeMint(minter, to, id, amount, data);\n\n        _balances[id][to] += amount;\n\n        emit MintSingle(minter, to, id, amount);\n    }\n\n    /**\n     * @dev [Batched] version of {_mint}.\n     *\n     * Requirements:\n     *\n     * - `ids` and `amounts` must have the same length.\n     *\n     * Emits a {MintBatch} event.\n     */\n    function _mintBatch(\n        address to,\n        uint256[] memory ids,\n        uint256[] memory amounts,\n        bytes memory data\n    ) private {\n        require(\n            ids.length == amounts.length,\n            \"ERC1238: ids and amounts length mismatch\"\n        );\n\n        address minter = msg.sender;\n\n        for (uint256 i = 0; i < ids.length; i++) {\n            _beforeMint(minter, to, ids[i], amounts[i], data);\n\n            _balances[ids[i]][to] += amounts[i];\n        }\n\n        emit MintBatch(minter, to, ids, amounts);\n    }\n\n    /**\n     * @dev Destroys `amount` tokens of token type `id` from `from`\n     *\n     * Requirements:\n     *\n     * - `from` cannot be the zero address.\n     * - `from` must have at least `amount` tokens of token type `id`.\n     *\n     * Emits a {BurnSingle} event.\n     */\n    function _burn(\n        address from,\n        uint256 id,\n        uint256 amount\n    ) internal virtual {\n        require(from != address(0), \"ERC1238: burn from the zero address\");\n\n        address burner = msg.sender;\n\n        _beforeBurn(burner, from, id, amount);\n\n        uint256 fromBalance = _balances[id][from];\n        require(fromBalance >= amount, \"ERC1238: burn amount exceeds balance\");\n        unchecked {\n            _balances[id][from] = fromBalance - amount;\n        }\n\n        emit BurnSingle(burner, from, id, amount);\n    }\n\n    /**\n     * @dev [Batched] version of {_burn}.\n     *\n     * Requirements:\n     *\n     * - `ids` and `amounts` must have the same length.\n     *\n     * Emits a {BurnBatch} event.\n     */\n    function _burnBatch(\n        address from,\n        uint256[] memory ids,\n        uint256[] memory amounts\n    ) internal virtual {\n        require(from != address(0), \"ERC1238: burn from the zero address\");\n        require(\n            ids.length == amounts.length,\n            \"ERC1238: ids and amounts length mismatch\"\n        );\n\n        address burner = msg.sender;\n\n        for (uint256 i = 0; i < ids.length; i++) {\n            uint256 id = ids[i];\n            uint256 amount = amounts[i];\n\n            _beforeBurn(burner, from, id, amount);\n\n            uint256 fromBalance = _balances[id][from];\n            require(\n                fromBalance >= amount,\n                \"ERC1238: burn amount exceeds balance\"\n            );\n            unchecked {\n                _balances[id][from] = fromBalance - amount;\n            }\n        }\n\n        emit BurnBatch(burner, from, ids, amounts);\n    }\n\n    /**\n     * @dev Hook that is called before an `amount` of tokens are minted.\n     *\n     * Calling conditions:\n     * - `minter` and `to` cannot be the zero address\n     *\n     */\n    function _beforeMint(\n        address minter,\n        address to,\n        uint256 id,\n        uint256 amount,\n        bytes memory data\n    ) internal virtual {}\n\n    /**\n     * @dev Hook that is called before an `amount` of tokens are burned.\n     *\n     * Calling conditions:\n     * - `minter` and `to` cannot be the zero address\n     *\n     */\n    function _beforeBurn(\n        address burner,\n        address from,\n        uint256 id,\n        uint256 amount\n    ) internal virtual {}\n\n    function _doSafeMintAcceptanceCheck(\n        address minter,\n        address to,\n        uint256 id,\n        uint256 amount,\n        bytes memory data\n    ) private {\n        try\n            IERC1238Receiver(to).onERC1238Mint(minter, id, amount, data)\n        returns (bytes4 response) {\n            if (response != IERC1238Receiver.onERC1238Mint.selector) {\n                revert(\"ERC1238: ERC1238Receiver rejected tokens\");\n            }\n        } catch Error(string memory reason) {\n            revert(reason);\n        } catch {\n            revert(\"ERC1238: transfer to non ERC1238Receiver implementer\");\n        }\n    }\n\n    function _doSafeBatchMintAcceptanceCheck(\n        address minter,\n        address to,\n        uint256[] memory ids,\n        uint256[] memory amounts,\n        bytes memory data\n    ) private {\n        try\n            IERC1238Receiver(to).onERC1238BatchMint(minter, ids, amounts, data)\n        returns (bytes4 response) {\n            if (response != IERC1238Receiver.onERC1238BatchMint.selector) {\n                revert(\"ERC1238: ERC1238Receiver rejected tokens\");\n            }\n        } catch Error(string memory reason) {\n            revert(reason);\n        } catch {\n            revert(\"ERC1238: transfer to non ERC1238Receiver implementer\");\n        }\n    }\n\n    // Could have that in a library instead of redeploying it every time?\n    function _asSingletonArray(uint256 element)\n        private\n        pure\n        returns (uint256[] memory)\n    {\n        uint256[] memory array = new uint256[](1);\n        array[0] = element;\n\n        return array;\n    }\n\n    function splitSignature(bytes memory sig)\n        public\n        pure\n        returns (\n            bytes32 r,\n            bytes32 s,\n            uint8 v\n        )\n    {\n        require(sig.length == 65, \"invalid signature length\");\n\n        assembly {\n            /*\n            First 32 bytes stores the length of the signature\n\n            add(sig, 32) = pointer of sig + 32\n            effectively, skips first 32 bytes of signature\n\n            mload(p) loads next 32 bytes starting at the memory address p into memory\n            */\n\n            // first 32 bytes, after the length prefix\n            r := mload(add(sig, 32))\n            // second 32 bytes\n            s := mload(add(sig, 64))\n            // final byte (first byte of the next 32 bytes)\n            v := byte(0, mload(add(sig, 96)))\n        }\n\n        // implicitly return (r, s, v)\n    }\n}\n",
  "sourcePath": "/home/cowboy/MyWork/ONERep/src/badge-truffle/contracts/ERC1238/ERC1238.sol",
  "compiler": {
    "name": "solc",
    "version": "0.8.13+commit.abaa5c0e.Emscripten.clang"
  },
  "schemaVersion": "3.4.7",
  "updatedAt": "2022-05-23T03:18:23.676Z",
  "devdoc": {
    "details": "Implementation proposal for non-transferable (Badge) tokens See https://github.com/ethereum/EIPs/issues/1238",
    "kind": "dev",
    "methods": {
      "balanceOf(address,uint256)": {
        "details": "See {IERC1238-balanceOf}. Requirements: - `account` cannot be the zero address."
      },
      "balanceOfBatch(address,uint256[])": {
        "details": "See {IERC1238-balanceOfBatch}."
      },
      "balanceOfBundle(address[],uint256[][])": {
        "details": "See {IERC1238-balanceOfBundle}."
      },
      "constructor": {
        "details": "Initializes the contract by setting a `baseURI`. See {_setBaseURI}"
      }
    },
    "version": 1
  },
  "userdoc": {
    "kind": "user",
    "methods": {},
    "version": 1
  }
}