{
  "contractName": "ERC1238Approval",
  "abi": [
    {
      "inputs": [],
      "stateMutability": "nonpayable",
      "type": "constructor"
    },
    {
      "anonymous": false,
      "inputs": [
        {
          "indexed": false,
          "internalType": "string",
          "name": "name",
          "type": "string"
        },
        {
          "indexed": false,
          "internalType": "string",
          "name": "version",
          "type": "string"
        },
        {
          "indexed": false,
          "internalType": "uint256",
          "name": "chainId",
          "type": "uint256"
        },
        {
          "indexed": false,
          "internalType": "address",
          "name": "verifyingContract",
          "type": "address"
        },
        {
          "indexed": false,
          "internalType": "bytes32",
          "name": "dsDigest",
          "type": "bytes32"
        }
      ],
      "name": "DomainSeparatorForMintApproval",
      "type": "event"
    },
    {
      "inputs": [],
      "name": "DOMAIN_SEPARATOR",
      "outputs": [
        {
          "internalType": "bytes32",
          "name": "",
          "type": "bytes32"
        }
      ],
      "stateMutability": "view",
      "type": "function"
    }
  ],
  "bytecode": "0x608060405234801561001057600080fd5b50600060405180608001604052806040518060400160405280601581526020017f45524331323338204d696e7420417070726f76616c000000000000000000000081525081526020016040518060400160405280600181526020017f310000000000000000000000000000000000000000000000000000000000000081525081526020014681526020013073ffffffffffffffffffffffffffffffffffffffff1681525090507f8b73c3c69bb8fe3d512ecc4cf759cc79239f7b179b0ffacaa9a75d522b39400f8160000151805190602001208260200151805190602001208360400151846060015160405160200161010d9594939291906101f3565b604051602081830303815290604052805190602001206000819055507fe5a822f101a714d5cd94a04cf067a84a2ddb69b5326b93008a040df8a74a387281600001518260200151836040015184606001516000546040516101729594939291906102df565b60405180910390a150610340565b6000819050919050565b61019381610180565b82525050565b6000819050919050565b6101ac81610199565b82525050565b600073ffffffffffffffffffffffffffffffffffffffff82169050919050565b60006101dd826101b2565b9050919050565b6101ed816101d2565b82525050565b600060a082019050610208600083018861018a565b610215602083018761018a565b610222604083018661018a565b61022f60608301856101a3565b61023c60808301846101e4565b9695505050505050565b600081519050919050565b600082825260208201905092915050565b60005b83811015610280578082015181840152602081019050610265565b8381111561028f576000848401525b50505050565b6000601f19601f8301169050919050565b60006102b182610246565b6102bb8185610251565b93506102cb818560208601610262565b6102d481610295565b840191505092915050565b600060a08201905081810360008301526102f981886102a6565b9050818103602083015261030d81876102a6565b905061031c60408301866101a3565b61032960608301856101e4565b610336608083018461018a565b9695505050505050565b60b38061034e6000396000f3fe6080604052348015600f57600080fd5b506004361060285760003560e01c80633644e51514602d575b600080fd5b60336047565b604051603e91906064565b60405180910390f35b60005481565b6000819050919050565b605e81604d565b82525050565b6000602082019050607760008301846057565b9291505056fea26469706673582212209dcc574dd8dc68097852edd0f63bb570a372da2d7052e1c3c81030a1e690baf964736f6c634300080d0033",
  "immutableReferences": {},
  "source": "// SPDX-License-Identifier: MIT\r\npragma solidity ^0.8.0;\r\n\r\nstruct EIP712Domain {\r\n    string name;\r\n    string version;\r\n    uint256 chainId;\r\n    address verifyingContract;\r\n}\r\n\r\n// Typed data of a Mint Batch transaction\r\n// needing to be approved by `recipient`.\r\nstruct MintBatchApproval {\r\n    address recipient;\r\n    uint256[] ids;\r\n    uint256[] amounts;\r\n}\r\n\r\n// Typed data of a Mint transaction\r\n// needing to be approved by `recipient`.\r\nstruct MintApproval {\r\n    address recipient;\r\n    uint256 id;\r\n    uint256 amount;\r\n}\r\n\r\n/**\r\n * ERC1238 tokens can only be minted to an EOA by providing a message signed by the recipient to\r\n * approve the minting, or batch minting, of tokens.\r\n *\r\n * This contract contains the logic around generating and verifiying these signed messages.\r\n *\r\n * @dev The implementation is based on EIP-712, a standard for typed structured data hashing and signing.\r\n * The standard defines the `hashtruct` function where structs are encoded with their typeHash\r\n * (a constant defining their type) and hashed.\r\n * See https://eips.ethereum.org/EIPS/eip-712\r\n *\r\n */\r\ncontract ERC1238Approval {\r\n    bytes32 private constant EIP712DOMAIN_TYPEHASH =\r\n        keccak256(\r\n            \"EIP712Domain(string name,string version,uint256 chainId,address verifyingContract)\"\r\n        );\r\n\r\n    bytes32 private constant MINT_APPROVAL_TYPEHASH =\r\n        keccak256(\"MintApproval(address recipient,uint256 id,uint256 amount)\");\r\n\r\n    bytes32 private constant MINT_BATCH_APPROVAL_TYPEHASH =\r\n        keccak256(\r\n            \"MintBatchApproval(address recipient,uint256[] ids,uint256[] amounts)\"\r\n        );\r\n\r\n    // Domain Separator, as defined by EIP-712 (`hashstruct(eip712Domain)`)\r\n    bytes32 public DOMAIN_SEPARATOR;\r\n\r\n    event DomainSeparatorForMintApproval(\r\n        string name, \r\n        string version, \r\n        uint256 chainId, \r\n        address verifyingContract, \r\n        bytes32 dsDigest\r\n    );\r\n\r\n    constructor() {\r\n        // The EIP712Domain shares the same name for all ERC128Approval contracts\r\n        // but the unique address of this contract as `verifiyingContract`\r\n        EIP712Domain memory eip712Domain = EIP712Domain({\r\n            name: \"ERC1238 Mint Approval\",\r\n            version: \"1\",\r\n            chainId: block.chainid,\r\n            verifyingContract: address(this)\r\n        });\r\n\r\n        DOMAIN_SEPARATOR = keccak256(\r\n            abi.encode(\r\n                EIP712DOMAIN_TYPEHASH,\r\n                keccak256(bytes(eip712Domain.name)),\r\n                keccak256(bytes(eip712Domain.version)),\r\n                eip712Domain.chainId,\r\n                eip712Domain.verifyingContract\r\n            )\r\n        );\r\n        emit DomainSeparatorForMintApproval(\r\n            eip712Domain.name, \r\n            eip712Domain.version, \r\n            eip712Domain.chainId, \r\n            eip712Domain.verifyingContract, \r\n            DOMAIN_SEPARATOR\r\n        );\r\n    }\r\n\r\n    /**\r\n     * @dev Returns a MintApprovalMessageHash which is the result of `hashstruct(MintApproval)`.\r\n     * To verify that `recipient` approved a mint transaction, the hash returned\r\n     * must be passed to _verifyMintingApproval as `mintApprovalHash`.\r\n     *\r\n     */\r\n    function _getMintApprovalMessageHash(\r\n        address recipient,\r\n        uint256 id,\r\n        uint256 amount\r\n    ) internal pure returns (bytes32) {\r\n        MintApproval memory mintApproval = MintApproval({\r\n            recipient: recipient,\r\n            id: id,\r\n            amount: amount\r\n        });\r\n        return\r\n            keccak256(\r\n                abi.encode(\r\n                    MINT_APPROVAL_TYPEHASH,\r\n                    mintApproval.recipient,\r\n                    mintApproval.id,\r\n                    mintApproval.amount\r\n                )\r\n            );\r\n    }\r\n\r\n    /**\r\n     * @dev Returns a MintBatchApprovalMessageHash which is the result of `hashstruct(MintBatchApproval)`.\r\n     * To verify that `recipient` approved a mint batch transaction, the hash returned\r\n     * must be passed to _verifyMintingApproval as `mintApprovalHash`.\r\n     *\r\n     */\r\n    function _getMintBatchApprovalMessageHash(\r\n        address recipient,\r\n        uint256[] memory ids,\r\n        uint256[] memory amounts\r\n    ) internal pure returns (bytes32) {\r\n        MintBatchApproval memory mintBatchApproval = MintBatchApproval({\r\n            recipient: recipient,\r\n            ids: ids,\r\n            amounts: amounts\r\n        });\r\n\r\n        return\r\n            keccak256(\r\n                abi.encode(\r\n                    MINT_BATCH_APPROVAL_TYPEHASH,\r\n                    mintBatchApproval.recipient,\r\n                    keccak256(abi.encodePacked(mintBatchApproval.ids)),\r\n                    keccak256(abi.encodePacked(mintBatchApproval.amounts))\r\n                )\r\n            );\r\n    }\r\n\r\n    /**\r\n     * @dev Given a mintApprovalHash (either MintApprovalMessageHash or MintBatchApprovalMessageHash),\r\n     * this function verifies if the signature (v, r, and s) was signed by `recipient` based on the\r\n     * EIP712Domain of this contract, and otherwise reverts.\r\n     */\r\n    function _verifyMintingApproval(\r\n        address recipient,\r\n        bytes32 mintApprovalHash,\r\n        uint8 v,\r\n        bytes32 r,\r\n        bytes32 s\r\n    ) internal view {\r\n        bytes32 digest = keccak256(\r\n            abi.encodePacked(\"\\x19\\x01\", DOMAIN_SEPARATOR, mintApprovalHash)\r\n        );\r\n        require(\r\n            ecrecover(digest, v, r, s) == recipient,\r\n            \"ERC1238: Approval verification failed\"\r\n        );\r\n    }\r\n}\r\n",
  "sourcePath": "F:\\Workspace\\Orders\\ONERep\\ONERep.github\\dat\\badge-truffle\\contracts\\ERC1238\\ERC1238Approval.sol",
  "compiler": {
    "name": "solc",
    "version": "0.8.13+commit.abaa5c0e.Emscripten.clang"
  },
  "schemaVersion": "3.4.7",
  "updatedAt": "2022-06-14T03:16:16.685Z",
  "devdoc": {
    "details": "The implementation is based on EIP-712, a standard for typed structured data hashing and signing. The standard defines the `hashtruct` function where structs are encoded with their typeHash (a constant defining their type) and hashed. See https://eips.ethereum.org/EIPS/eip-712",
    "kind": "dev",
    "methods": {},
    "version": 1
  },
  "userdoc": {
    "kind": "user",
    "methods": {},
    "notice": "ERC1238 tokens can only be minted to an EOA by providing a message signed by the recipient to approve the minting, or batch minting, of tokens. This contract contains the logic around generating and verifiying these signed messages.",
    "version": 1
  }
}