{
  "contractName": "ERC1238Approval",
  "abi": [
    {
      "inputs": [],
      "stateMutability": "nonpayable",
      "type": "constructor"
    },
    {
      "anonymous": false,
      "inputs": [
        {
          "indexed": false,
          "internalType": "string",
          "name": "name",
          "type": "string"
        },
        {
          "indexed": false,
          "internalType": "string",
          "name": "version",
          "type": "string"
        },
        {
          "indexed": false,
          "internalType": "uint256",
          "name": "chainId",
          "type": "uint256"
        },
        {
          "indexed": false,
          "internalType": "address",
          "name": "verifyingContract",
          "type": "address"
        },
        {
          "indexed": false,
          "internalType": "bytes32",
          "name": "dsDigest",
          "type": "bytes32"
        }
      ],
      "name": "DomainSeparatorForMintApproval",
      "type": "event"
    },
    {
      "inputs": [],
      "name": "DOMAIN_SEPARATOR",
      "outputs": [
        {
          "internalType": "bytes32",
          "name": "",
          "type": "bytes32"
        }
      ],
      "stateMutability": "view",
      "type": "function"
    }
  ],
  "bytecode": "0x608060405234801561001057600080fd5b50600060405180608001604052806040518060400160405280601581526020017f45524331323338204d696e7420417070726f76616c000000000000000000000081525081526020016040518060400160405280600181526020017f310000000000000000000000000000000000000000000000000000000000000081525081526020014681526020013073ffffffffffffffffffffffffffffffffffffffff1681525090507f8b73c3c69bb8fe3d512ecc4cf759cc79239f7b179b0ffacaa9a75d522b39400f8160000151805190602001208260200151805190602001208360400151846060015160405160200161010d9594939291906101f3565b604051602081830303815290604052805190602001206000819055507fe5a822f101a714d5cd94a04cf067a84a2ddb69b5326b93008a040df8a74a387281600001518260200151836040015184606001516000546040516101729594939291906102df565b60405180910390a150610340565b6000819050919050565b61019381610180565b82525050565b6000819050919050565b6101ac81610199565b82525050565b600073ffffffffffffffffffffffffffffffffffffffff82169050919050565b60006101dd826101b2565b9050919050565b6101ed816101d2565b82525050565b600060a082019050610208600083018861018a565b610215602083018761018a565b610222604083018661018a565b61022f60608301856101a3565b61023c60808301846101e4565b9695505050505050565b600081519050919050565b600082825260208201905092915050565b60005b83811015610280578082015181840152602081019050610265565b8381111561028f576000848401525b50505050565b6000601f19601f8301169050919050565b60006102b182610246565b6102bb8185610251565b93506102cb818560208601610262565b6102d481610295565b840191505092915050565b600060a08201905081810360008301526102f981886102a6565b9050818103602083015261030d81876102a6565b905061031c60408301866101a3565b61032960608301856101e4565b610336608083018461018a565b9695505050505050565b60b38061034e6000396000f3fe6080604052348015600f57600080fd5b506004361060285760003560e01c80633644e51514602d575b600080fd5b60336047565b604051603e91906064565b60405180910390f35b60005481565b6000819050919050565b605e81604d565b82525050565b6000602082019050607760008301846057565b9291505056fea2646970667358221220dce3193e781c7fed83dd143875cd22a16f67087ed4486cd2848ea78bec3e3e8b64736f6c634300080d0033",
  "immutableReferences": {},
  "source": "// SPDX-License-Identifier: MIT\npragma solidity ^0.8.0;\n\nstruct EIP712Domain {\n    string name;\n    string version;\n    uint256 chainId;\n    address verifyingContract;\n}\n\n// Typed data of a Mint Batch transaction\n// needing to be approved by `recipient`.\nstruct MintBatchApproval {\n    address recipient;\n    uint256[] ids;\n    uint256[] amounts;\n}\n\n// Typed data of a Mint transaction\n// needing to be approved by `recipient`.\nstruct MintApproval {\n    address recipient;\n    uint256 id;\n    uint256 amount;\n}\n\n/**\n * ERC1238 tokens can only be minted to an EOA by providing a message signed by the recipient to\n * approve the minting, or batch minting, of tokens.\n *\n * This contract contains the logic around generating and verifiying these signed messages.\n *\n * @dev The implementation is based on EIP-712, a standard for typed structured data hashing and signing.\n * The standard defines the `hashtruct` function where structs are encoded with their typeHash\n * (a constant defining their type) and hashed.\n * See https://eips.ethereum.org/EIPS/eip-712\n *\n */\ncontract ERC1238Approval {\n    bytes32 private constant EIP712DOMAIN_TYPEHASH =\n        keccak256(\n            \"EIP712Domain(string name,string version,uint256 chainId,address verifyingContract)\"\n        );\n\n    bytes32 private constant MINT_APPROVAL_TYPEHASH =\n        keccak256(\"MintApproval(address recipient,uint256 id,uint256 amount)\");\n\n    bytes32 private constant MINT_BATCH_APPROVAL_TYPEHASH =\n        keccak256(\n            \"MintBatchApproval(address recipient,uint256[] ids,uint256[] amounts)\"\n        );\n\n    // Domain Separator, as defined by EIP-712 (`hashstruct(eip712Domain)`)\n    bytes32 public DOMAIN_SEPARATOR;\n\n    event DomainSeparatorForMintApproval(\n        string name, \n        string version, \n        uint256 chainId, \n        address verifyingContract, \n        bytes32 dsDigest\n    );\n\n    constructor() {\n        // The EIP712Domain shares the same name for all ERC128Approval contracts\n        // but the unique address of this contract as `verifiyingContract`\n        EIP712Domain memory eip712Domain = EIP712Domain({\n            name: \"ERC1238 Mint Approval\",\n            version: \"1\",\n            chainId: block.chainid,\n            verifyingContract: address(this)\n        });\n\n        DOMAIN_SEPARATOR = keccak256(\n            abi.encode(\n                EIP712DOMAIN_TYPEHASH,\n                keccak256(bytes(eip712Domain.name)),\n                keccak256(bytes(eip712Domain.version)),\n                eip712Domain.chainId,\n                eip712Domain.verifyingContract\n            )\n        );\n        emit DomainSeparatorForMintApproval(\n            eip712Domain.name, \n            eip712Domain.version, \n            eip712Domain.chainId, \n            eip712Domain.verifyingContract, \n            DOMAIN_SEPARATOR\n        );\n    }\n\n    /**\n     * @dev Returns a MintApprovalMessageHash which is the result of `hashstruct(MintApproval)`.\n     * To verify that `recipient` approved a mint transaction, the hash returned\n     * must be passed to _verifyMintingApproval as `mintApprovalHash`.\n     *\n     */\n    function _getMintApprovalMessageHash(\n        address recipient,\n        uint256 id,\n        uint256 amount\n    ) internal pure returns (bytes32) {\n        MintApproval memory mintApproval = MintApproval({\n            recipient: recipient,\n            id: id,\n            amount: amount\n        });\n        return\n            keccak256(\n                abi.encode(\n                    MINT_APPROVAL_TYPEHASH,\n                    mintApproval.recipient,\n                    mintApproval.id,\n                    mintApproval.amount\n                )\n            );\n    }\n\n    /**\n     * @dev Returns a MintBatchApprovalMessageHash which is the result of `hashstruct(MintBatchApproval)`.\n     * To verify that `recipient` approved a mint batch transaction, the hash returned\n     * must be passed to _verifyMintingApproval as `mintApprovalHash`.\n     *\n     */\n    function _getMintBatchApprovalMessageHash(\n        address recipient,\n        uint256[] memory ids,\n        uint256[] memory amounts\n    ) internal pure returns (bytes32) {\n        MintBatchApproval memory mintBatchApproval = MintBatchApproval({\n            recipient: recipient,\n            ids: ids,\n            amounts: amounts\n        });\n\n        return\n            keccak256(\n                abi.encode(\n                    MINT_BATCH_APPROVAL_TYPEHASH,\n                    mintBatchApproval.recipient,\n                    keccak256(abi.encodePacked(mintBatchApproval.ids)),\n                    keccak256(abi.encodePacked(mintBatchApproval.amounts))\n                )\n            );\n    }\n\n    /**\n     * @dev Given a mintApprovalHash (either MintApprovalMessageHash or MintBatchApprovalMessageHash),\n     * this function verifies if the signature (v, r, and s) was signed by `recipient` based on the\n     * EIP712Domain of this contract, and otherwise reverts.\n     */\n    function _verifyMintingApproval(\n        address recipient,\n        bytes32 mintApprovalHash,\n        uint8 v,\n        bytes32 r,\n        bytes32 s\n    ) internal view {\n        bytes32 digest = keccak256(\n            abi.encodePacked(\"\\x19\\x01\", DOMAIN_SEPARATOR, mintApprovalHash)\n        );\n        require(\n            ecrecover(digest, v, r, s) == recipient,\n            \"ERC1238: Approval verification failed\"\n        );\n    }\n}\n",
  "sourcePath": "/home/cowboy/MyWork/ONERep/src/badge-truffle/contracts/ERC1238/ERC1238Approval.sol",
  "compiler": {
    "name": "solc",
    "version": "0.8.13+commit.abaa5c0e.Emscripten.clang"
  },
  "schemaVersion": "3.4.7",
  "updatedAt": "2022-05-23T03:18:23.732Z",
  "devdoc": {
    "details": "The implementation is based on EIP-712, a standard for typed structured data hashing and signing. The standard defines the `hashtruct` function where structs are encoded with their typeHash (a constant defining their type) and hashed. See https://eips.ethereum.org/EIPS/eip-712",
    "kind": "dev",
    "methods": {},
    "version": 1
  },
  "userdoc": {
    "kind": "user",
    "methods": {},
    "notice": "ERC1238 tokens can only be minted to an EOA by providing a message signed by the recipient to approve the minting, or batch minting, of tokens. This contract contains the logic around generating and verifiying these signed messages.",
    "version": 1
  }
}