{
  "contractName": "Reciver",
  "abi": [
    {
      "inputs": [
        {
          "internalType": "address",
          "name": "minter",
          "type": "address"
        },
        {
          "internalType": "uint256",
          "name": "id",
          "type": "uint256"
        },
        {
          "internalType": "uint256",
          "name": "amount",
          "type": "uint256"
        },
        {
          "internalType": "bytes",
          "name": "data",
          "type": "bytes"
        }
      ],
      "name": "onERC1238Mint",
      "outputs": [
        {
          "internalType": "bytes4",
          "name": "",
          "type": "bytes4"
        }
      ],
      "stateMutability": "nonpayable",
      "type": "function"
    },
    {
      "inputs": [
        {
          "internalType": "address",
          "name": "minter",
          "type": "address"
        },
        {
          "internalType": "uint256[]",
          "name": "ids",
          "type": "uint256[]"
        },
        {
          "internalType": "uint256[]",
          "name": "amounts",
          "type": "uint256[]"
        },
        {
          "internalType": "bytes",
          "name": "data",
          "type": "bytes"
        }
      ],
      "name": "onERC1238BatchMint",
      "outputs": [
        {
          "internalType": "bytes4",
          "name": "",
          "type": "bytes4"
        }
      ],
      "stateMutability": "nonpayable",
      "type": "function"
    }
  ],
  "bytecode": "0x608060405234801561001057600080fd5b5061042f806100206000396000f3fe608060405234801561001057600080fd5b50600436106100365760003560e01c806345ed75d51461003b578063c0bfec681461006b575b600080fd5b610055600480360381019061005091906101fc565b61009b565b60405161006291906102bf565b60405180910390f35b61008560048036038101906100809190610330565b6100c9565b60405161009291906102bf565b60405180910390f35b60007f45ed75d5ceec1e67d4852f1ae69a4f566420591f2f1ab3f1a0c2c3c85991d715905095945050505050565b60007ff272c7bfe6b9d80e88c4366b580377c3a848087ae26e2fa6eb5e483f526d716f9050979650505050505050565b600080fd5b600080fd5b600073ffffffffffffffffffffffffffffffffffffffff82169050919050565b600061012e82610103565b9050919050565b61013e81610123565b811461014957600080fd5b50565b60008135905061015b81610135565b92915050565b6000819050919050565b61017481610161565b811461017f57600080fd5b50565b6000813590506101918161016b565b92915050565b600080fd5b600080fd5b600080fd5b60008083601f8401126101bc576101bb610197565b5b8235905067ffffffffffffffff8111156101d9576101d861019c565b5b6020830191508360018202830111156101f5576101f46101a1565b5b9250929050565b600080600080600060808688031215610218576102176100f9565b5b60006102268882890161014c565b955050602061023788828901610182565b945050604061024888828901610182565b935050606086013567ffffffffffffffff811115610269576102686100fe565b5b610275888289016101a6565b92509250509295509295909350565b60007fffffffff0000000000000000000000000000000000000000000000000000000082169050919050565b6102b981610284565b82525050565b60006020820190506102d460008301846102b0565b92915050565b60008083601f8401126102f0576102ef610197565b5b8235905067ffffffffffffffff81111561030d5761030c61019c565b5b602083019150836020820283011115610329576103286101a1565b5b9250929050565b60008060008060008060006080888a03121561034f5761034e6100f9565b5b600061035d8a828b0161014c565b975050602088013567ffffffffffffffff81111561037e5761037d6100fe565b5b61038a8a828b016102da565b9650965050604088013567ffffffffffffffff8111156103ad576103ac6100fe565b5b6103b98a828b016102da565b9450945050606088013567ffffffffffffffff8111156103dc576103db6100fe565b5b6103e88a828b016101a6565b92509250509295989194975092955056fea2646970667358221220cd419df2693f5780fd866a54c44f9558545c990508b88521009300a295c030c164736f6c634300080d0033",
  "immutableReferences": {},
  "source": "// SPDX-License-Identifier: GPL-3.0\n\npragma solidity >=0.7.0 <0.9.0;\n\n/**\n * @title Reciver\n * @dev Store & retrieve value in a variable\n * @custom:dev-run-script ./scripts/deploy_with_ethers.ts\n */\n\nimport \"./ERC1238/IERC1238Receiver.sol\";\n\n\ncontract Reciver is IERC1238Receiver {\n\n    uint256 number;\n\n     function  onERC1238Mint(\n        address minter,\n        uint256 id,\n        uint256 amount,\n        bytes calldata data\n    ) external override returns (bytes4){\n        return bytes4(keccak256(\"onERC1238Mint(address,uint256,uint256,bytes)\"));\n    }\n\n     function onERC1238BatchMint(\n        address minter,\n        uint256[] calldata ids,\n        uint256[] calldata amounts,\n        bytes calldata data\n    ) external override returns (bytes4){\n        return bytes4(keccak256(\"onERC1238Mint(address,address,uint256,uint256,bytes)\"));\n    }\n \n}",
  "sourcePath": "/home/cowboy/MyWork/ONERep/src/badge-truffle/contracts/Reciver.sol",
  "compiler": {
    "name": "solc",
    "version": "0.8.13+commit.abaa5c0e.Emscripten.clang"
  },
  "schemaVersion": "3.4.7",
  "updatedAt": "2022-05-23T03:18:23.811Z",
  "devdoc": {
    "kind": "dev",
    "methods": {
      "onERC1238BatchMint(address,uint256[],uint256[],bytes)": {
        "details": "Handles the receipt of multiple ERC1238 token types. NOTE: To accept the transfer(s), this must return `bytes4(keccak256(\"onERC1238BatchMint(address,address,uint256[],uint256[],bytes)\"))`",
        "params": {
          "amounts": "An array containing amounts of each token being transferred (order and length must match ids array)",
          "data": "Additional data with no specified format",
          "ids": "An array containing ids of each token being transferred (order and length must match values array)",
          "minter": "The address which initiated minting (i.e. msg.sender)"
        },
        "returns": {
          "_0": "`bytes4(keccak256(\"onERC1238BatchMint(address,uint256[],uint256[],bytes)\"))` if minting is allowed"
        }
      },
      "onERC1238Mint(address,uint256,uint256,bytes)": {
        "details": "Handles the receipt of a single ERC1238 token type. NOTE: To accept the transfer, this must return `bytes4(keccak256(\"onERC1238Mint(address,address,uint256,uint256,bytes)\"))`",
        "params": {
          "amount": "The amount of tokens being transferred",
          "data": "Additional data with no specified format",
          "id": "The ID of the token being transferred",
          "minter": "The address which initiated minting (i.e. msg.sender)"
        },
        "returns": {
          "_0": "`bytes4(keccak256(\"onERC1238Mint(address,uint256,uint256,bytes)\"))` if minting is allowed"
        }
      }
    },
    "version": 1
  },
  "userdoc": {
    "kind": "user",
    "methods": {},
    "version": 1
  }
}